{
  "contractName": "CollectiveInvestmentSchemeV2",
  "abi": [
    {
      "inputs": [
        {
          "internalType": "address",
          "name": "WETHcontractAddress_",
          "type": "address"
        },
        {
          "internalType": "address",
          "name": "underlyingAsset_",
          "type": "address"
        },
        {
          "internalType": "uint256",
          "name": "offerClosingTime_",
          "type": "uint256"
        },
        {
          "internalType": "uint256",
          "name": "orderExpiration_",
          "type": "uint256"
        },
        {
          "internalType": "uint256",
          "name": "maturity_",
          "type": "uint256"
        },
        {
          "internalType": "string",
          "name": "tokanName_",
          "type": "string"
        },
        {
          "internalType": "string",
          "name": "tokenSymbol_",
          "type": "string"
        }
      ],
      "stateMutability": "nonpayable",
      "type": "constructor"
    },
    {
      "anonymous": false,
      "inputs": [
        {
          "indexed": true,
          "internalType": "address",
          "name": "owner",
          "type": "address"
        },
        {
          "indexed": true,
          "internalType": "address",
          "name": "spender",
          "type": "address"
        },
        {
          "indexed": false,
          "internalType": "uint256",
          "name": "value",
          "type": "uint256"
        }
      ],
      "name": "Approval",
      "type": "event"
    },
    {
      "anonymous": false,
      "inputs": [
        {
          "indexed": false,
          "internalType": "enum CollectiveInvestmentSchemeV2.State",
          "name": "from",
          "type": "uint8"
        },
        {
          "indexed": false,
          "internalType": "enum CollectiveInvestmentSchemeV2.State",
          "name": "to",
          "type": "uint8"
        }
      ],
      "name": "StateTransition",
      "type": "event"
    },
    {
      "anonymous": false,
      "inputs": [
        {
          "indexed": true,
          "internalType": "address",
          "name": "from",
          "type": "address"
        },
        {
          "indexed": true,
          "internalType": "address",
          "name": "to",
          "type": "address"
        },
        {
          "indexed": false,
          "internalType": "uint256",
          "name": "value",
          "type": "uint256"
        }
      ],
      "name": "Transfer",
      "type": "event"
    },
    {
      "inputs": [],
      "name": "decimals",
      "outputs": [
        {
          "internalType": "uint8",
          "name": "",
          "type": "uint8"
        }
      ],
      "stateMutability": "view",
      "type": "function"
    },
    {
      "inputs": [
        {
          "internalType": "address",
          "name": "spender",
          "type": "address"
        },
        {
          "internalType": "uint256",
          "name": "subtractedValue",
          "type": "uint256"
        }
      ],
      "name": "decreaseAllowance",
      "outputs": [
        {
          "internalType": "bool",
          "name": "",
          "type": "bool"
        }
      ],
      "stateMutability": "nonpayable",
      "type": "function"
    },
    {
      "inputs": [
        {
          "internalType": "address",
          "name": "spender",
          "type": "address"
        },
        {
          "internalType": "uint256",
          "name": "addedValue",
          "type": "uint256"
        }
      ],
      "name": "increaseAllowance",
      "outputs": [
        {
          "internalType": "bool",
          "name": "",
          "type": "bool"
        }
      ],
      "stateMutability": "nonpayable",
      "type": "function"
    },
    {
      "inputs": [],
      "name": "name",
      "outputs": [
        {
          "internalType": "string",
          "name": "",
          "type": "string"
        }
      ],
      "stateMutability": "view",
      "type": "function"
    },
    {
      "inputs": [],
      "name": "symbol",
      "outputs": [
        {
          "internalType": "string",
          "name": "",
          "type": "string"
        }
      ],
      "stateMutability": "view",
      "type": "function"
    },
    {
      "inputs": [],
      "name": "state",
      "outputs": [
        {
          "internalType": "enum CollectiveInvestmentSchemeV2.State",
          "name": "",
          "type": "uint8"
        }
      ],
      "stateMutability": "view",
      "type": "function"
    },
    {
      "inputs": [],
      "name": "offerClosingTime",
      "outputs": [
        {
          "internalType": "uint256",
          "name": "",
          "type": "uint256"
        }
      ],
      "stateMutability": "view",
      "type": "function"
    },
    {
      "inputs": [],
      "name": "orderExpiration",
      "outputs": [
        {
          "internalType": "uint256",
          "name": "",
          "type": "uint256"
        }
      ],
      "stateMutability": "view",
      "type": "function"
    },
    {
      "inputs": [],
      "name": "maturity",
      "outputs": [
        {
          "internalType": "uint256",
          "name": "",
          "type": "uint256"
        }
      ],
      "stateMutability": "view",
      "type": "function"
    },
    {
      "inputs": [],
      "name": "underlyingAsset",
      "outputs": [
        {
          "internalType": "address",
          "name": "",
          "type": "address"
        }
      ],
      "stateMutability": "view",
      "type": "function"
    },
    {
      "inputs": [],
      "name": "totalDepositWETH",
      "outputs": [
        {
          "internalType": "uint256",
          "name": "",
          "type": "uint256"
        }
      ],
      "stateMutability": "view",
      "type": "function"
    },
    {
      "inputs": [
        {
          "internalType": "address",
          "name": "_depositor",
          "type": "address"
        }
      ],
      "name": "depositWETH",
      "outputs": [
        {
          "internalType": "uint256",
          "name": "",
          "type": "uint256"
        }
      ],
      "stateMutability": "view",
      "type": "function"
    },
    {
      "inputs": [
        {
          "internalType": "uint256",
          "name": "amount_",
          "type": "uint256"
        }
      ],
      "name": "addDeposit",
      "outputs": [],
      "stateMutability": "nonpayable",
      "type": "function"
    },
    {
      "inputs": [],
      "name": "withdrawDeposit",
      "outputs": [],
      "stateMutability": "nonpayable",
      "type": "function"
    },
    {
      "inputs": [
        {
          "internalType": "uint256",
          "name": "amount_",
          "type": "uint256"
        }
      ],
      "name": "withdrawDeposit",
      "outputs": [],
      "stateMutability": "nonpayable",
      "type": "function"
    },
    {
      "inputs": [],
      "name": "makeBuyOrder",
      "outputs": [],
      "stateMutability": "nonpayable",
      "type": "function"
    },
    {
      "inputs": [],
      "name": "publishToken",
      "outputs": [],
      "stateMutability": "nonpayable",
      "type": "function"
    },
    {
      "inputs": [],
      "name": "sellAsset",
      "outputs": [],
      "stateMutability": "nonpayable",
      "type": "function"
    },
    {
      "inputs": [],
      "name": "redeem",
      "outputs": [],
      "stateMutability": "nonpayable",
      "type": "function"
    },
    {
      "inputs": [],
      "name": "totalSupply",
      "outputs": [
        {
          "internalType": "uint256",
          "name": "",
          "type": "uint256"
        }
      ],
      "stateMutability": "view",
      "type": "function"
    },
    {
      "inputs": [
        {
          "internalType": "address",
          "name": "account_",
          "type": "address"
        }
      ],
      "name": "balanceOf",
      "outputs": [
        {
          "internalType": "uint256",
          "name": "",
          "type": "uint256"
        }
      ],
      "stateMutability": "view",
      "type": "function"
    },
    {
      "inputs": [
        {
          "internalType": "address",
          "name": "owner_",
          "type": "address"
        },
        {
          "internalType": "address",
          "name": "spender_",
          "type": "address"
        }
      ],
      "name": "allowance",
      "outputs": [
        {
          "internalType": "uint256",
          "name": "",
          "type": "uint256"
        }
      ],
      "stateMutability": "view",
      "type": "function"
    },
    {
      "inputs": [
        {
          "internalType": "address",
          "name": "spender_",
          "type": "address"
        },
        {
          "internalType": "uint256",
          "name": "amount_",
          "type": "uint256"
        }
      ],
      "name": "approve",
      "outputs": [
        {
          "internalType": "bool",
          "name": "",
          "type": "bool"
        }
      ],
      "stateMutability": "nonpayable",
      "type": "function"
    },
    {
      "inputs": [
        {
          "internalType": "address",
          "name": "to_",
          "type": "address"
        },
        {
          "internalType": "uint256",
          "name": "amount_",
          "type": "uint256"
        }
      ],
      "name": "transfer",
      "outputs": [
        {
          "internalType": "bool",
          "name": "",
          "type": "bool"
        }
      ],
      "stateMutability": "nonpayable",
      "type": "function"
    },
    {
      "inputs": [
        {
          "internalType": "address",
          "name": "from_",
          "type": "address"
        },
        {
          "internalType": "address",
          "name": "to_",
          "type": "address"
        },
        {
          "internalType": "uint256",
          "name": "amount_",
          "type": "uint256"
        }
      ],
      "name": "transferFrom",
      "outputs": [
        {
          "internalType": "bool",
          "name": "",
          "type": "bool"
        }
      ],
      "stateMutability": "nonpayable",
      "type": "function"
    }
  ],
  "bytecode": "0x60806040523480156200001157600080fd5b5060405162004f7038038062004f7083398181016040528101906200003791906200057e565b818181600390816200004a9190620008b0565b5080600490816200005c9190620008b0565b505050600073ffffffffffffffffffffffffffffffffffffffff168773ffffffffffffffffffffffffffffffffffffffff16036200009957600080fd5b600073ffffffffffffffffffffffffffffffffffffffff168673ffffffffffffffffffffffffffffffffffffffff1603620000d357600080fd5b8442111562000119576040517f08c379a0000000000000000000000000000000000000000000000000000000008152600401620001109062000a1e565b60405180910390fd5b6276a700426200012a919062000a6f565b8511156200016f576040517f08c379a0000000000000000000000000000000000000000000000000000000008152600401620001669062000b20565b60405180910390fd5b83851115620001b5576040517f08c379a0000000000000000000000000000000000000000000000000000000008152600401620001ac9062000bb8565b60405180910390fd5b6276a70085620001c6919062000a6f565b8411156200020b576040517f08c379a0000000000000000000000000000000000000000000000000000000008152600401620002029062000c50565b60405180910390fd5b8285111562000251576040517f08c379a0000000000000000000000000000000000000000000000000000000008152600401620002489062000ce8565b60405180910390fd5b62ed4e008562000262919062000a6f565b831115620002a7576040517f08c379a00000000000000000000000000000000000000000000000000000000081526004016200029e9062000d80565b60405180910390fd5b86600560006101000a81548173ffffffffffffffffffffffffffffffffffffffff021916908373ffffffffffffffffffffffffffffffffffffffff16021790555085600960006101000a81548173ffffffffffffffffffffffffffffffffffffffff021916908373ffffffffffffffffffffffffffffffffffffffff1602179055508460068190555083600781905550826008819055505050505050505062000da2565b6000604051905090565b600080fd5b600080fd5b600073ffffffffffffffffffffffffffffffffffffffff82169050919050565b60006200038c826200035f565b9050919050565b6200039e816200037f565b8114620003aa57600080fd5b50565b600081519050620003be8162000393565b92915050565b6000819050919050565b620003d981620003c4565b8114620003e557600080fd5b50565b600081519050620003f981620003ce565b92915050565b600080fd5b600080fd5b6000601f19601f8301169050919050565b7f4e487b7100000000000000000000000000000000000000000000000000000000600052604160045260246000fd5b620004548262000409565b810181811067ffffffffffffffff821117156200047657620004756200041a565b5b80604052505050565b60006200048b6200034b565b905062000499828262000449565b919050565b600067ffffffffffffffff821115620004bc57620004bb6200041a565b5b620004c78262000409565b9050602081019050919050565b60005b83811015620004f4578082015181840152602081019050620004d7565b60008484015250505050565b60006200051762000511846200049e565b6200047f565b90508281526020810184848401111562000536576200053562000404565b5b62000543848285620004d4565b509392505050565b600082601f830112620005635762000562620003ff565b5b81516200057584826020860162000500565b91505092915050565b600080600080600080600060e0888a031215620005a0576200059f62000355565b5b6000620005b08a828b01620003ad565b9750506020620005c38a828b01620003ad565b9650506040620005d68a828b01620003e8565b9550506060620005e98a828b01620003e8565b9450506080620005fc8a828b01620003e8565b93505060a088015167ffffffffffffffff81111562000620576200061f6200035a565b5b6200062e8a828b016200054b565b92505060c088015167ffffffffffffffff8111156200065257620006516200035a565b5b620006608a828b016200054b565b91505092959891949750929550565b600081519050919050565b7f4e487b7100000000000000000000000000000000000000000000000000000000600052602260045260246000fd5b60006002820490506001821680620006c257607f821691505b602082108103620006d857620006d76200067a565b5b50919050565b60008190508160005260206000209050919050565b60006020601f8301049050919050565b600082821b905092915050565b600060088302620007427fffffffffffffffffffffffffffffffffffffffffffffffffffffffffffffffff8262000703565b6200074e868362000703565b95508019841693508086168417925050509392505050565b6000819050919050565b6000620007916200078b6200078584620003c4565b62000766565b620003c4565b9050919050565b6000819050919050565b620007ad8362000770565b620007c5620007bc8262000798565b84845462000710565b825550505050565b600090565b620007dc620007cd565b620007e9818484620007a2565b505050565b5b81811015620008115762000805600082620007d2565b600181019050620007ef565b5050565b601f82111562000860576200082a81620006de565b6200083584620006f3565b8101602085101562000845578190505b6200085d6200085485620006f3565b830182620007ee565b50505b505050565b600082821c905092915050565b6000620008856000198460080262000865565b1980831691505092915050565b6000620008a0838362000872565b9150826002028217905092915050565b620008bb826200066f565b67ffffffffffffffff811115620008d757620008d66200041a565b5b620008e38254620006a9565b620008f082828562000815565b600060209050601f83116001811462000928576000841562000913578287015190505b6200091f858262000892565b8655506200098f565b601f1984166200093886620006de565b60005b8281101562000962578489015182556001820191506020850194506020810190506200093b565b868310156200098257848901516200097e601f89168262000872565b8355505b6001600288020188555050505b505050505050565b600082825260208201905092915050565b7f4f6666657220636c6f73696e672074696d65206d75737420626520696e20667560008201527f747572652e000000000000000000000000000000000000000000000000000000602082015250565b600062000a0660258362000997565b915062000a1382620009a8565b604082019050919050565b6000602082019050818103600083015262000a3981620009f7565b9050919050565b7f4e487b7100000000000000000000000000000000000000000000000000000000600052601160045260246000fd5b600062000a7c82620003c4565b915062000a8983620003c4565b925082820190508082111562000aa45762000aa362000a40565b5b92915050565b7f4f6666657220636c6f73696e672074696d6520697320746f6f2066757475726560008201527f2e00000000000000000000000000000000000000000000000000000000000000602082015250565b600062000b0860218362000997565b915062000b158262000aaa565b604082019050919050565b6000602082019050818103600083015262000b3b8162000af9565b9050919050565b7f4f726465722065787069726174696f6e206d757374206265206166746572206f60008201527f6666657220636c6f73696e672074696d652e0000000000000000000000000000602082015250565b600062000ba060328362000997565b915062000bad8262000b42565b604082019050919050565b6000602082019050818103600083015262000bd38162000b91565b9050919050565b7f4f726465722065787069726174696f6e20697320746f6f20667574757265206f60008201527f66206f6666657220636c6f73696e672074696d652e0000000000000000000000602082015250565b600062000c3860358362000997565b915062000c458262000bda565b604082019050919050565b6000602082019050818103600083015262000c6b8162000c29565b9050919050565b7f4d61747572697479206d757374206265206166746572206f6666657220636c6f60008201527f73696e672074696d652e00000000000000000000000000000000000000000000602082015250565b600062000cd0602a8362000997565b915062000cdd8262000c72565b604082019050919050565b6000602082019050818103600083015262000d038162000cc1565b9050919050565b7f4d6174757269747920697320746f6f20667574757265206f66206f666665722060008201527f636c6f73696e672074696d652e00000000000000000000000000000000000000602082015250565b600062000d68602d8362000997565b915062000d758262000d0a565b604082019050919050565b6000602082019050818103600083015262000d9b8162000d59565b9050919050565b6141be8062000db26000396000f3fe608060405234801561001057600080fd5b50600436106101735760003560e01c80636c738c89116100de578063a457c2d711610097578063be040fb011610071578063be040fb014610418578063c19d93fb14610422578063dd62ed3e14610440578063ec61ba621461047057610173565b8063a457c2d71461039c578063a6f1fd51146103cc578063a9059cbb146103e857610173565b80636c738c89146102fe57806370a08231146103085780637119f098146103385780637158da7c14610342578063858bffc51461036057806395d89b411461037e57610173565b806323b872dd1161013057806323b872dd146102165780632c4a5b1114610246578063313ce5671461026457806333289a4614610282578063395093511461029e5780635a9fcd3d146102ce57610173565b806306fdde0314610178578063070b22ee14610196578063095ea7b3146101a0578063117df088146101d057806318160ddd146101da578063204f83f9146101f8575b600080fd5b61018061048e565b60405161018d9190612d55565b60405180910390f35b61019e610520565b005b6101ba60048036038101906101b59190612e10565b610628565b6040516101c79190612e6b565b60405180910390f35b6101d86106b2565b005b6101e26107ca565b6040516101ef9190612e95565b60405180910390f35b61020061081e565b60405161020d9190612e95565b60405180910390f35b610230600480360381019061022b9190612eb0565b610828565b60405161023d9190612e6b565b60405180910390f35b61024e6108b4565b60405161025b9190612e95565b60405180910390f35b61026c610938565b6040516102799190612f1f565b60405180910390f35b61029c60048036038101906102979190612f3a565b610941565b005b6102b860048036038101906102b39190612e10565b610a52565b6040516102c59190612e6b565b60405180910390f35b6102e860048036038101906102e39190612f67565b610a89565b6040516102f59190612e95565b60405180910390f35b610306610b10565b005b610322600480360381019061031d9190612f67565b610ca1565b60405161032f9190612e95565b60405180910390f35b610340610cf8565b005b61034a610db7565b6040516103579190612fa3565b60405180910390f35b610368610de1565b6040516103759190612e95565b60405180910390f35b610386610deb565b6040516103939190612d55565b60405180910390f35b6103b660048036038101906103b19190612e10565b610e7d565b6040516103c39190612e6b565b60405180910390f35b6103e660048036038101906103e19190612f3a565b610ef4565b005b61040260048036038101906103fd9190612e10565b611104565b60405161040f9190612e6b565b60405180910390f35b61042061118e565b005b61042a6114e4565b6040516104379190613035565b60405180910390f35b61045a60048036038101906104559190613050565b6114fb565b6040516104679190612e95565b60405180910390f35b610478611554565b6040516104859190612e95565b60405180910390f35b60606003805461049d906130bf565b80601f01602080910402602001604051908101604052809291908181526020018280546104c9906130bf565b80156105165780601f106104eb57610100808354040283529160200191610516565b820191906000526020600020905b8154815290600101906020018083116104f957829003601f168201915b5050505050905090565b6000600581111561053457610533612fbe565b5b600560149054906101000a900460ff16600581111561055657610555612fbe565b5b14610596576040517f08c379a000000000000000000000000000000000000000000000000000000000815260040161058d9061313c565b60405180910390fd5b61059e61155e565b6000600560149054906101000a900460ff1690506001600560146101000a81548160ff021916908360058111156105d8576105d7612fbe565b5b02179055507f3a779de46631dd65116ae538600f1bc3c338200c6aef638429b5de43301c28f781600560149054906101000a900460ff1660405161061d92919061315c565b60405180910390a150565b60006002600581111561063e5761063d612fbe565b5b600560149054906101000a900460ff1660058111156106605761065f612fbe565b5b146106a0576040517f08c379a0000000000000000000000000000000000000000000000000000000008152600401610697906131f7565b60405180910390fd5b6106aa83836115d6565b905092915050565b600060058111156106c6576106c5612fbe565b5b600560149054906101000a900460ff1660058111156106e8576106e7612fbe565b5b14610728576040517f08c379a000000000000000000000000000000000000000000000000000000000815260040161071f9061313c565b60405180910390fd5b600654421061076c576040517f08c379a000000000000000000000000000000000000000000000000000000000815260040161076390613263565b60405180910390fd5b6000610777336115f9565b036107b7576040517f08c379a00000000000000000000000000000000000000000000000000000000081526004016107ae906132cf565b60405180910390fd5b6107c86107c3336115f9565b611641565b565b6000600260058111156107e0576107df612fbe565b5b600560149054906101000a900460ff16600581111561080257610801612fbe565b5b036108165761080f611841565b905061081b565b600090505b90565b6000600854905090565b60006002600581111561083e5761083d612fbe565b5b600560149054906101000a900460ff1660058111156108605761085f612fbe565b5b146108a0576040517f08c379a000000000000000000000000000000000000000000000000000000000815260040161089790613361565b60405180910390fd5b6108ab84848461184b565b90509392505050565b60008060058111156108c9576108c8612fbe565b5b600560149054906101000a900460ff1660058111156108eb576108ea612fbe565b5b1461092b576040517f08c379a00000000000000000000000000000000000000000000000000000000081526004016109229061313c565b60405180910390fd5b610933611841565b905090565b60006012905090565b6000600581111561095557610954612fbe565b5b600560149054906101000a900460ff16600581111561097757610976612fbe565b5b146109b7576040517f08c379a00000000000000000000000000000000000000000000000000000000081526004016109ae9061313c565b60405180910390fd5b60065442106109fb576040517f08c379a00000000000000000000000000000000000000000000000000000000081526004016109f290613263565b60405180910390fd5b6000610a06336115f9565b03610a46576040517f08c379a0000000000000000000000000000000000000000000000000000000008152600401610a3d906132cf565b60405180910390fd5b610a4f81611641565b50565b600080610a5d61187a565b9050610a7e818585610a6f85896114fb565b610a7991906133b0565b611882565b600191505092915050565b6000806005811115610a9e57610a9d612fbe565b5b600560149054906101000a900460ff166005811115610ac057610abf612fbe565b5b14610b00576040517f08c379a0000000000000000000000000000000000000000000000000000000008152600401610af79061313c565b60405180910390fd5b610b09826115f9565b9050919050565b60026005811115610b2457610b23612fbe565b5b600560149054906101000a900460ff166005811115610b4657610b45612fbe565b5b14610b86576040517f08c379a0000000000000000000000000000000000000000000000000000000008152600401610b7d90613430565b60405180910390fd5b6008544210610bca576040517f08c379a0000000000000000000000000000000000000000000000000000000008152600401610bc19061349c565b60405180910390fd5b426008541115610c0f576040517f08c379a0000000000000000000000000000000000000000000000000000000008152600401610c069061352e565b60405180910390fd5b610c17611a4b565b6000600560149054906101000a900460ff1690506003600560146101000a81548160ff02191690836005811115610c5157610c50612fbe565b5b02179055507f3a779de46631dd65116ae538600f1bc3c338200c6aef638429b5de43301c28f781600560149054906101000a900460ff16604051610c9692919061315c565b60405180910390a150565b600060026005811115610cb757610cb6612fbe565b5b600560149054906101000a900460ff166005811115610cd957610cd8612fbe565b5b03610cee57610ce7826115f9565b9050610cf3565b600090505b919050565b60016005811115610d0c57610d0b612fbe565b5b600560149054906101000a900460ff166005811115610d2e57610d2d612fbe565b5b14610d6e576040517f08c379a0000000000000000000000000000000000000000000000000000000008152600401610d6590613430565b60405180910390fd5b610d76611a4d565b610db5576040517f08c379a0000000000000000000000000000000000000000000000000000000008152600401610dac9061359a565b60405180910390fd5b565b6000600960009054906101000a900473ffffffffffffffffffffffffffffffffffffffff16905090565b6000600654905090565b606060048054610dfa906130bf565b80601f0160208091040260200160405190810160405280929190818152602001828054610e26906130bf565b8015610e735780601f10610e4857610100808354040283529160200191610e73565b820191906000526020600020905b815481529060010190602001808311610e5657829003601f168201915b5050505050905090565b600080610e8861187a565b90506000610e9682866114fb565b905083811015610edb576040517f08c379a0000000000000000000000000000000000000000000000000000000008152600401610ed29061362c565b60405180910390fd5b610ee88286868403611882565b60019250505092915050565b60006005811115610f0857610f07612fbe565b5b600560149054906101000a900460ff166005811115610f2a57610f29612fbe565b5b14610f6a576040517f08c379a0000000000000000000000000000000000000000000000000000000008152600401610f619061313c565b60405180910390fd5b6006544210610fae576040517f08c379a0000000000000000000000000000000000000000000000000000000008152600401610fa590613263565b60405180910390fd5b60008103610ff1576040517f08c379a0000000000000000000000000000000000000000000000000000000008152600401610fe890613698565b60405180910390fd5b600560009054906101000a900473ffffffffffffffffffffffffffffffffffffffff1673ffffffffffffffffffffffffffffffffffffffff166323b872dd3330846040518463ffffffff1660e01b8152600401611050939291906136b8565b6020604051808303816000875af115801561106f573d6000803e3d6000fd5b505050506040513d601f19601f82011682018060405250810190611093919061371b565b5061109e3382611b73565b600c339080600181540180825580915050600190039060005260206000200160009091909190916101000a81548173ffffffffffffffffffffffffffffffffffffffff021916908373ffffffffffffffffffffffffffffffffffffffff16021790555050565b60006002600581111561111a57611119612fbe565b5b600560149054906101000a900460ff16600581111561113c5761113b612fbe565b5b1461117c576040517f08c379a000000000000000000000000000000000000000000000000000000000815260040161117390613361565b60405180910390fd5b6111868383611cd2565b905092915050565b6111d2600060058111156111a5576111a4612fbe565b5b600560149054906101000a900460ff1660058111156111c7576111c6612fbe565b5b144260065410611cf5565b611211576040517f08c379a0000000000000000000000000000000000000000000000000000000008152600401611208906137e0565b60405180910390fd5b6112556001600581111561122857611227612fbe565b5b600560149054906101000a900460ff16600581111561124a57611249612fbe565b5b144260075410611cf5565b611294576040517f08c379a000000000000000000000000000000000000000000000000000000000815260040161128b90613872565b60405180910390fd5b6112d5600460058111156112ab576112aa612fbe565b5b600560149054906101000a900460ff1660058111156112cd576112cc612fbe565b5b146001611cf5565b6112de57600080fd5b600260058111156112f2576112f1612fbe565b5b600560149054906101000a900460ff16600581111561131457611313612fbe565b5b03611354576040517f08c379a000000000000000000000000000000000000000000000000000000000815260040161134b90613904565b60405180910390fd5b6003600581111561136857611367612fbe565b5b600560149054906101000a900460ff16600581111561138a57611389612fbe565b5b036113ca576040517f08c379a00000000000000000000000000000000000000000000000000000000081526004016113c190613996565b60405180910390fd5b6005808111156113dd576113dc612fbe565b5b600560149054906101000a900460ff1660058111156113ff576113fe612fbe565b5b0361143f576040517f08c379a000000000000000000000000000000000000000000000000000000000815260040161143690613a02565b60405180910390fd5b6114836001600581111561145657611455612fbe565b5b600560149054906101000a900460ff16600581111561147857611477612fbe565b5b144260075410611cf5565b1561149157611490611d09565b5b600460058111156114a5576114a4612fbe565b5b600560149054906101000a900460ff1660058111156114c7576114c6612fbe565b5b036114d9576114d4611d81565b6114e2565b6114e16121a9565b5b565b6000600560149054906101000a900460ff16905090565b60006002600581111561151157611510612fbe565b5b600560149054906101000a900460ff16600581111561153357611532612fbe565b5b03611549576115428383612753565b905061154e565b600090505b92915050565b6000600754905090565b6000600581111561157257611571612fbe565b5b600560149054906101000a900460ff16600581111561159457611593612fbe565b5b146115d4576040517f08c379a00000000000000000000000000000000000000000000000000000000081526004016115cb9061313c565b60405180910390fd5b565b6000806115e161187a565b90506115ee818585611882565b600191505092915050565b60008060008373ffffffffffffffffffffffffffffffffffffffff1673ffffffffffffffffffffffffffffffffffffffff168152602001908152602001600020549050919050565b6000600581111561165557611654612fbe565b5b600560149054906101000a900460ff16600581111561167757611676612fbe565b5b146116b7576040517f08c379a00000000000000000000000000000000000000000000000000000000081526004016116ae9061313c565b60405180910390fd5b60065442106116fb576040517f08c379a00000000000000000000000000000000000000000000000000000000081526004016116f290613263565b60405180910390fd5b6000611706336115f9565b03611746576040517f08c379a000000000000000000000000000000000000000000000000000000000815260040161173d906132cf565b60405180910390fd5b61174f336115f9565b811115611791576040517f08c379a000000000000000000000000000000000000000000000000000000000815260040161178890613a6e565b60405180910390fd5b600560009054906101000a900473ffffffffffffffffffffffffffffffffffffffff1673ffffffffffffffffffffffffffffffffffffffff166323b872dd3033846040518463ffffffff1660e01b81526004016117f0939291906136b8565b6020604051808303816000875af115801561180f573d6000803e3d6000fd5b505050506040513d601f19601f82011682018060405250810190611833919061371b565b5061183e33826127da565b50565b6000600254905090565b60008061185661187a565b90506118638582856129b0565b61186e858585612a3c565b60019150509392505050565b600033905090565b600073ffffffffffffffffffffffffffffffffffffffff168373ffffffffffffffffffffffffffffffffffffffff16036118f1576040517f08c379a00000000000000000000000000000000000000000000000000000000081526004016118e890613b00565b60405180910390fd5b600073ffffffffffffffffffffffffffffffffffffffff168273ffffffffffffffffffffffffffffffffffffffff1603611960576040517f08c379a000000000000000000000000000000000000000000000000000000000815260040161195790613b92565b60405180910390fd5b80600160008573ffffffffffffffffffffffffffffffffffffffff1673ffffffffffffffffffffffffffffffffffffffff16815260200190815260200160002060008473ffffffffffffffffffffffffffffffffffffffff1673ffffffffffffffffffffffffffffffffffffffff168152602001908152602001600020819055508173ffffffffffffffffffffffffffffffffffffffff168373ffffffffffffffffffffffffffffffffffffffff167f8c5be1e5ebec7d5bd14f71427d1e84f3dd0314c0f7b2291e5b200ac8c7c3b92583604051611a3e9190612e95565b60405180910390a3505050565b565b600060016005811115611a6357611a62612fbe565b5b600560149054906101000a900460ff166005811115611a8557611a84612fbe565b5b14611ac5576040517f08c379a0000000000000000000000000000000000000000000000000000000008152600401611abc90613430565b60405180910390fd5b600015611ad55760009050611b70565b611add611841565b600a819055506000600560149054906101000a900460ff1690506002600560146101000a81548160ff02191690836005811115611b1d57611b1c612fbe565b5b02179055507f3a779de46631dd65116ae538600f1bc3c338200c6aef638429b5de43301c28f781600560149054906101000a900460ff16604051611b6292919061315c565b60405180910390a160019150505b90565b600073ffffffffffffffffffffffffffffffffffffffff168273ffffffffffffffffffffffffffffffffffffffff1603611be2576040517f08c379a0000000000000000000000000000000000000000000000000000000008152600401611bd990613bfe565b60405180910390fd5b611bee60008383612cbb565b8060026000828254611c0091906133b0565b92505081905550806000808473ffffffffffffffffffffffffffffffffffffffff1673ffffffffffffffffffffffffffffffffffffffff1681526020019081526020016000206000828254611c5591906133b0565b925050819055508173ffffffffffffffffffffffffffffffffffffffff16600073ffffffffffffffffffffffffffffffffffffffff167fddf252ad1be2c89b69c2b068fc378daa952ba7f163c4a11628f55a4df523b3ef83604051611cba9190612e95565b60405180910390a3611cce60008383612cc0565b5050565b600080611cdd61187a565b9050611cea818585612a3c565b600191505092915050565b6000821580611d015750815b905092915050565b60016005811115611d1d57611d1c612fbe565b5b600560149054906101000a900460ff166005811115611d3f57611d3e612fbe565b5b14611d7f576040517f08c379a0000000000000000000000000000000000000000000000000000000008152600401611d7690613430565b60405180910390fd5b565b60046005811115611d9557611d94612fbe565b5b600560149054906101000a900460ff166005811115611db757611db6612fbe565b5b14611df7576040517f08c379a0000000000000000000000000000000000000000000000000000000008152600401611dee90613c6a565b60405180910390fd5b6000600b541480611e0d57506000600c80549050145b6121a7576000600c600081548110611e2857611e27613c8a565b5b9060005260206000200160009054906101000a900473ffffffffffffffffffffffffffffffffffffffff169050600080600c8054905090506000611e6a611841565b90506000600b549050600560009054906101000a900473ffffffffffffffffffffffffffffffffffffffff1673ffffffffffffffffffffffffffffffffffffffff166370a08231306040518263ffffffff1660e01b8152600401611ece9190612fa3565b602060405180830381865afa158015611eeb573d6000803e3d6000fd5b505050506040513d601f19601f82011682018060405250810190611f0f9190613cce565b811115611f1b57600080fd5b60005b83811015612078576000600c8281548110611f3c57611f3b613c8a565b5b9060005260206000200160009054906101000a900473ffffffffffffffffffffffffffffffffffffffff1690506000611f74826115f9565b9050600081146120655780871015611f8d578096508197505b60008582600b54611f9e9190613cfb565b611fa89190613d6c565b9050600560009054906101000a900473ffffffffffffffffffffffffffffffffffffffff1673ffffffffffffffffffffffffffffffffffffffff1663a9059cbb84836040518363ffffffff1660e01b8152600401612007929190613d9d565b6020604051808303816000875af1158015612026573d6000803e3d6000fd5b505050506040513d601f19601f8201168201806040525081019061204a919061371b565b5080856120579190613dc6565b945061206383836127da565b505b50508061207190613dfa565b9050611f1e565b50600560009054906101000a900473ffffffffffffffffffffffffffffffffffffffff1673ffffffffffffffffffffffffffffffffffffffff1663a9059cbb86836040518363ffffffff1660e01b81526004016120d6929190613d9d565b6020604051808303816000875af11580156120f5573d6000803e3d6000fd5b505050506040513d601f19601f82011682018060405250810190612119919061371b565b506000600560149054906101000a900460ff16905060058060146101000a81548160ff0219169083600581111561215357612152612fbe565b5b02179055507f3a779de46631dd65116ae538600f1bc3c338200c6aef638429b5de43301c28f781600560149054906101000a900460ff1660405161219892919061315c565b60405180910390a15050505050505b565b6121ed600060058111156121c0576121bf612fbe565b5b600560149054906101000a900460ff1660058111156121e2576121e1612fbe565b5b144260065410611cf5565b61222c576040517f08c379a0000000000000000000000000000000000000000000000000000000008152600401612223906137e0565b60405180910390fd5b6122706001600581111561224357612242612fbe565b5b600560149054906101000a900460ff16600581111561226557612264612fbe565b5b144260075410611cf5565b6122af576040517f08c379a00000000000000000000000000000000000000000000000000000000081526004016122a690613872565b60405180910390fd5b6122f0600460058111156122c6576122c5612fbe565b5b600560149054906101000a900460ff1660058111156122e8576122e7612fbe565b5b146001611cf5565b6122f957600080fd5b6002600581111561230d5761230c612fbe565b5b600560149054906101000a900460ff16600581111561232f5761232e612fbe565b5b0361236f576040517f08c379a000000000000000000000000000000000000000000000000000000000815260040161236690613904565b60405180910390fd5b6003600581111561238357612382612fbe565b5b600560149054906101000a900460ff1660058111156123a5576123a4612fbe565b5b036123e5576040517f08c379a00000000000000000000000000000000000000000000000000000000081526004016123dc90613996565b60405180910390fd5b6005808111156123f8576123f7612fbe565b5b600560149054906101000a900460ff16600581111561241a57612419612fbe565b5b0361245a576040517f08c379a000000000000000000000000000000000000000000000000000000000815260040161245190613a02565b60405180910390fd5b6000600581111561246e5761246d612fbe565b5b600560149054906101000a900460ff1660058111156124905761248f612fbe565b5b14806124cf5750600160058111156124ab576124aa612fbe565b5b600560149054906101000a900460ff1660058111156124cd576124cc612fbe565b5b145b6124d857600080fd5b6000600b5414806124ee57506000600c80549050145b61275157600560009054906101000a900473ffffffffffffffffffffffffffffffffffffffff1673ffffffffffffffffffffffffffffffffffffffff166370a08231306040518263ffffffff1660e01b815260040161254d9190612fa3565b602060405180830381865afa15801561256a573d6000803e3d6000fd5b505050506040513d601f19601f8201168201806040525081019061258e9190613cce565b612596611841565b11156125a157600080fd5b60005b600c805490508110156126c8576000600c82815481106125c7576125c6613c8a565b5b9060005260206000200160009054906101000a900473ffffffffffffffffffffffffffffffffffffffff16905060006125ff826115f9565b9050600081146126b557600560009054906101000a900473ffffffffffffffffffffffffffffffffffffffff1673ffffffffffffffffffffffffffffffffffffffff1663a9059cbb83836040518363ffffffff1660e01b8152600401612666929190613d9d565b6020604051808303816000875af1158015612685573d6000803e3d6000fd5b505050506040513d601f19601f820116820180604052508101906126a9919061371b565b506126b482826127da565b5b5050806126c190613dfa565b90506125a4565b506000600560149054906101000a900460ff16905060058060146101000a81548160ff0219169083600581111561270257612701612fbe565b5b02179055507f3a779de46631dd65116ae538600f1bc3c338200c6aef638429b5de43301c28f781600560149054906101000a900460ff1660405161274792919061315c565b60405180910390a1505b565b6000600160008473ffffffffffffffffffffffffffffffffffffffff1673ffffffffffffffffffffffffffffffffffffffff16815260200190815260200160002060008373ffffffffffffffffffffffffffffffffffffffff1673ffffffffffffffffffffffffffffffffffffffff16815260200190815260200160002054905092915050565b600073ffffffffffffffffffffffffffffffffffffffff168273ffffffffffffffffffffffffffffffffffffffff1603612849576040517f08c379a000000000000000000000000000000000000000000000000000000000815260040161284090613eb4565b60405180910390fd5b61285582600083612cbb565b60008060008473ffffffffffffffffffffffffffffffffffffffff1673ffffffffffffffffffffffffffffffffffffffff168152602001908152602001600020549050818110156128db576040517f08c379a00000000000000000000000000000000000000000000000000000000081526004016128d290613f46565b60405180910390fd5b8181036000808573ffffffffffffffffffffffffffffffffffffffff1673ffffffffffffffffffffffffffffffffffffffff1681526020019081526020016000208190555081600260008282546129329190613dc6565b92505081905550600073ffffffffffffffffffffffffffffffffffffffff168373ffffffffffffffffffffffffffffffffffffffff167fddf252ad1be2c89b69c2b068fc378daa952ba7f163c4a11628f55a4df523b3ef846040516129979190612e95565b60405180910390a36129ab83600084612cc0565b505050565b60006129bc84846114fb565b90507fffffffffffffffffffffffffffffffffffffffffffffffffffffffffffffffff8114612a365781811015612a28576040517f08c379a0000000000000000000000000000000000000000000000000000000008152600401612a1f90613fb2565b60405180910390fd5b612a358484848403611882565b5b50505050565b600073ffffffffffffffffffffffffffffffffffffffff168373ffffffffffffffffffffffffffffffffffffffff1603612aab576040517f08c379a0000000000000000000000000000000000000000000000000000000008152600401612aa290614044565b60405180910390fd5b600073ffffffffffffffffffffffffffffffffffffffff168273ffffffffffffffffffffffffffffffffffffffff1603612b1a576040517f08c379a0000000000000000000000000000000000000000000000000000000008152600401612b11906140d6565b60405180910390fd5b612b25838383612cbb565b60008060008573ffffffffffffffffffffffffffffffffffffffff1673ffffffffffffffffffffffffffffffffffffffff16815260200190815260200160002054905081811015612bab576040517f08c379a0000000000000000000000000000000000000000000000000000000008152600401612ba290614168565b60405180910390fd5b8181036000808673ffffffffffffffffffffffffffffffffffffffff1673ffffffffffffffffffffffffffffffffffffffff16815260200190815260200160002081905550816000808573ffffffffffffffffffffffffffffffffffffffff1673ffffffffffffffffffffffffffffffffffffffff1681526020019081526020016000206000828254612c3e91906133b0565b925050819055508273ffffffffffffffffffffffffffffffffffffffff168473ffffffffffffffffffffffffffffffffffffffff167fddf252ad1be2c89b69c2b068fc378daa952ba7f163c4a11628f55a4df523b3ef84604051612ca29190612e95565b60405180910390a3612cb5848484612cc0565b50505050565b505050565b505050565b600081519050919050565b600082825260208201905092915050565b60005b83811015612cff578082015181840152602081019050612ce4565b60008484015250505050565b6000601f19601f8301169050919050565b6000612d2782612cc5565b612d318185612cd0565b9350612d41818560208601612ce1565b612d4a81612d0b565b840191505092915050565b60006020820190508181036000830152612d6f8184612d1c565b905092915050565b600080fd5b600073ffffffffffffffffffffffffffffffffffffffff82169050919050565b6000612da782612d7c565b9050919050565b612db781612d9c565b8114612dc257600080fd5b50565b600081359050612dd481612dae565b92915050565b6000819050919050565b612ded81612dda565b8114612df857600080fd5b50565b600081359050612e0a81612de4565b92915050565b60008060408385031215612e2757612e26612d77565b5b6000612e3585828601612dc5565b9250506020612e4685828601612dfb565b9150509250929050565b60008115159050919050565b612e6581612e50565b82525050565b6000602082019050612e806000830184612e5c565b92915050565b612e8f81612dda565b82525050565b6000602082019050612eaa6000830184612e86565b92915050565b600080600060608486031215612ec957612ec8612d77565b5b6000612ed786828701612dc5565b9350506020612ee886828701612dc5565b9250506040612ef986828701612dfb565b9150509250925092565b600060ff82169050919050565b612f1981612f03565b82525050565b6000602082019050612f346000830184612f10565b92915050565b600060208284031215612f5057612f4f612d77565b5b6000612f5e84828501612dfb565b91505092915050565b600060208284031215612f7d57612f7c612d77565b5b6000612f8b84828501612dc5565b91505092915050565b612f9d81612d9c565b82525050565b6000602082019050612fb86000830184612f94565b92915050565b7f4e487b7100000000000000000000000000000000000000000000000000000000600052602160045260246000fd5b60068110612ffe57612ffd612fbe565b5b50565b600081905061300f82612fed565b919050565b600061301f82613001565b9050919050565b61302f81613014565b82525050565b600060208201905061304a6000830184613026565b92915050565b6000806040838503121561306757613066612d77565b5b600061307585828601612dc5565b925050602061308685828601612dc5565b9150509250929050565b7f4e487b7100000000000000000000000000000000000000000000000000000000600052602260045260246000fd5b600060028204905060018216806130d757607f821691505b6020821081036130ea576130e9613090565b5b50919050565b7f417661696c61626c65206f6e6c79207768656e206f66666572696e6700000000600082015250565b6000613126601c83612cd0565b9150613131826130f0565b602082019050919050565b6000602082019050818103600083015261315581613119565b9050919050565b60006040820190506131716000830185613026565b61317e6020830184613026565b9392505050565b7f417070726f766520697320617661696c61626c65206f6e6c7920756e6465722060008201527f4173736574486f6c64696e672073746174650000000000000000000000000000602082015250565b60006131e1603283612cd0565b91506131ec82613185565b604082019050919050565b60006020820190508181036000830152613210816131d4565b9050919050565b7f4f6666657220706572696f6420616c726561647920656e646564000000000000600082015250565b600061324d601a83612cd0565b915061325882613217565b602082019050919050565b6000602082019050818103600083015261327c81613240565b9050919050565b7f4f6e6c79206465706f7369746f722063616e2063616c6c2e0000000000000000600082015250565b60006132b9601883612cd0565b91506132c482613283565b602082019050919050565b600060208201905081810360008301526132e8816132ac565b9050919050565b7f5472616e7366657220697320617661696c61626c65206f6e6c7920756e64657260008201527f204173736574486f6c64696e6720737461746500000000000000000000000000602082015250565b600061334b603383612cd0565b9150613356826132ef565b604082019050919050565b6000602082019050818103600083015261337a8161333e565b9050919050565b7f4e487b7100000000000000000000000000000000000000000000000000000000600052601160045260246000fd5b60006133bb82612dda565b91506133c683612dda565b92508282019050808211156133de576133dd613381565b5b92915050565b7f417661696c61626c65206f6e6c79207768656e206f72646572696e6700000000600082015250565b600061341a601c83612cd0565b9150613425826133e4565b602082019050919050565b600060208201905081810360008301526134498161340d565b9050919050565b7f5468697320736368656d652072656163686573206d617475726974792e000000600082015250565b6000613486601d83612cd0565b915061349182613450565b602082019050919050565b600060208201905081810360008301526134b581613479565b9050919050565b7f53656c6c696e6720617373657420697320617661696c61626c65206f6e6c792060008201527f6166746572206d617475726974792e0000000000000000000000000000000000602082015250565b6000613518602f83612cd0565b9150613523826134bc565b604082019050919050565b600060208201905081810360008301526135478161350b565b9050919050565b7f4f72646572206973206e6f74206d617463686564207965740000000000000000600082015250565b6000613584601883612cd0565b915061358f8261354e565b602082019050919050565b600060208201905081810360008301526135b381613577565b9050919050565b7f45524332303a2064656372656173656420616c6c6f77616e63652062656c6f7760008201527f207a65726f000000000000000000000000000000000000000000000000000000602082015250565b6000613616602583612cd0565b9150613621826135ba565b604082019050919050565b6000602082019050818103600083015261364581613609565b9050919050565b7f4465706f73697420616d6f756e74206d75737420626520706f7369746976652e600082015250565b6000613682602083612cd0565b915061368d8261364c565b602082019050919050565b600060208201905081810360008301526136b181613675565b9050919050565b60006060820190506136cd6000830186612f94565b6136da6020830185612f94565b6136e76040830184612e86565b949350505050565b6136f881612e50565b811461370357600080fd5b50565b600081519050613715816136ef565b92915050565b60006020828403121561373157613730612d77565b5b600061373f84828501613706565b91505092915050565b7f4f66666572696e6720737461746520636f6e747261637420697320726564656560008201527f6d61626c65206f6e6c79206166746572206f6666657220636c6f73696e67207460208201527f696d652e00000000000000000000000000000000000000000000000000000000604082015250565b60006137ca604483612cd0565b91506137d582613748565b606082019050919050565b600060208201905081810360008301526137f9816137bd565b9050919050565b7f4f72646572696e6720737461746520636f6e747261637420697320726564656560008201527f6d61626c65206f6e6c79206166746572206f72646572206578706972792e0000602082015250565b600061385c603e83612cd0565b915061386782613800565b604082019050919050565b6000602082019050818103600083015261388b8161384f565b9050919050565b7f43616e206e6f742072656465656d206265666f72652073656c6c696e6720617360008201527f7365742e00000000000000000000000000000000000000000000000000000000602082015250565b60006138ee602483612cd0565b91506138f982613892565b604082019050919050565b6000602082019050818103600083015261391d816138e1565b9050919050565b7f43616e206e6f742072656465656d206265666f726520636f6d706c6574696e6760008201527f2073656c6c696e672061737365742e0000000000000000000000000000000000602082015250565b6000613980602f83612cd0565b915061398b82613924565b604082019050919050565b600060208201905081810360008301526139af81613973565b9050919050565b7f416c72656164792072656465656d65642e000000000000000000000000000000600082015250565b60006139ec601183612cd0565b91506139f7826139b6565b602082019050919050565b60006020820190508181036000830152613a1b816139df565b9050919050565b7f4c61636b206f66206465706f73697420616d6f756e742e000000000000000000600082015250565b6000613a58601783612cd0565b9150613a6382613a22565b602082019050919050565b60006020820190508181036000830152613a8781613a4b565b9050919050565b7f45524332303a20617070726f76652066726f6d20746865207a65726f2061646460008201527f7265737300000000000000000000000000000000000000000000000000000000602082015250565b6000613aea602483612cd0565b9150613af582613a8e565b604082019050919050565b60006020820190508181036000830152613b1981613add565b9050919050565b7f45524332303a20617070726f766520746f20746865207a65726f20616464726560008201527f7373000000000000000000000000000000000000000000000000000000000000602082015250565b6000613b7c602283612cd0565b9150613b8782613b20565b604082019050919050565b60006020820190508181036000830152613bab81613b6f565b9050919050565b7f45524332303a206d696e7420746f20746865207a65726f206164647265737300600082015250565b6000613be8601f83612cd0565b9150613bf382613bb2565b602082019050919050565b60006020820190508181036000830152613c1781613bdb565b9050919050565b7f417661696c61626c65206f6e6c79207768656e20617373657420736f6c642e00600082015250565b6000613c54601f83612cd0565b9150613c5f82613c1e565b602082019050919050565b60006020820190508181036000830152613c8381613c47565b9050919050565b7f4e487b7100000000000000000000000000000000000000000000000000000000600052603260045260246000fd5b600081519050613cc881612de4565b92915050565b600060208284031215613ce457613ce3612d77565b5b6000613cf284828501613cb9565b91505092915050565b6000613d0682612dda565b9150613d1183612dda565b9250828202613d1f81612dda565b91508282048414831517613d3657613d35613381565b5b5092915050565b7f4e487b7100000000000000000000000000000000000000000000000000000000600052601260045260246000fd5b6000613d7782612dda565b9150613d8283612dda565b925082613d9257613d91613d3d565b5b828204905092915050565b6000604082019050613db26000830185612f94565b613dbf6020830184612e86565b9392505050565b6000613dd182612dda565b9150613ddc83612dda565b9250828203905081811115613df457613df3613381565b5b92915050565b6000613e0582612dda565b91507fffffffffffffffffffffffffffffffffffffffffffffffffffffffffffffffff8203613e3757613e36613381565b5b600182019050919050565b7f45524332303a206275726e2066726f6d20746865207a65726f2061646472657360008201527f7300000000000000000000000000000000000000000000000000000000000000602082015250565b6000613e9e602183612cd0565b9150613ea982613e42565b604082019050919050565b60006020820190508181036000830152613ecd81613e91565b9050919050565b7f45524332303a206275726e20616d6f756e7420657863656564732062616c616e60008201527f6365000000000000000000000000000000000000000000000000000000000000602082015250565b6000613f30602283612cd0565b9150613f3b82613ed4565b604082019050919050565b60006020820190508181036000830152613f5f81613f23565b9050919050565b7f45524332303a20696e73756666696369656e7420616c6c6f77616e6365000000600082015250565b6000613f9c601d83612cd0565b9150613fa782613f66565b602082019050919050565b60006020820190508181036000830152613fcb81613f8f565b9050919050565b7f45524332303a207472616e736665722066726f6d20746865207a65726f20616460008201527f6472657373000000000000000000000000000000000000000000000000000000602082015250565b600061402e602583612cd0565b915061403982613fd2565b604082019050919050565b6000602082019050818103600083015261405d81614021565b9050919050565b7f45524332303a207472616e7366657220746f20746865207a65726f206164647260008201527f6573730000000000000000000000000000000000000000000000000000000000602082015250565b60006140c0602383612cd0565b91506140cb82614064565b604082019050919050565b600060208201905081810360008301526140ef816140b3565b9050919050565b7f45524332303a207472616e7366657220616d6f756e742065786365656473206260008201527f616c616e63650000000000000000000000000000000000000000000000000000602082015250565b6000614152602683612cd0565b915061415d826140f6565b604082019050919050565b6000602082019050818103600083015261418181614145565b905091905056fea26469706673582212205e49d9ebbc7e39cd90a187d2b9ad2515cd9df11af8745d8c5854faa362619a4864736f6c63430008110033",
  "immutableReferences": {},
  "source": "// SPDX-License-Identifier: MIT\npragma solidity ^0.8.17;\n\nimport \"@openzeppelin/contracts/utils/math/SafeMath.sol\";\nimport \"@openzeppelin/contracts/token/ERC20/ERC20.sol\";\n\ncontract CollectiveInvestmentSchemeV2 is ERC20 {\n    // using \n    using SafeMath for uint;\n\n    // enums\n    enum State { Offering, Ordering, AssetHolding, AssetSelling, AssetSold, Closed }\n\n    // events\n    event StateTransition(State from, State to);\n\n    // external contracts\n    ERC20 private _WETHcontract;    // how to control this safely...?\n\n    // --- vvv fields vvv ---\n    // scheme info\n    State private _state;\n    uint private _offerClosingTime;\n    uint private _orderExpiration;\n    uint private _maturity;\n    address private _underlyingAsset; // this must be hidden in some manner...\n\n    // execution result\n    uint private _purchasePrice;\n    uint private _soldPrice;\n\n    // deposit info\n    address[] private _depositors;\n\n    // --- ^^^ fields ^^^ --- \n\n    // modifiers\n    modifier onlyOffering() {\n        require(_state == State.Offering, \"Available only when offering\");\n        _;\n    }\n    modifier beforeOfferClose() {\n        require(block.timestamp < _offerClosingTime, \"Offer period already ended\");\n        _;\n    }\n    modifier onlyOrdering() {\n        require(_state == State.Ordering, \"Available only when ordering\");\n        _;\n    }\n    modifier onlyAssetHolding() {\n        require(_state == State.AssetHolding, \"Available only when ordering\");\n        require(block.timestamp < _maturity, \"This scheme reaches maturity.\");\n        _;\n    }\n    modifier onlyAssetSelling() {\n        require(_state == State.AssetSelling, \"Available only when asset selling.\");\n        _;\n    }\n    modifier onlyAssetSold() {\n        require(_state == State.AssetSold, \"Available only when asset sold.\");\n        _;\n    }\n    modifier onlyDepositor() {\n        require(super.balanceOf(msg.sender) != 0, \"Only depositor can call.\");\n        _;\n    }\n\n    constructor(\n        address WETHcontractAddress_,\n        address underlyingAsset_,\n        uint offerClosingTime_,\n        uint orderExpiration_,\n        uint maturity_,\n        string memory tokanName_,\n        string memory tokenSymbol_\n    )\n        ERC20(tokanName_, tokenSymbol_)\n    {\n        require(WETHcontractAddress_ != address(0));\n        require(underlyingAsset_ != address(0));\n        require(block.timestamp <= offerClosingTime_, \"Offer closing time must be in future.\");\n        require(offerClosingTime_ <= block.timestamp + 90 days , \"Offer closing time is too future.\");\n        require(offerClosingTime_ <= orderExpiration_, \"Order expiration must be after offer closing time.\");\n        require(orderExpiration_ <= offerClosingTime_ + 90 days, \"Order expiration is too future of offer closing time.\");\n        require(offerClosingTime_ <= maturity_, \"Maturity must be after offer closing time.\");\n        require(maturity_ <= offerClosingTime_ + 180 days, \"Maturity is too future of offer closing time.\");\n        _WETHcontract = ERC20(WETHcontractAddress_);\n        _underlyingAsset = underlyingAsset_;\n        _offerClosingTime = offerClosingTime_;\n        _orderExpiration = orderExpiration_;\n        _maturity = maturity_;\n    }\n\n    // [getters] ---------------------------------------------------------------\n    \n    /**\n     * @dev State of this contract, which is either of\n     * { Offering, Ordering, AssetHolding, AssetSelling, AssetSold, Closed }\n     *\n     *  - Offering: Investor can deposit tokens into this contract\n     *  - Ordering: Trying to buy an asset\n     *  - AssetHolding: Order is success and token of this contract is published.\n     *  - AssetSelling: Token transfer is stopped. Trying to sell the asset\n     *  - AssetSold: Asset is sold. It is prepared to refund.\n     *  - Closed: This contract(fund) is closed.\n     *\n     * State transitions:\n     *  Offering --> Ordering --> AssetHolding --> AssetSelling --> AssetSold --> Closed\n     *      |            |                                                           A\n     *      v            v                                                           |\n     *      --------------------------------------------------------------------------\n     *    \n     */\n    function state() external view returns(State) {\n        return _state;\n    }\n    /**\n     * @dev A limit time when investors deposit their WETH tokens\n     */\n    function offerClosingTime() external view returns(uint) {\n        return _offerClosingTime;\n    }\n    /**\n     * @dev An expiration time of an order on the market \n     */\n    function orderExpiration() external view returns(uint) {\n        return _orderExpiration;\n    }\n    /**\n     * @dev Maturity of this contract. After this, an asset is tried to sell.\n     * (In this sence, 'maturity' may not be suitable.)\n     */\n    function maturity() external view returns(uint) {\n        return _maturity;\n    }\n    /**\n     * @dev An address of underlying asset to be invested.\n     */\n    function underlyingAsset() external view returns(address) {\n        return _underlyingAsset;\n    }\n\n    /**\n     * @dev ERC20.totalSupply() is used as accumulated deposit under Offering state.\n     */\n    function totalDepositWETH() external view onlyOffering returns(uint) {\n        return super.totalSupply();\n    }\n    /**\n     * @dev ERC20.balanceOf(_depositor) is used as deposit of _depositor under Offering state.\n     */\n    function depositWETH(address _depositor) external view onlyOffering returns(uint) {\n        return super.balanceOf(_depositor);\n    }\n    \n    // [setters] ---------------------------------------------------------------\n\n    /**\n     * @dev Deposit WETH into this contract with this method.\n     * posted amount is stored as token amount of ERC20.\n     */\n    function addDeposit(uint amount_) external onlyOffering beforeOfferClose {\n        require(amount_ != 0, \"Deposit amount must be positive.\");\n        _WETHcontract.transferFrom(msg.sender, address(this), amount_);\n        super._mint(msg.sender, amount_);\n        _depositors.push(msg.sender);\n    }\n    /**\n     * @dev Implementation of withdraw methods.\n     * withdrawn amount burns tokens of ERC20.\n     */\n    function _withdraw(uint amount_) private onlyOffering beforeOfferClose onlyDepositor {\n        // transfer weth from this contract to msg.sender\n        require(amount_ <= super.balanceOf(msg.sender), \"Lack of deposit amount.\");\n        _WETHcontract.transferFrom(address(this), msg.sender, amount_);\n        super._burn(msg.sender, amount_);\n    }\n    /**\n     * @dev Withdraw WETH from this contract with this method.\n     */\n    function withdrawDeposit(uint amount_) external onlyOffering beforeOfferClose onlyDepositor {\n        _withdraw(amount_);\n    }\n    /**\n     * @dev Withdraw all WETH from this contract.\n     */\n    function withdrawDeposit() external onlyOffering beforeOfferClose onlyDepositor {\n        _withdraw(super.balanceOf(msg.sender));\n    }\n\n    // [state transition] ordering ---------------------------------------------\n\n    /**\n     * @dev Implementation of making buy order.\n     * TODO: Implement this. (or consider more sophisticated stragegy...)\n     */\n    function _makeBuyOrder() private onlyOffering {\n        // future work\n    }\n    /**\n     * @dev Cancel buy order\n     * TODO: Implement this. (or consider more sophisticated stragegy...)\n     */\n    function _cancelBuyOrder() private onlyOrdering {\n        // future work\n    }\n    /**\n     * @dev Make a buy order of an asset.\n     * after making an order, state of this contract becomes Ordering.\n     */\n    function makeBuyOrder() external onlyOffering {\n        // commented out for develop purpose\n        // require(_offerClosingTime <= block.timestamp, \"Can not make buy offer before offer-closing-time\");\n        // require(block.timestamp < _orderExpiration, \"Order expiration is already passed.\");\n        // require(block.timestamp < _maturity, \"Maturity is already passed.\");\n        _makeBuyOrder();\n        State originalState = _state;\n        _state = State.Ordering;\n        emit StateTransition(originalState, _state);\n    }\n\n    // [state transition] publish token ----------------------------------------\n\n    /**\n     * @dev Check if the buy order matches or not.\n     * if order matched, change state into AssetHolding\n     */\n    function _checkPurchased() private onlyOrdering returns(bool) {\n        if (false) {\n            // when order is not matched.\n            return false;\n        }\n        _purchasePrice = super.totalSupply();\n        State originalState = _state;\n        _state = State.AssetHolding;\n        emit StateTransition(originalState, _state);\n        return true;\n    }\n    /**\n     * @dev Publish token.\n     * in this contract, 'publish token' is implement just an state transition.\n     * (_checkPurchased method may update state)\n     * see IERC20 behavior of this contract.\n     */\n    function publishToken() external onlyOrdering {\n        // commented out for develop purpose\n        // require(block.timestamp < _orderExpiration, \"Order expiration is already passed.\");\n        // require(block.timestamp < _maturity, \"Maturity is already passed.\");\n        require(_checkPurchased(), \"Order is not matched yet\");\n    }\n\n    // sell asset [state transition] -------------------------------------------\n\n    /**\n     * @dev Implementation of making sell order.\n     * TODO: Implement this. but to do so, we need to consider how to control sell price.\n     */\n    function _makeSellOrder() private {\n        // future work\n    }\n    /**\n     * @dev Cancel sell order\n     * TODO: Implement this. (or consider more sophisticated stragegy...)\n     */\n    function _cancellSellOrder() private {\n        // future work\n    }\n    /**\n     * @dev Make an sell order of underlying asset. this method is available only after 'maturity'.\n     * after this method, state of this contract becomes AssetSelling. \n     */\n    function sellAsset() external onlyAssetHolding {\n        require(_maturity <= block.timestamp, \"Selling asset is available only after maturity.\");\n        _makeSellOrder();\n        State originalState = _state;\n        _state = State.AssetSelling;\n        emit StateTransition(originalState, _state);\n    }\n\n    // [state transition] redeem -----------------------------------------------\n\n    /**\n     * @dev Check if the sell order matches or not.\n     * if order matched, change state into AssetSold\n     */    \n    function _checkSold() internal onlyAssetSelling returns(bool) {\n        if (false) {\n            // when order is not matched.\n            return false;\n        }\n        _soldPrice = super.totalSupply();\n        State originalState = _state;\n        _state = State.AssetSold;\n        emit StateTransition(originalState, _state);\n        return true;\n    }\n    /**\n     * @dev proposition X => Y (if X then Y)\n     */\n    function _ifThen(bool x, bool y) private pure returns(bool) {\n        return !x || y;\n    }\n    modifier onlyRedeemable() {\n        require(_ifThen(_state == State.Offering, _offerClosingTime < block.timestamp), \"Offering state contract is redeemable only after offer closing time.\");\n        require(_ifThen(_state == State.Ordering, _orderExpiration < block.timestamp), \"Ordering state contract is redeemable only after order expiry.\");\n        require(_ifThen(_state == State.AssetSold, true));  // always true. exposition only\n        require(_state != State.AssetHolding, \"Can not redeem before selling asset.\");\n        require(_state != State.AssetSelling, \"Can not redeem before completing selling asset.\");\n        require(_state != State.Closed, \"Already redeemed.\");\n        _;\n    }\n    /**\n     * @dev Implementation of refund.\n     * sold price is distributed for investors.\n     * when some WETH is remained, it will be returned to max-token-holder.\n     * after redeemed, state becomes Closed.\n     */\n    function _refundAfterAssetSold() private onlyAssetSold {\n        if (_soldPrice == 0 || _depositors.length == 0) {\n            // unfortunately, underlying-asset is sold by 0 weth...\n            // hence, refunding is not occured...\n            return;\n        }\n        address maxTokenHolder = _depositors[0];\n        uint maxToken = 0;\n        uint nDepositors = _depositors.length;\n\n        // copy totalSupply of token because tokens will be burned and totalSupply will also change. \n        uint totalWETH = super.totalSupply();\n        uint heldWETH = _soldPrice;\n        require(heldWETH <= _WETHcontract.balanceOf(address(this)));\n        for (uint i=0; i<nDepositors; ++i) {\n            address depositor = _depositors[i];\n            uint balance = super.balanceOf(depositor);\n            if (balance != 0) {\n                if (maxToken < balance) {\n                    maxToken = balance;\n                    maxTokenHolder = depositor;\n                }\n                uint refundAmount = (_soldPrice * balance) / totalWETH;\n                _WETHcontract.transfer(depositor, refundAmount);\n                heldWETH -= refundAmount;\n                super._burn(depositor, balance);\n            }\n        }\n        // max token holder gets remained WETH\n        _WETHcontract.transfer(maxTokenHolder, heldWETH);\n\n        State originalState = _state;\n        _state = State.Closed;\n        emit StateTransition(originalState, _state);\n    }\n    /**\n     * @dev Implementation of refund.\n     * this method is expected to be called before asset buying.\n     * in this case, ERC20.totalSupply() is equivalent to sum of deposit of investors.\n     * after redeemed, state becomes Closed.\n     */\n    function _refundAfterBeforeAssetHolding() private onlyRedeemable {\n        require(_state == State.Offering || _state == State.Ordering);\n\n        if (_soldPrice == 0 || _depositors.length == 0) {\n            // unfortunately, underlying-asset is sold by 0 weth...\n            // hence, refunding is not occured...\n            return;\n        }\n        require(super.totalSupply() <= _WETHcontract.balanceOf(address(this)));\n        for (uint i=0; i<_depositors.length; ++i) {\n            address depositor = _depositors[i];\n            uint balance = super.balanceOf(depositor);\n            if (balance != 0) {\n                _WETHcontract.transfer(depositor, balance);\n                super._burn(depositor, balance);\n            }\n        }\n        State originalState = _state;\n        _state = State.Closed;\n        emit StateTransition(originalState, _state);\n    }\n    /**\n     * @dev Redeem.\n     * When asset is bought and sold, sold price is shared by investors.\n     * When asset is not bought, deposits are returned.\n     */\n    function redeem() external onlyRedeemable {\n        if (_ifThen(_state == State.Ordering, _orderExpiration < block.timestamp)) {\n            _cancelBuyOrder();\n        }\n        if (_state == State.AssetSold) {\n            _refundAfterAssetSold();\n        }\n        else {\n            _refundAfterBeforeAssetHolding();\n        }\n    }\n\n\n    // [IERC20] The followings make sence only when AssetHolding state ---------\n    function totalSupply() public view override returns (uint256) {\n        if (_state == State.AssetHolding) {\n            return super.totalSupply();\n        }\n        else {\n            return 0;\n        }\n    }\n    function balanceOf(address account_) public view override returns (uint256) {\n        if (_state == State.AssetHolding) {\n            return super.balanceOf(account_);\n        }\n        else {\n            return 0;\n        }\n    }\n    function allowance(address owner_, address spender_) public view override returns (uint256) {\n        if (_state == State.AssetHolding) {\n            return super.allowance(owner_, spender_);\n        }\n        else {\n            return 0;\n        }\n    }\n    function approve(address spender_, uint256 amount_) public override returns (bool) {\n        require(_state == State.AssetHolding, \"Approve is available only under AssetHolding state\");\n        return super.approve(spender_, amount_);\n    }\n    function transfer(address to_, uint256 amount_) public override returns (bool) {\n        require(_state == State.AssetHolding, \"Transfer is available only under AssetHolding state\");\n        return super.transfer(to_, amount_);\n    }\n    function transferFrom(address from_, address to_, uint amount_) public override returns (bool) {\n        require(_state == State.AssetHolding, \"Transfer is available only under AssetHolding state\");\n        return super.transferFrom(from_, to_, amount_);\n    }    \n}\n",
  "sourcePath": "C:\\ws\\dfund\\contracts\\contracts\\CollectiveInvestmentScheme.v2.sol",
  "compiler": {
    "name": "solc",
    "version": "0.8.17+commit.8df45f5f.Emscripten.clang"
  },
  "schemaVersion": "3.4.10",
  "updatedAt": "2022-11-10T20:51:44.227Z",
  "devdoc": {
    "kind": "dev",
    "methods": {
      "addDeposit(uint256)": {
        "details": "Deposit WETH into this contract with this method. posted amount is stored as token amount of ERC20."
      },
      "decimals()": {
        "details": "Returns the number of decimals used to get its user representation. For example, if `decimals` equals `2`, a balance of `505` tokens should be displayed to a user as `5.05` (`505 / 10 ** 2`). Tokens usually opt for a value of 18, imitating the relationship between Ether and Wei. This is the value {ERC20} uses, unless this function is overridden; NOTE: This information is only used for _display_ purposes: it in no way affects any of the arithmetic of the contract, including {IERC20-balanceOf} and {IERC20-transfer}."
      },
      "decreaseAllowance(address,uint256)": {
        "details": "Atomically decreases the allowance granted to `spender` by the caller. This is an alternative to {approve} that can be used as a mitigation for problems described in {IERC20-approve}. Emits an {Approval} event indicating the updated allowance. Requirements: - `spender` cannot be the zero address. - `spender` must have allowance for the caller of at least `subtractedValue`."
      },
      "depositWETH(address)": {
        "details": "ERC20.balanceOf(_depositor) is used as deposit of _depositor under Offering state."
      },
      "increaseAllowance(address,uint256)": {
        "details": "Atomically increases the allowance granted to `spender` by the caller. This is an alternative to {approve} that can be used as a mitigation for problems described in {IERC20-approve}. Emits an {Approval} event indicating the updated allowance. Requirements: - `spender` cannot be the zero address."
      },
      "makeBuyOrder()": {
        "details": "Make a buy order of an asset. after making an order, state of this contract becomes Ordering."
      },
      "maturity()": {
        "details": "Maturity of this contract. After this, an asset is tried to sell. (In this sence, 'maturity' may not be suitable.)"
      },
      "name()": {
        "details": "Returns the name of the token."
      },
      "offerClosingTime()": {
        "details": "A limit time when investors deposit their WETH tokens"
      },
      "orderExpiration()": {
        "details": "An expiration time of an order on the market "
      },
      "publishToken()": {
        "details": "Publish token. in this contract, 'publish token' is implement just an state transition. (_checkPurchased method may update state) see IERC20 behavior of this contract."
      },
      "redeem()": {
        "details": "Redeem. When asset is bought and sold, sold price is shared by investors. When asset is not bought, deposits are returned."
      },
      "sellAsset()": {
        "details": "Make an sell order of underlying asset. this method is available only after 'maturity'. after this method, state of this contract becomes AssetSelling. "
      },
      "state()": {
        "details": "State of this contract, which is either of { Offering, Ordering, AssetHolding, AssetSelling, AssetSold, Closed }  - Offering: Investor can deposit tokens into this contract  - Ordering: Trying to buy an asset  - AssetHolding: Order is success and token of this contract is published.  - AssetSelling: Token transfer is stopped. Trying to sell the asset  - AssetSold: Asset is sold. It is prepared to refund.  - Closed: This contract(fund) is closed. State transitions:  Offering --> Ordering --> AssetHolding --> AssetSelling --> AssetSold --> Closed      |            |                                                           A      v            v                                                           |      --------------------------------------------------------------------------    "
      },
      "symbol()": {
        "details": "Returns the symbol of the token, usually a shorter version of the name."
      },
      "totalDepositWETH()": {
        "details": "ERC20.totalSupply() is used as accumulated deposit under Offering state."
      },
      "totalSupply()": {
        "details": "See {IERC20-totalSupply}."
      },
      "underlyingAsset()": {
        "details": "An address of underlying asset to be invested."
      },
      "withdrawDeposit()": {
        "details": "Withdraw all WETH from this contract."
      },
      "withdrawDeposit(uint256)": {
        "details": "Withdraw WETH from this contract with this method."
      }
    },
    "version": 1
  },
  "userdoc": {
    "kind": "user",
    "methods": {},
    "version": 1
  }
}