{
  "contractName": "CollectiveInvestmentScheme",
  "abi": [
    {
      "inputs": [
        {
          "internalType": "address",
          "name": "WETHcontract_",
          "type": "address"
        },
        {
          "internalType": "address",
          "name": "underlyingAsset_",
          "type": "address"
        },
        {
          "internalType": "uint256",
          "name": "offerClosingTime_",
          "type": "uint256"
        },
        {
          "internalType": "uint256",
          "name": "orderExpiration_",
          "type": "uint256"
        },
        {
          "internalType": "uint256",
          "name": "maturity_",
          "type": "uint256"
        }
      ],
      "stateMutability": "nonpayable",
      "type": "constructor"
    },
    {
      "anonymous": false,
      "inputs": [
        {
          "indexed": true,
          "internalType": "address",
          "name": "owner",
          "type": "address"
        },
        {
          "indexed": true,
          "internalType": "address",
          "name": "spender",
          "type": "address"
        },
        {
          "indexed": false,
          "internalType": "uint256",
          "name": "value",
          "type": "uint256"
        }
      ],
      "name": "Approval",
      "type": "event"
    },
    {
      "anonymous": false,
      "inputs": [
        {
          "indexed": true,
          "internalType": "address",
          "name": "previousOwner",
          "type": "address"
        },
        {
          "indexed": true,
          "internalType": "address",
          "name": "newOwner",
          "type": "address"
        }
      ],
      "name": "OwnershipTransferred",
      "type": "event"
    },
    {
      "anonymous": false,
      "inputs": [
        {
          "indexed": true,
          "internalType": "address",
          "name": "from",
          "type": "address"
        },
        {
          "indexed": true,
          "internalType": "address",
          "name": "to",
          "type": "address"
        },
        {
          "indexed": false,
          "internalType": "uint256",
          "name": "value",
          "type": "uint256"
        }
      ],
      "name": "Transfer",
      "type": "event"
    },
    {
      "inputs": [],
      "name": "owner",
      "outputs": [
        {
          "internalType": "address",
          "name": "",
          "type": "address"
        }
      ],
      "stateMutability": "view",
      "type": "function"
    },
    {
      "inputs": [
        {
          "internalType": "address",
          "name": "newOwner",
          "type": "address"
        }
      ],
      "name": "transferOwnership",
      "outputs": [],
      "stateMutability": "nonpayable",
      "type": "function"
    },
    {
      "inputs": [
        {
          "internalType": "address",
          "name": "_newAddress",
          "type": "address"
        }
      ],
      "name": "setWETHcontract",
      "outputs": [],
      "stateMutability": "nonpayable",
      "type": "function"
    },
    {
      "inputs": [],
      "name": "renounceOwnership",
      "outputs": [],
      "stateMutability": "nonpayable",
      "type": "function"
    },
    {
      "inputs": [],
      "name": "getTotalWETH",
      "outputs": [
        {
          "internalType": "uint256",
          "name": "",
          "type": "uint256"
        }
      ],
      "stateMutability": "view",
      "type": "function"
    },
    {
      "inputs": [
        {
          "internalType": "address",
          "name": "_depositor",
          "type": "address"
        }
      ],
      "name": "getDepositWETH",
      "outputs": [
        {
          "internalType": "uint256",
          "name": "",
          "type": "uint256"
        }
      ],
      "stateMutability": "view",
      "type": "function"
    },
    {
      "inputs": [
        {
          "internalType": "uint256",
          "name": "amount_",
          "type": "uint256"
        }
      ],
      "name": "addDeposit",
      "outputs": [],
      "stateMutability": "nonpayable",
      "type": "function"
    },
    {
      "inputs": [],
      "name": "withdrawWETH",
      "outputs": [],
      "stateMutability": "nonpayable",
      "type": "function"
    },
    {
      "inputs": [
        {
          "internalType": "uint256",
          "name": "amount_",
          "type": "uint256"
        }
      ],
      "name": "withdrawWETH",
      "outputs": [],
      "stateMutability": "nonpayable",
      "type": "function"
    },
    {
      "inputs": [],
      "name": "order",
      "outputs": [],
      "stateMutability": "nonpayable",
      "type": "function"
    },
    {
      "inputs": [],
      "name": "_checkPurchased",
      "outputs": [
        {
          "internalType": "bool",
          "name": "",
          "type": "bool"
        }
      ],
      "stateMutability": "nonpayable",
      "type": "function"
    },
    {
      "inputs": [],
      "name": "publishToken",
      "outputs": [],
      "stateMutability": "nonpayable",
      "type": "function"
    },
    {
      "inputs": [],
      "name": "sellAsset",
      "outputs": [],
      "stateMutability": "nonpayable",
      "type": "function"
    },
    {
      "inputs": [],
      "name": "updateSellOrder",
      "outputs": [],
      "stateMutability": "nonpayable",
      "type": "function"
    },
    {
      "inputs": [],
      "name": "redeem",
      "outputs": [],
      "stateMutability": "nonpayable",
      "type": "function"
    },
    {
      "inputs": [],
      "name": "totalSupply",
      "outputs": [
        {
          "internalType": "uint256",
          "name": "",
          "type": "uint256"
        }
      ],
      "stateMutability": "view",
      "type": "function"
    },
    {
      "inputs": [
        {
          "internalType": "address",
          "name": "account_",
          "type": "address"
        }
      ],
      "name": "balanceOf",
      "outputs": [
        {
          "internalType": "uint256",
          "name": "",
          "type": "uint256"
        }
      ],
      "stateMutability": "view",
      "type": "function"
    },
    {
      "inputs": [
        {
          "internalType": "address",
          "name": "owner_",
          "type": "address"
        },
        {
          "internalType": "address",
          "name": "spender_",
          "type": "address"
        }
      ],
      "name": "allowance",
      "outputs": [
        {
          "internalType": "uint256",
          "name": "",
          "type": "uint256"
        }
      ],
      "stateMutability": "view",
      "type": "function"
    },
    {
      "inputs": [
        {
          "internalType": "address",
          "name": "spender_",
          "type": "address"
        },
        {
          "internalType": "uint256",
          "name": "amount_",
          "type": "uint256"
        }
      ],
      "name": "approve",
      "outputs": [
        {
          "internalType": "bool",
          "name": "",
          "type": "bool"
        }
      ],
      "stateMutability": "nonpayable",
      "type": "function"
    },
    {
      "inputs": [
        {
          "internalType": "address",
          "name": "to_",
          "type": "address"
        },
        {
          "internalType": "uint256",
          "name": "amount_",
          "type": "uint256"
        }
      ],
      "name": "transfer",
      "outputs": [
        {
          "internalType": "bool",
          "name": "",
          "type": "bool"
        }
      ],
      "stateMutability": "nonpayable",
      "type": "function"
    },
    {
      "inputs": [
        {
          "internalType": "address",
          "name": "from_",
          "type": "address"
        },
        {
          "internalType": "address",
          "name": "to_",
          "type": "address"
        },
        {
          "internalType": "uint256",
          "name": "amount_",
          "type": "uint256"
        }
      ],
      "name": "transferFrom",
      "outputs": [
        {
          "internalType": "bool",
          "name": "",
          "type": "bool"
        }
      ],
      "stateMutability": "nonpayable",
      "type": "function"
    }
  ],
  "bytecode": "0x60806040523480156200001157600080fd5b506040516200521938038062005219833981810160405281019062000037919062000778565b620000576200004b6200033e60201b60201c565b6200034660201b60201c565b600073ffffffffffffffffffffffffffffffffffffffff168573ffffffffffffffffffffffffffffffffffffffff16036200009157600080fd5b600073ffffffffffffffffffffffffffffffffffffffff168473ffffffffffffffffffffffffffffffffffffffff1603620000cb57600080fd5b82421062000110576040517f08c379a0000000000000000000000000000000000000000000000000000000008152600401620001079062000887565b60405180910390fd5b6276a70042620001219190620008d8565b83111562000166576040517f08c379a00000000000000000000000000000000000000000000000000000000081526004016200015d9062000989565b60405180910390fd5b818310620001ab576040517f08c379a0000000000000000000000000000000000000000000000000000000008152600401620001a29062000a21565b60405180910390fd5b6276a70083620001bc9190620008d8565b82111562000201576040517f08c379a0000000000000000000000000000000000000000000000000000000008152600401620001f89062000ab9565b60405180910390fd5b80831062000246576040517f08c379a00000000000000000000000000000000000000000000000000000000081526004016200023d9062000b51565b60405180910390fd5b62ed4e0083620002579190620008d8565b8111156200029c576040517f08c379a0000000000000000000000000000000000000000000000000000000008152600401620002939062000be9565b60405180910390fd5b84600160006101000a81548173ffffffffffffffffffffffffffffffffffffffff021916908373ffffffffffffffffffffffffffffffffffffffff16021790555083600560006101000a81548173ffffffffffffffffffffffffffffffffffffffff021916908373ffffffffffffffffffffffffffffffffffffffff160217905550826002819055508160038190555080600481905550505050505062000f4c565b600033905090565b620003566200058360201b60201c565b620003666200061460201b60201c565b73ffffffffffffffffffffffffffffffffffffffff168173ffffffffffffffffffffffffffffffffffffffff1603620003d6576040517f08c379a0000000000000000000000000000000000000000000000000000000008152600401620003cd9062000c5b565b60405180910390fd5b600160009054906101000a900473ffffffffffffffffffffffffffffffffffffffff1673ffffffffffffffffffffffffffffffffffffffff1663dd62ed3e30836040518363ffffffff1660e01b81526004016200043592919062000c8e565b602060405180830381865afa15801562000453573d6000803e3d6000fd5b505050506040513d601f19601f8201168201806040525081019062000479919062000cbb565b6006541115620004c0576040517f08c379a0000000000000000000000000000000000000000000000000000000008152600401620004b79062000d63565b60405180910390fd5b600160009054906101000a900473ffffffffffffffffffffffffffffffffffffffff1673ffffffffffffffffffffffffffffffffffffffff166323b872dd30836006546040518463ffffffff1660e01b8152600401620005239392919062000d96565b6020604051808303816000875af115801562000543573d6000803e3d6000fd5b505050506040513d601f19601f8201168201806040525081019062000569919062000e10565b5062000580816200063d60201b620017371760201c565b50565b620005936200033e60201b60201c565b73ffffffffffffffffffffffffffffffffffffffff16620005b96200061460201b60201c565b73ffffffffffffffffffffffffffffffffffffffff161462000612576040517f08c379a0000000000000000000000000000000000000000000000000000000008152600401620006099062000e92565b60405180910390fd5b565b60008060009054906101000a900473ffffffffffffffffffffffffffffffffffffffff16905090565b6200064d6200058360201b60201c565b600073ffffffffffffffffffffffffffffffffffffffff168173ffffffffffffffffffffffffffffffffffffffff1603620006bf576040517f08c379a0000000000000000000000000000000000000000000000000000000008152600401620006b69062000f2a565b60405180910390fd5b620006d0816200034660201b60201c565b50565b600080fd5b600073ffffffffffffffffffffffffffffffffffffffff82169050919050565b60006200070582620006d8565b9050919050565b6200071781620006f8565b81146200072357600080fd5b50565b60008151905062000737816200070c565b92915050565b6000819050919050565b62000752816200073d565b81146200075e57600080fd5b50565b600081519050620007728162000747565b92915050565b600080600080600060a08688031215620007975762000796620006d3565b5b6000620007a78882890162000726565b9550506020620007ba8882890162000726565b9450506040620007cd8882890162000761565b9350506060620007e08882890162000761565b9250506080620007f38882890162000761565b9150509295509295909350565b600082825260208201905092915050565b7f4f6666657220636c6f73696e672074696d65206d75737420626520696e20667560008201527f747572652e000000000000000000000000000000000000000000000000000000602082015250565b60006200086f60258362000800565b91506200087c8262000811565b604082019050919050565b60006020820190508181036000830152620008a28162000860565b9050919050565b7f4e487b7100000000000000000000000000000000000000000000000000000000600052601160045260246000fd5b6000620008e5826200073d565b9150620008f2836200073d565b92508282019050808211156200090d576200090c620008a9565b5b92915050565b7f4f6666657220636c6f73696e672074696d6520697320746f6f2066757475726560008201527f2e00000000000000000000000000000000000000000000000000000000000000602082015250565b60006200097160218362000800565b91506200097e8262000913565b604082019050919050565b60006020820190508181036000830152620009a48162000962565b9050919050565b7f4f726465722065787069726174696f6e206d757374206265206166746572206f60008201527f6666657220636c6f73696e672074696d652e0000000000000000000000000000602082015250565b600062000a0960328362000800565b915062000a1682620009ab565b604082019050919050565b6000602082019050818103600083015262000a3c81620009fa565b9050919050565b7f4f726465722065787069726174696f6e20697320746f6f20667574757265206f60008201527f66206f6666657220636c6f73696e672074696d652e0000000000000000000000602082015250565b600062000aa160358362000800565b915062000aae8262000a43565b604082019050919050565b6000602082019050818103600083015262000ad48162000a92565b9050919050565b7f4d61747572697479206d757374206265206166746572206f6666657220636c6f60008201527f73696e672074696d652e00000000000000000000000000000000000000000000602082015250565b600062000b39602a8362000800565b915062000b468262000adb565b604082019050919050565b6000602082019050818103600083015262000b6c8162000b2a565b9050919050565b7f4d6174757269747920697320746f6f20667574757265206f66206f666665722060008201527f636c6f73696e672074696d652e00000000000000000000000000000000000000602082015250565b600062000bd1602d8362000800565b915062000bde8262000b73565b604082019050919050565b6000602082019050818103600083015262000c048162000bc2565b9050919050565b7f5472616e7366657220746f2073656c66206973206e6f7420616c6c6f7765642e600082015250565b600062000c4360208362000800565b915062000c508262000c0b565b602082019050919050565b6000602082019050818103600083015262000c768162000c34565b9050919050565b62000c8881620006f8565b82525050565b600060408201905062000ca5600083018562000c7d565b62000cb4602083018462000c7d565b9392505050565b60006020828403121562000cd45762000cd3620006d3565b5b600062000ce48482850162000761565b91505092915050565b7f57455448207472616e73666572206973206e6f7420616c6c6f7765642064756560008201527f20746f20616c6c6f77616e63652e000000000000000000000000000000000000602082015250565b600062000d4b602e8362000800565b915062000d588262000ced565b604082019050919050565b6000602082019050818103600083015262000d7e8162000d3c565b9050919050565b62000d90816200073d565b82525050565b600060608201905062000dad600083018662000c7d565b62000dbc602083018562000c7d565b62000dcb604083018462000d85565b949350505050565b60008115159050919050565b62000dea8162000dd3565b811462000df657600080fd5b50565b60008151905062000e0a8162000ddf565b92915050565b60006020828403121562000e295762000e28620006d3565b5b600062000e398482850162000df9565b91505092915050565b7f4f776e61626c653a2063616c6c6572206973206e6f7420746865206f776e6572600082015250565b600062000e7a60208362000800565b915062000e878262000e42565b602082019050919050565b6000602082019050818103600083015262000ead8162000e6b565b9050919050565b7f4f776e61626c653a206e6577206f776e657220697320746865207a65726f206160008201527f6464726573730000000000000000000000000000000000000000000000000000602082015250565b600062000f1260268362000800565b915062000f1f8262000eb4565b604082019050919050565b6000602082019050818103600083015262000f458162000f03565b9050919050565b6142bd8062000f5c6000396000f3fe608060405234801561001057600080fd5b50600436106101375760003560e01c80639c3b0897116100b8578063bf15071d1161007c578063bf15071d146102de578063c28295bd146102e8578063dd62ed3e14610306578063f2fde38b14610336578063f5d4fda714610352578063fc4dd3331461036e57610137565b80639c3b08971461023a578063a6f1fd511461026a578063a9059cbb14610286578063b832d7ff146102b6578063be040fb0146102d457610137565b806370a08231116100ff57806370a08231146101ce5780637119f098146101fe578063715018a614610208578063723fd72b146102125780638da5cb5b1461021c57610137565b8063095ea7b31461013c57806318160ddd1461016c57806323b872dd1461018a5780634c02f62e146101ba5780636c738c89146101c4575b600080fd5b61015660048036038101906101519190612e48565b61038a565b6040516101639190612ea3565b60405180910390f35b6101746105a5565b6040516101819190612ecd565b60405180910390f35b6101a4600480360381019061019f9190612ee8565b610669565b6040516101b19190612ea3565b60405180910390f35b6101c2610739565b005b6101cc6108bf565b005b6101e860048036038101906101e39190612f3b565b6109af565b6040516101f59190612ecd565b60405180910390f35b610206610ab2565b005b610210610bf9565b005b61021a610c44565b005b610224610ccc565b6040516102319190612f77565b60405180910390f35b610254600480360381019061024f9190612f3b565b610cf5565b6040516102619190612ecd565b60405180910390f35b610284600480360381019061027f9190612f92565b610d3e565b005b6102a0600480360381019061029b9190612e48565b610ff4565b6040516102ad9190612ea3565b60405180910390f35b6102be6110c3565b6040516102cb9190612ea3565b60405180910390f35b6102dc611187565b005b6102e6611475565b005b6102f06115ec565b6040516102fd9190612ecd565b60405180910390f35b610320600480360381019061031b9190612fbf565b6115f6565b60405161032d9190612ecd565b60405180910390f35b610350600480360381019061034b9190612f3b565b611737565b005b61036c60048036038101906103679190612f3b565b6117ba565b005b61038860048036038101906103839190612f92565b611806565b005b6000600260058111156103a05761039f612fff565b5b600160149054906101000a900460ff1660058111156103c2576103c1612fff565b5b14610402576040517f08c379a00000000000000000000000000000000000000000000000000000000081526004016103f99061308b565b60405180910390fd5b6004544210610446576040517f08c379a000000000000000000000000000000000000000000000000000000000815260040161043d906130f7565b60405180910390fd5b600073ffffffffffffffffffffffffffffffffffffffff168373ffffffffffffffffffffffffffffffffffffffff16036104b5576040517f08c379a00000000000000000000000000000000000000000000000000000000081526004016104ac90613163565b60405180910390fd5b81600960003373ffffffffffffffffffffffffffffffffffffffff1673ffffffffffffffffffffffffffffffffffffffff16815260200190815260200160002060008573ffffffffffffffffffffffffffffffffffffffff1673ffffffffffffffffffffffffffffffffffffffff168152602001908152602001600020819055508273ffffffffffffffffffffffffffffffffffffffff163373ffffffffffffffffffffffffffffffffffffffff167f8c5be1e5ebec7d5bd14f71427d1e84f3dd0314c0f7b2291e5b200ac8c7c3b925846040516105939190612ecd565b60405180910390a36001905092915050565b6000600260058111156105bb576105ba612fff565b5b600160149054906101000a900460ff1660058111156105dd576105dc612fff565b5b1461061d576040517f08c379a00000000000000000000000000000000000000000000000000000000081526004016106149061308b565b60405180910390fd5b6004544210610661576040517f08c379a0000000000000000000000000000000000000000000000000000000008152600401610658906130f7565b60405180910390fd5b600654905090565b60006002600581111561067f5761067e612fff565b5b600160149054906101000a900460ff1660058111156106a1576106a0612fff565b5b146106e1576040517f08c379a00000000000000000000000000000000000000000000000000000000081526004016106d89061308b565b60405180910390fd5b6004544210610725576040517f08c379a000000000000000000000000000000000000000000000000000000000815260040161071c906130f7565b60405180910390fd5b61073084848461194e565b90509392505050565b6000600581111561074d5761074c612fff565b5b600160149054906101000a900460ff16600581111561076f5761076e612fff565b5b146107af576040517f08c379a00000000000000000000000000000000000000000000000000000000081526004016107a6906131cf565b60405180910390fd5b60025442106107f3576040517f08c379a00000000000000000000000000000000000000000000000000000000081526004016107ea9061323b565b60405180910390fd5b6000600760003373ffffffffffffffffffffffffffffffffffffffff1673ffffffffffffffffffffffffffffffffffffffff1681526020019081526020016000205403610875576040517f08c379a000000000000000000000000000000000000000000000000000000000815260040161086c906132a7565b60405180910390fd5b6108bd600760003373ffffffffffffffffffffffffffffffffffffffff1673ffffffffffffffffffffffffffffffffffffffff16815260200190815260200160002054612047565b565b600260058111156108d3576108d2612fff565b5b600160149054906101000a900460ff1660058111156108f5576108f4612fff565b5b14610935576040517f08c379a000000000000000000000000000000000000000000000000000000000815260040161092c90613339565b60405180910390fd5b42600454111561097a576040517f08c379a0000000000000000000000000000000000000000000000000000000008152600401610971906133cb565b60405180910390fd5b61098261235b565b6003600160146101000a81548160ff021916908360058111156109a8576109a7612fff565b5b0217905550565b6000600260058111156109c5576109c4612fff565b5b600160149054906101000a900460ff1660058111156109e7576109e6612fff565b5b14610a27576040517f08c379a0000000000000000000000000000000000000000000000000000000008152600401610a1e9061308b565b60405180910390fd5b6004544210610a6b576040517f08c379a0000000000000000000000000000000000000000000000000000000008152600401610a62906130f7565b60405180910390fd5b600760008373ffffffffffffffffffffffffffffffffffffffff1673ffffffffffffffffffffffffffffffffffffffff168152602001908152602001600020549050919050565b60016005811115610ac657610ac5612fff565b5b600160149054906101000a900460ff166005811115610ae857610ae7612fff565b5b14610b28576040517f08c379a0000000000000000000000000000000000000000000000000000000008152600401610b1f9061308b565b60405180910390fd5b6003544210610b6c576040517f08c379a0000000000000000000000000000000000000000000000000000000008152600401610b639061345d565b60405180910390fd5b6004544210610bb0576040517f08c379a0000000000000000000000000000000000000000000000000000000008152600401610ba7906134c9565b60405180910390fd5b610bb86110c3565b610bf7576040517f08c379a0000000000000000000000000000000000000000000000000000000008152600401610bee90613535565b60405180910390fd5b565b610c0161235d565b6000610c42576040517f08c379a0000000000000000000000000000000000000000000000000000000008152600401610c39906135c7565b60405180910390fd5b565b60036005811115610c5857610c57612fff565b5b600160149054906101000a900460ff166005811115610c7a57610c79612fff565b5b14610cba576040517f08c379a0000000000000000000000000000000000000000000000000000000008152600401610cb190613659565b60405180910390fd5b610cc26123db565b610cca61235b565b565b60008060009054906101000a900473ffffffffffffffffffffffffffffffffffffffff16905090565b6000600760008373ffffffffffffffffffffffffffffffffffffffff1673ffffffffffffffffffffffffffffffffffffffff168152602001908152602001600020549050919050565b60006005811115610d5257610d51612fff565b5b600160149054906101000a900460ff166005811115610d7457610d73612fff565b5b14610db4576040517f08c379a0000000000000000000000000000000000000000000000000000000008152600401610dab906131cf565b60405180910390fd5b6002544210610df8576040517f08c379a0000000000000000000000000000000000000000000000000000000008152600401610def9061323b565b60405180910390fd5b60008103610e3b576040517f08c379a0000000000000000000000000000000000000000000000000000000008152600401610e32906136c5565b60405180910390fd5b600160009054906101000a900473ffffffffffffffffffffffffffffffffffffffff1673ffffffffffffffffffffffffffffffffffffffff166323b872dd3330846040518463ffffffff1660e01b8152600401610e9a939291906136e5565b6020604051808303816000875af1158015610eb9573d6000803e3d6000fd5b505050506040513d601f19601f82011682018060405250810190610edd9190613748565b50610f3081600760003373ffffffffffffffffffffffffffffffffffffffff1673ffffffffffffffffffffffffffffffffffffffff168152602001908152602001600020546123dd90919063ffffffff16565b600760003373ffffffffffffffffffffffffffffffffffffffff1673ffffffffffffffffffffffffffffffffffffffff16815260200190815260200160002081905550610f88816006546123dd90919063ffffffff16565b6006819055506008339080600181540180825580915050600190039060005260206000200160009091909190916101000a81548173ffffffffffffffffffffffffffffffffffffffff021916908373ffffffffffffffffffffffffffffffffffffffff16021790555050565b60006002600581111561100a57611009612fff565b5b600160149054906101000a900460ff16600581111561102c5761102b612fff565b5b1461106c576040517f08c379a00000000000000000000000000000000000000000000000000000000081526004016110639061308b565b60405180910390fd5b60045442106110b0576040517f08c379a00000000000000000000000000000000000000000000000000000000081526004016110a7906130f7565b60405180910390fd5b6110bb33848461194e565b905092915050565b6000600160058111156110d9576110d8612fff565b5b600160149054906101000a900460ff1660058111156110fb576110fa612fff565b5b1461113b576040517f08c379a00000000000000000000000000000000000000000000000000000000081526004016111329061308b565b60405180910390fd5b60011561114b5760009050611184565b600654600a819055506002600160146101000a81548160ff0219169083600581111561117a57611179612fff565b5b0217905550600190505b90565b6111cb6000600581111561119e5761119d612fff565b5b600160149054906101000a900460ff1660058111156111c0576111bf612fff565b5b1442600354106123f3565b61120a576040517f08c379a0000000000000000000000000000000000000000000000000000000008152600401611201906137e7565b60405180910390fd5b61124e6001600581111561122157611220612fff565b5b600160149054906101000a900460ff16600581111561124357611242612fff565b5b1442600354106123f3565b61128d576040517f08c379a000000000000000000000000000000000000000000000000000000000815260040161128490613879565b60405180910390fd5b600260058111156112a1576112a0612fff565b5b600160149054906101000a900460ff1660058111156112c3576112c2612fff565b5b03611303576040517f08c379a00000000000000000000000000000000000000000000000000000000081526004016112fa9061390b565b60405180910390fd5b6003600581111561131757611316612fff565b5b600160149054906101000a900460ff16600581111561133957611338612fff565b5b03611379576040517f08c379a00000000000000000000000000000000000000000000000000000000081526004016113709061399d565b60405180910390fd5b60058081111561138c5761138b612fff565b5b600160149054906101000a900460ff1660058111156113ae576113ad612fff565b5b036113ee576040517f08c379a00000000000000000000000000000000000000000000000000000000081526004016113e590613a09565b60405180910390fd5b6114326001600581111561140557611404612fff565b5b600160149054906101000a900460ff16600581111561142757611426612fff565b5b1442600354106123f3565b156114405761143f612407565b5b61144861247f565b6005600160146101000a81548160ff0219169083600581111561146e5761146d612fff565b5b0217905550565b6000600581111561148957611488612fff565b5b600160149054906101000a900460ff1660058111156114ab576114aa612fff565b5b146114eb576040517f08c379a00000000000000000000000000000000000000000000000000000000081526004016114e2906131cf565b60405180910390fd5b426002541115611530576040517f08c379a000000000000000000000000000000000000000000000000000000000815260040161152790613a9b565b60405180910390fd5b6003544210611574576040517f08c379a000000000000000000000000000000000000000000000000000000000815260040161156b9061345d565b60405180910390fd5b60045442106115b8576040517f08c379a00000000000000000000000000000000000000000000000000000000081526004016115af906134c9565b60405180910390fd5b6115c0612b09565b60018060146101000a81548160ff021916908360058111156115e5576115e4612fff565b5b0217905550565b6000600654905090565b60006002600581111561160c5761160b612fff565b5b600160149054906101000a900460ff16600581111561162e5761162d612fff565b5b1461166e576040517f08c379a00000000000000000000000000000000000000000000000000000000081526004016116659061308b565b60405180910390fd5b60045442106116b2576040517f08c379a00000000000000000000000000000000000000000000000000000000081526004016116a9906130f7565b60405180910390fd5b600960008473ffffffffffffffffffffffffffffffffffffffff1673ffffffffffffffffffffffffffffffffffffffff16815260200190815260200160002060008373ffffffffffffffffffffffffffffffffffffffff1673ffffffffffffffffffffffffffffffffffffffff16815260200190815260200160002054905092915050565b61173f61235d565b600073ffffffffffffffffffffffffffffffffffffffff168173ffffffffffffffffffffffffffffffffffffffff16036117ae576040517f08c379a00000000000000000000000000000000000000000000000000000000081526004016117a590613b2d565b60405180910390fd5b6117b781612b81565b50565b6117c261235d565b80600160006101000a81548173ffffffffffffffffffffffffffffffffffffffff021916908373ffffffffffffffffffffffffffffffffffffffff16021790555050565b6000600581111561181a57611819612fff565b5b600160149054906101000a900460ff16600581111561183c5761183b612fff565b5b1461187c576040517f08c379a0000000000000000000000000000000000000000000000000000000008152600401611873906131cf565b60405180910390fd5b60025442106118c0576040517f08c379a00000000000000000000000000000000000000000000000000000000081526004016118b79061323b565b60405180910390fd5b6000600760003373ffffffffffffffffffffffffffffffffffffffff1673ffffffffffffffffffffffffffffffffffffffff1681526020019081526020016000205403611942576040517f08c379a0000000000000000000000000000000000000000000000000000000008152600401611939906132a7565b60405180910390fd5b61194b81612047565b50565b60006002600581111561196457611963612fff565b5b600160149054906101000a900460ff16600581111561198657611985612fff565b5b146119c6576040517f08c379a00000000000000000000000000000000000000000000000000000000081526004016119bd9061308b565b60405180910390fd5b6004544210611a0a576040517f08c379a0000000000000000000000000000000000000000000000000000000008152600401611a01906130f7565b60405180910390fd5b600073ffffffffffffffffffffffffffffffffffffffff168373ffffffffffffffffffffffffffffffffffffffff1603611a79576040517f08c379a0000000000000000000000000000000000000000000000000000000008152600401611a7090613b99565b60405180910390fd5b600073ffffffffffffffffffffffffffffffffffffffff168373ffffffffffffffffffffffffffffffffffffffff1603611ae8576040517f08c379a0000000000000000000000000000000000000000000000000000000008152600401611adf90613c05565b60405180910390fd5b8273ffffffffffffffffffffffffffffffffffffffff168473ffffffffffffffffffffffffffffffffffffffff1603611b56576040517f08c379a0000000000000000000000000000000000000000000000000000000008152600401611b4d90613c97565b60405180910390fd5b600760008573ffffffffffffffffffffffffffffffffffffffff1673ffffffffffffffffffffffffffffffffffffffff16815260200190815260200160002054821115611bd8576040517f08c379a0000000000000000000000000000000000000000000000000000000008152600401611bcf90613d29565b60405180910390fd5b600960008573ffffffffffffffffffffffffffffffffffffffff1673ffffffffffffffffffffffffffffffffffffffff16815260200190815260200160002060008473ffffffffffffffffffffffffffffffffffffffff1673ffffffffffffffffffffffffffffffffffffffff16815260200190815260200160002054821115611c97576040517f08c379a0000000000000000000000000000000000000000000000000000000008152600401611c8e90613dbb565b60405180910390fd5b7fffffffffffffffffffffffffffffffffffffffffffffffffffffffffffffffff600960008673ffffffffffffffffffffffffffffffffffffffff1673ffffffffffffffffffffffffffffffffffffffff16815260200190815260200160002060008573ffffffffffffffffffffffffffffffffffffffff1673ffffffffffffffffffffffffffffffffffffffff1681526020019081526020016000205414611e4a57611dc982600960003373ffffffffffffffffffffffffffffffffffffffff1673ffffffffffffffffffffffffffffffffffffffff16815260200190815260200160002060008673ffffffffffffffffffffffffffffffffffffffff1673ffffffffffffffffffffffffffffffffffffffff16815260200190815260200160002054612d9190919063ffffffff16565b600960008673ffffffffffffffffffffffffffffffffffffffff1673ffffffffffffffffffffffffffffffffffffffff16815260200190815260200160002060008573ffffffffffffffffffffffffffffffffffffffff1673ffffffffffffffffffffffffffffffffffffffff168152602001908152602001600020819055505b611e9c82600760008673ffffffffffffffffffffffffffffffffffffffff1673ffffffffffffffffffffffffffffffffffffffff168152602001908152602001600020546123dd90919063ffffffff16565b600760008573ffffffffffffffffffffffffffffffffffffffff1673ffffffffffffffffffffffffffffffffffffffff16815260200190815260200160002081905550611f3182600760008773ffffffffffffffffffffffffffffffffffffffff1673ffffffffffffffffffffffffffffffffffffffff16815260200190815260200160002054612d9190919063ffffffff16565b600760008673ffffffffffffffffffffffffffffffffffffffff1673ffffffffffffffffffffffffffffffffffffffff168152602001908152602001600020819055506008839080600181540180825580915050600190039060005260206000200160009091909190916101000a81548173ffffffffffffffffffffffffffffffffffffffff021916908373ffffffffffffffffffffffffffffffffffffffff1602179055508273ffffffffffffffffffffffffffffffffffffffff168473ffffffffffffffffffffffffffffffffffffffff167fddf252ad1be2c89b69c2b068fc378daa952ba7f163c4a11628f55a4df523b3ef846040516120349190612ecd565b60405180910390a3600190509392505050565b6000600581111561205b5761205a612fff565b5b600160149054906101000a900460ff16600581111561207d5761207c612fff565b5b146120bd576040517f08c379a00000000000000000000000000000000000000000000000000000000081526004016120b4906131cf565b60405180910390fd5b6002544210612101576040517f08c379a00000000000000000000000000000000000000000000000000000000081526004016120f89061323b565b60405180910390fd5b6000600760003373ffffffffffffffffffffffffffffffffffffffff1673ffffffffffffffffffffffffffffffffffffffff1681526020019081526020016000205403612183576040517f08c379a000000000000000000000000000000000000000000000000000000000815260040161217a906132a7565b60405180910390fd5b600760003373ffffffffffffffffffffffffffffffffffffffff1673ffffffffffffffffffffffffffffffffffffffff16815260200190815260200160002054811115612205576040517f08c379a00000000000000000000000000000000000000000000000000000000081526004016121fc90613e27565b60405180910390fd5b600160009054906101000a900473ffffffffffffffffffffffffffffffffffffffff1673ffffffffffffffffffffffffffffffffffffffff166323b872dd3033846040518463ffffffff1660e01b8152600401612264939291906136e5565b6020604051808303816000875af1158015612283573d6000803e3d6000fd5b505050506040513d601f19601f820116820180604052508101906122a79190613748565b506122fa81600760003373ffffffffffffffffffffffffffffffffffffffff1673ffffffffffffffffffffffffffffffffffffffff16815260200190815260200160002054612d9190919063ffffffff16565b600760003373ffffffffffffffffffffffffffffffffffffffff1673ffffffffffffffffffffffffffffffffffffffff1681526020019081526020016000208190555061235281600654612d9190919063ffffffff16565b60068190555050565b565b612365612da7565b73ffffffffffffffffffffffffffffffffffffffff16612383610ccc565b73ffffffffffffffffffffffffffffffffffffffff16146123d9576040517f08c379a00000000000000000000000000000000000000000000000000000000081526004016123d090613e93565b60405180910390fd5b565b565b600081836123eb9190613ee2565b905092915050565b60008215806123ff5750815b905092915050565b6001600581111561241b5761241a612fff565b5b600160149054906101000a900460ff16600581111561243d5761243c612fff565b5b1461247d576040517f08c379a00000000000000000000000000000000000000000000000000000000081526004016124749061308b565b60405180910390fd5b565b6124c36000600581111561249657612495612fff565b5b600160149054906101000a900460ff1660058111156124b8576124b7612fff565b5b1442600354106123f3565b612502576040517f08c379a00000000000000000000000000000000000000000000000000000000081526004016124f9906137e7565b60405180910390fd5b6125466001600581111561251957612518612fff565b5b600160149054906101000a900460ff16600581111561253b5761253a612fff565b5b1442600354106123f3565b612585576040517f08c379a000000000000000000000000000000000000000000000000000000000815260040161257c90613879565b60405180910390fd5b6002600581111561259957612598612fff565b5b600160149054906101000a900460ff1660058111156125bb576125ba612fff565b5b036125fb576040517f08c379a00000000000000000000000000000000000000000000000000000000081526004016125f29061390b565b60405180910390fd5b6003600581111561260f5761260e612fff565b5b600160149054906101000a900460ff16600581111561263157612630612fff565b5b03612671576040517f08c379a00000000000000000000000000000000000000000000000000000000081526004016126689061399d565b60405180910390fd5b60058081111561268457612683612fff565b5b600160149054906101000a900460ff1660058111156126a6576126a5612fff565b5b036126e6576040517f08c379a00000000000000000000000000000000000000000000000000000000081526004016126dd90613a09565b60405180910390fd5b6000600b540361272b576040517f08c379a000000000000000000000000000000000000000000000000000000000815260040161272290613f88565b60405180910390fd5b6000600860008154811061274257612741613fa8565b5b9060005260206000200160009054906101000a900473ffffffffffffffffffffffffffffffffffffffff169050600080600880549050905060006006549050600160009054906101000a900473ffffffffffffffffffffffffffffffffffffffff1673ffffffffffffffffffffffffffffffffffffffff166370a08231306040518263ffffffff1660e01b81526004016127dc9190612f77565b602060405180830381865afa1580156127f9573d6000803e3d6000fd5b505050506040513d601f19601f8201168201806040525081019061281d9190613fec565b81111561282957600080fd5b60005b828110156129c05760006008828154811061284a57612849613fa8565b5b9060005260206000200160009054906101000a900473ffffffffffffffffffffffffffffffffffffffff1690506000600760008373ffffffffffffffffffffffffffffffffffffffff1673ffffffffffffffffffffffffffffffffffffffff168152602001908152602001600020549050600081146129ad57808610156128d2578095508196505b60008482600b546128e39190614019565b6128ed919061408a565b9050600160009054906101000a900473ffffffffffffffffffffffffffffffffffffffff1673ffffffffffffffffffffffffffffffffffffffff1663a9059cbb84836040518363ffffffff1660e01b815260040161294c9291906140bb565b6020604051808303816000875af115801561296b573d6000803e3d6000fd5b505050506040513d601f19601f8201168201806040525081019061298f9190613748565b506129a581600654612d9190919063ffffffff16565b600681905550505b5050806129b9906140e4565b905061282c565b506000600160009054906101000a900473ffffffffffffffffffffffffffffffffffffffff1673ffffffffffffffffffffffffffffffffffffffff166370a08231306040518263ffffffff1660e01b8152600401612a1e9190612f77565b602060405180830381865afa158015612a3b573d6000803e3d6000fd5b505050506040513d601f19601f82011682018060405250810190612a5f9190613fec565b9050600160009054906101000a900473ffffffffffffffffffffffffffffffffffffffff1673ffffffffffffffffffffffffffffffffffffffff1663a9059cbb86836040518363ffffffff1660e01b8152600401612abe9291906140bb565b6020604051808303816000875af1158015612add573d6000803e3d6000fd5b505050506040513d601f19601f82011682018060405250810190612b019190613748565b505050505050565b60006005811115612b1d57612b1c612fff565b5b600160149054906101000a900460ff166005811115612b3f57612b3e612fff565b5b14612b7f576040517f08c379a0000000000000000000000000000000000000000000000000000000008152600401612b76906131cf565b60405180910390fd5b565b612b8961235d565b612b91610ccc565b73ffffffffffffffffffffffffffffffffffffffff168173ffffffffffffffffffffffffffffffffffffffff1603612bfe576040517f08c379a0000000000000000000000000000000000000000000000000000000008152600401612bf590614178565b60405180910390fd5b600160009054906101000a900473ffffffffffffffffffffffffffffffffffffffff1673ffffffffffffffffffffffffffffffffffffffff1663dd62ed3e30836040518363ffffffff1660e01b8152600401612c5b929190614198565b602060405180830381865afa158015612c78573d6000803e3d6000fd5b505050506040513d601f19601f82011682018060405250810190612c9c9190613fec565b6006541115612ce0576040517f08c379a0000000000000000000000000000000000000000000000000000000008152600401612cd790614233565b60405180910390fd5b600160009054906101000a900473ffffffffffffffffffffffffffffffffffffffff1673ffffffffffffffffffffffffffffffffffffffff166323b872dd30836006546040518463ffffffff1660e01b8152600401612d41939291906136e5565b6020604051808303816000875af1158015612d60573d6000803e3d6000fd5b505050506040513d601f19601f82011682018060405250810190612d849190613748565b50612d8e81611737565b50565b60008183612d9f9190614253565b905092915050565b600033905090565b600080fd5b600073ffffffffffffffffffffffffffffffffffffffff82169050919050565b6000612ddf82612db4565b9050919050565b612def81612dd4565b8114612dfa57600080fd5b50565b600081359050612e0c81612de6565b92915050565b6000819050919050565b612e2581612e12565b8114612e3057600080fd5b50565b600081359050612e4281612e1c565b92915050565b60008060408385031215612e5f57612e5e612daf565b5b6000612e6d85828601612dfd565b9250506020612e7e85828601612e33565b9150509250929050565b60008115159050919050565b612e9d81612e88565b82525050565b6000602082019050612eb86000830184612e94565b92915050565b612ec781612e12565b82525050565b6000602082019050612ee26000830184612ebe565b92915050565b600080600060608486031215612f0157612f00612daf565b5b6000612f0f86828701612dfd565b9350506020612f2086828701612dfd565b9250506040612f3186828701612e33565b9150509250925092565b600060208284031215612f5157612f50612daf565b5b6000612f5f84828501612dfd565b91505092915050565b612f7181612dd4565b82525050565b6000602082019050612f8c6000830184612f68565b92915050565b600060208284031215612fa857612fa7612daf565b5b6000612fb684828501612e33565b91505092915050565b60008060408385031215612fd657612fd5612daf565b5b6000612fe485828601612dfd565b9250506020612ff585828601612dfd565b9150509250929050565b7f4e487b7100000000000000000000000000000000000000000000000000000000600052602160045260246000fd5b600082825260208201905092915050565b7f417661696c61626c65206f6e6c79207768656e206f72646572696e6700000000600082015250565b6000613075601c8361302e565b91506130808261303f565b602082019050919050565b600060208201905081810360008301526130a481613068565b9050919050565b7f5468697320736368656d652072656163686573206d617475726974792e000000600082015250565b60006130e1601d8361302e565b91506130ec826130ab565b602082019050919050565b60006020820190508181036000830152613110816130d4565b9050919050565b7f4e756c6c207370656e6465722061646472657373000000000000000000000000600082015250565b600061314d60148361302e565b915061315882613117565b602082019050919050565b6000602082019050818103600083015261317c81613140565b9050919050565b7f417661696c61626c65206f6e6c79207768656e206f66666572696e6700000000600082015250565b60006131b9601c8361302e565b91506131c482613183565b602082019050919050565b600060208201905081810360008301526131e8816131ac565b9050919050565b7f4f6666657220706572696f6420616c726561647920656e646564000000000000600082015250565b6000613225601a8361302e565b9150613230826131ef565b602082019050919050565b6000602082019050818103600083015261325481613218565b9050919050565b7f4f6e6c79206465706f7369746f722063616e2063616c6c2e0000000000000000600082015250565b600061329160188361302e565b915061329c8261325b565b602082019050919050565b600060208201905081810360008301526132c081613284565b9050919050565b7f53656c6c20697320617661696c61626c65206f6e6c79207768656e207468697360008201527f20636f6e747261637420686f6c647320616e2061737365742e00000000000000602082015250565b600061332360398361302e565b915061332e826132c7565b604082019050919050565b6000602082019050818103600083015261335281613316565b9050919050565b7f53656c6c696e6720617373657420697320617661696c61626c65206f6e6c792060008201527f6166746572206d617475726974792e0000000000000000000000000000000000602082015250565b60006133b5602f8361302e565b91506133c082613359565b604082019050919050565b600060208201905081810360008301526133e4816133a8565b9050919050565b7f4f726465722065787069726174696f6e20697320616c7265616479207061737360008201527f65642e0000000000000000000000000000000000000000000000000000000000602082015250565b600061344760238361302e565b9150613452826133eb565b604082019050919050565b600060208201905081810360008301526134768161343a565b9050919050565b7f4d6174757269747920697320616c7265616479207061737365642e0000000000600082015250565b60006134b3601b8361302e565b91506134be8261347d565b602082019050919050565b600060208201905081810360008301526134e2816134a6565b9050919050565b7f4f72646572206973206e6f74206d617463686564207965740000000000000000600082015250565b600061351f60188361302e565b915061352a826134e9565b602082019050919050565b6000602082019050818103600083015261354e81613512565b9050919050565b7f4f776e6572206f66207468697320636f6e74726163742063616e206e6f74206260008201527f65206e756c6c61626c652e000000000000000000000000000000000000000000602082015250565b60006135b1602b8361302e565b91506135bc82613555565b604082019050919050565b600060208201905081810360008301526135e0816135a4565b9050919050565b7f417661696c61626c65206f6e6c79207768656e2061737365742073656c6c696e60008201527f672e000000000000000000000000000000000000000000000000000000000000602082015250565b600061364360228361302e565b915061364e826135e7565b604082019050919050565b6000602082019050818103600083015261367281613636565b9050919050565b7f4465706f73697420616d6f756e74206d75737420626520706f7369746976652e600082015250565b60006136af60208361302e565b91506136ba82613679565b602082019050919050565b600060208201905081810360008301526136de816136a2565b9050919050565b60006060820190506136fa6000830186612f68565b6137076020830185612f68565b6137146040830184612ebe565b949350505050565b61372581612e88565b811461373057600080fd5b50565b6000815190506137428161371c565b92915050565b60006020828403121561375e5761375d612daf565b5b600061376c84828501613733565b91505092915050565b7f4f66666572696e6720737461746520636f6e747261637420697320726564656560008201527f6d61626c65206f6e6c79206166746572206f72646572206578706972792e0000602082015250565b60006137d1603e8361302e565b91506137dc82613775565b604082019050919050565b60006020820190508181036000830152613800816137c4565b9050919050565b7f4f72646572696e6720737461746520636f6e747261637420697320726564656560008201527f6d61626c65206f6e6c79206166746572206f72646572206578706972792e0000602082015250565b6000613863603e8361302e565b915061386e82613807565b604082019050919050565b6000602082019050818103600083015261389281613856565b9050919050565b7f43616e206e6f742072656465656d206265666f72652073656c6c696e6720617360008201527f7365742e00000000000000000000000000000000000000000000000000000000602082015250565b60006138f560248361302e565b915061390082613899565b604082019050919050565b60006020820190508181036000830152613924816138e8565b9050919050565b7f43616e206e6f742072656465656d206265666f726520636f6d706c6574696e6760008201527f2073656c6c696e672061737365742e0000000000000000000000000000000000602082015250565b6000613987602f8361302e565b91506139928261392b565b604082019050919050565b600060208201905081810360008301526139b68161397a565b9050919050565b7f416c72656164792072656465656d65642e000000000000000000000000000000600082015250565b60006139f360118361302e565b91506139fe826139bd565b602082019050919050565b60006020820190508181036000830152613a22816139e6565b9050919050565b7f43616e206e6f742073746f70206f66666572696e67206265666f7265206f666660008201527f657220636c6f73696e672074696d650000000000000000000000000000000000602082015250565b6000613a85602f8361302e565b9150613a9082613a29565b604082019050919050565b60006020820190508181036000830152613ab481613a78565b9050919050565b7f4f776e61626c653a206e6577206f776e657220697320746865207a65726f206160008201527f6464726573730000000000000000000000000000000000000000000000000000602082015250565b6000613b1760268361302e565b9150613b2282613abb565b604082019050919050565b60006020820190508181036000830152613b4681613b0a565b9050919050565b7f4e756c6c2066726f6d2061646472657373000000000000000000000000000000600082015250565b6000613b8360118361302e565b9150613b8e82613b4d565b602082019050919050565b60006020820190508181036000830152613bb281613b76565b9050919050565b7f4e756c6c20746172676574206164647265737300000000000000000000000000600082015250565b6000613bef60138361302e565b9150613bfa82613bb9565b602082019050919050565b60006020820190508181036000830152613c1e81613be2565b9050919050565b7f5472616e7366657220746f2068696d73656c6620646f6573206e6f74206d616b60008201527f652073656e63652e000000000000000000000000000000000000000000000000602082015250565b6000613c8160288361302e565b9150613c8c82613c25565b604082019050919050565b60006020820190508181036000830152613cb081613c74565b9050919050565b7f4661696c20746f207472616e7366657220746f6b656e2062656361757365206f60008201527f66206c61636b206f6620746f6b656e732e000000000000000000000000000000602082015250565b6000613d1360318361302e565b9150613d1e82613cb7565b604082019050919050565b60006020820190508181036000830152613d4281613d06565b9050919050565b7f546f6f206d75636820616d6f756e7420697320747269656420746f207472616e60008201527f7366657200000000000000000000000000000000000000000000000000000000602082015250565b6000613da560248361302e565b9150613db082613d49565b604082019050919050565b60006020820190508181036000830152613dd481613d98565b9050919050565b7f4c61636b206f66206465706f73697420616d6f756e742e000000000000000000600082015250565b6000613e1160178361302e565b9150613e1c82613ddb565b602082019050919050565b60006020820190508181036000830152613e4081613e04565b9050919050565b7f4f776e61626c653a2063616c6c6572206973206e6f7420746865206f776e6572600082015250565b6000613e7d60208361302e565b9150613e8882613e47565b602082019050919050565b60006020820190508181036000830152613eac81613e70565b9050919050565b7f4e487b7100000000000000000000000000000000000000000000000000000000600052601160045260246000fd5b6000613eed82612e12565b9150613ef883612e12565b9250828201905080821115613f1057613f0f613eb3565b5b92915050565b7f556e6465726c79696e67417373657420697320736f6c6420627920302077657460008201527f682e000000000000000000000000000000000000000000000000000000000000602082015250565b6000613f7260228361302e565b9150613f7d82613f16565b604082019050919050565b60006020820190508181036000830152613fa181613f65565b9050919050565b7f4e487b7100000000000000000000000000000000000000000000000000000000600052603260045260246000fd5b600081519050613fe681612e1c565b92915050565b60006020828403121561400257614001612daf565b5b600061401084828501613fd7565b91505092915050565b600061402482612e12565b915061402f83612e12565b925082820261403d81612e12565b9150828204841483151761405457614053613eb3565b5b5092915050565b7f4e487b7100000000000000000000000000000000000000000000000000000000600052601260045260246000fd5b600061409582612e12565b91506140a083612e12565b9250826140b0576140af61405b565b5b828204905092915050565b60006040820190506140d06000830185612f68565b6140dd6020830184612ebe565b9392505050565b60006140ef82612e12565b91507fffffffffffffffffffffffffffffffffffffffffffffffffffffffffffffffff820361412157614120613eb3565b5b600182019050919050565b7f5472616e7366657220746f2073656c66206973206e6f7420616c6c6f7765642e600082015250565b600061416260208361302e565b915061416d8261412c565b602082019050919050565b6000602082019050818103600083015261419181614155565b9050919050565b60006040820190506141ad6000830185612f68565b6141ba6020830184612f68565b9392505050565b7f57455448207472616e73666572206973206e6f7420616c6c6f7765642064756560008201527f20746f20616c6c6f77616e63652e000000000000000000000000000000000000602082015250565b600061421d602e8361302e565b9150614228826141c1565b604082019050919050565b6000602082019050818103600083015261424c81614210565b9050919050565b600061425e82612e12565b915061426983612e12565b925082820390508181111561428157614280613eb3565b5b9291505056fea264697066735822122036bd5efbcb40f6a5b00f672976e099f7a8f27c61b9ac75cbb9977d32256ed80164736f6c63430008110033",
  "immutableReferences": {},
  "source": "// SPDX-License-Identifier: MIT\npragma solidity ^0.8.17;\n\nimport \"@openzeppelin/contracts/utils/math/SafeMath.sol\";\nimport \"@openzeppelin/contracts/access/Ownable.sol\";\nimport \"@openzeppelin/contracts/token/ERC20/IERC20.sol\";\nimport \"@openzeppelin/contracts/token/ERC20/ERC20.sol\";\n\ncontract CollectiveInvestmentScheme is IERC20, Ownable {\n    // using\n    using SafeMath for uint;\n\n    // enums\n    enum State { Offering, Ordering, AssetHolding, AssetSelling, AssetSold, Closed }\n\n    // external contracts\n    ERC20 private _WETHcontract;\n\n    // --- vvv fields vvv --- \n    // scheme info\n    State private _state;\n    uint private _offerClosingTime;\n    uint private _orderExpiration;\n    uint private _maturity;\n\n    // underlying\n    address private _underlyingAsset; // this must be hide in some manner...\n\n    // deposit related.\n    uint private _totalWETH;\n    mapping(address => uint) private _depositWETH;\n    address[] private _depositors;\n\n    // as token\n    mapping(address => mapping(address => uint)) private _allowance;\n\n    // execution result\n    uint private _purchasePrice;\n    uint private _soldPrice;\n\n    // --- ^^^ fields ^^^ --- \n\n    // modifiers\n    modifier onlyOffering() {\n        require(_state == State.Offering, \"Available only when offering\");\n        _;\n    }\n    modifier beforeOfferClose() {\n        require(block.timestamp < _offerClosingTime, \"Offer period already ended\");\n        _;\n    }\n    modifier onlyOrdering() {\n        require(_state == State.Ordering, \"Available only when ordering\");\n        _;\n    }\n    modifier onlyAssetHolding() {\n        require(_state == State.AssetHolding, \"Available only when ordering\");\n        require(block.timestamp < _maturity, \"This scheme reaches maturity.\");\n        _;\n    }\n    modifier onlyAssetSelling() {\n        require(_state == State.AssetSelling, \"Available only when asset selling.\");\n        _;\n    }\n    modifier onlyDepositor() {\n        require(_depositWETH[msg.sender] != 0, \"Only depositor can call.\");\n        _;\n    }\n\n\n    constructor(\n        address WETHcontract_,\n        address underlyingAsset_,\n        uint offerClosingTime_,\n        uint orderExpiration_,\n        uint maturity_\n    )\n        Ownable()\n    {\n        require(WETHcontract_ != address(0));\n        require(underlyingAsset_ != address(0));\n        require(block.timestamp < offerClosingTime_, \"Offer closing time must be in future.\");\n        require(offerClosingTime_ <= block.timestamp + 90 days , \"Offer closing time is too future.\");\n        require(offerClosingTime_ < orderExpiration_, \"Order expiration must be after offer closing time.\");\n        require(orderExpiration_ <= offerClosingTime_ + 90 days, \"Order expiration is too future of offer closing time.\");\n        require(offerClosingTime_ < maturity_, \"Maturity must be after offer closing time.\");\n        require(maturity_ <= offerClosingTime_ + 180 days, \"Maturity is too future of offer closing time.\");\n        _WETHcontract = ERC20(WETHcontract_);\n        _underlyingAsset = underlyingAsset_;\n        _offerClosingTime = offerClosingTime_;\n        _orderExpiration = orderExpiration_;\n        _maturity = maturity_;\n    }\n\n    // administrator\n    function setWETHcontract(address _newAddress) external onlyOwner {\n        _WETHcontract = ERC20(_newAddress); // is this safe...?\n    }\n    function renounceOwnership() public virtual override onlyOwner {\n        require(false, \"Owner of this contract can not be nullable.\");\n    }\n    function _transferOwnership(address _newOwner) internal override onlyOwner {\n        require(_newOwner != owner(), \"Transfer to self is not allowed.\");\n        require(_totalWETH <= _WETHcontract.allowance(address(this), _newOwner), \"WETH transfer is not allowed due to allowance.\");\n        _WETHcontract.transferFrom(address(this), _newOwner, _totalWETH);\n        super.transferOwnership(_newOwner);\n    }\n\n    // getters\n    function getTotalWETH() external view returns(uint) {\n        return _totalWETH;\n    }\n    function getDepositWETH(address _depositor) external view returns(uint) {\n        return _depositWETH[_depositor];\n    }\n\n    // setters\n    function addDeposit(uint amount_) external onlyOffering beforeOfferClose {\n        // transfer weth from msg.sender to this contract\n        require(amount_ != 0, \"Deposit amount must be positive.\");\n        _WETHcontract.transferFrom(msg.sender, address(this), amount_);\n        _depositWETH[msg.sender] = _depositWETH[msg.sender].add(amount_);\n        _totalWETH = _totalWETH.add(amount_);\n        _depositors.push(msg.sender);\n    }\n    function _withdraw(uint amount_) private onlyOffering beforeOfferClose onlyDepositor {\n        // transfer weth from this contract to msg.sender\n        require(amount_ <= _depositWETH[msg.sender], \"Lack of deposit amount.\");\n        _WETHcontract.transferFrom(address(this), msg.sender, amount_);\n        _depositWETH[msg.sender] = _depositWETH[msg.sender].sub(amount_);\n        _totalWETH = _totalWETH.sub(amount_);\n    }\n    function withdrawWETH(uint amount_) external onlyOffering beforeOfferClose onlyDepositor {\n        _withdraw(amount_);\n    }\n    function withdrawWETH() external onlyOffering beforeOfferClose onlyDepositor {\n        _withdraw(_depositWETH[msg.sender]);\n    }\n\n    // ordering\n    function _makeBuyOrder() private onlyOffering {\n        // make a buy-order.\n        // in this function, use only 99.9999x% of weth to keep market incentive\n        // this function is future work. we need to implement price control logic.\n        // now, we assume that all weth is used to buy an asset.\n    }\n    function _cancelBuyOrder() private onlyOrdering {\n    }\n    function order() external onlyOffering {\n        require(_offerClosingTime <= block.timestamp, \"Can not stop offering before offer closing time\");\n        require(block.timestamp < _orderExpiration, \"Order expiration is already passed.\");\n        require(block.timestamp < _maturity, \"Maturity is already passed.\");\n        _makeBuyOrder();\n        _state = State.Ordering;\n    }\n    function _checkPurchased() public onlyOrdering returns(bool) {\n        if (true) {\n            // when order is not matched.\n            return false;\n        }\n        _purchasePrice = _totalWETH;\n        _state = State.AssetHolding;\n        return true;\n    }\n\n    // publish token\n    function publishToken() external onlyOrdering {\n        require(block.timestamp < _orderExpiration, \"Order expiration is already passed.\");\n        require(block.timestamp < _maturity, \"Maturity is already passed.\");\n        require(_checkPurchased(), \"Order is not matched yet\");\n    }\n\n    // sell asset\n    function _makeSellOrder() private {\n        // make a sell-order.\n        // this function is future work. we need to implement price control logic.\n    }\n    function _cancellSellOrder() private {\n        // cancel a sell-order.\n    }\n    function sellAsset() external {\n        require(_state == State.AssetHolding, \"Sell is available only when this contract holds an asset.\");\n        require(_maturity <= block.timestamp, \"Selling asset is available only after maturity.\");\n        _makeSellOrder();\n        _state = State.AssetSelling;\n    }\n    function updateSellOrder() external onlyAssetSelling {\n        _cancellSellOrder();\n        _makeSellOrder();\n    }\n    function checkSold() internal onlyAssetSelling returns(bool) {\n        if (true) {\n            // when order is not matched.\n            return false;\n        }\n        _soldPrice = _totalWETH;\n        _state = State.AssetSold;\n        return true;\n    }\n\n    // redeem\n    function _ifXthenY(bool x, bool y) internal pure returns(bool) {\n        return !x || y;\n    }\n    modifier onlyRedeemable() {\n        require(_ifXthenY(_state == State.Offering, _orderExpiration < block.timestamp), \"Offering state contract is redeemable only after order expiry.\");\n        require(_ifXthenY(_state == State.Ordering, _orderExpiration < block.timestamp), \"Ordering state contract is redeemable only after order expiry.\");\n        require(_state != State.AssetHolding, \"Can not redeem before selling asset.\");\n        require(_state != State.AssetSelling, \"Can not redeem before completing selling asset.\");\n        require(_state != State.Closed, \"Already redeemed.\");\n        _;\n    }\n    function _refund() internal onlyRedeemable {\n        require(_soldPrice != 0, \"UnderlyingAsset is sold by 0 weth.\");\n        address maxDepositor = _depositors[0];\n        uint maxDeposit = 0;\n        uint nDepositors = _depositors.length;\n        uint totalWETH = _totalWETH;\n        require(totalWETH <= _WETHcontract.balanceOf(address(this)));\n        for (uint i=0; i<nDepositors; ++i) {\n            address depositor = _depositors[i];\n            uint balance = _depositWETH[depositor];\n            if (balance != 0) {\n                if (maxDeposit < balance) {\n                    maxDeposit = balance;\n                    maxDepositor = depositor;\n                }\n                uint refundAmount = (_soldPrice * balance) / totalWETH;\n                _WETHcontract.transfer(depositor, refundAmount);\n                _totalWETH = _totalWETH.sub(refundAmount);\n            }\n        }\n        {\n            uint remaining = _WETHcontract.balanceOf(address(this));\n            _WETHcontract.transfer(maxDepositor, remaining);\n        }\n    }\n    function redeem() external onlyRedeemable {\n        if (_ifXthenY(_state == State.Ordering, _orderExpiration < block.timestamp)) {\n            _cancelBuyOrder();\n        }\n        _refund();\n        _state = State.Closed;\n    }\n\n    // IERC20 behavior. This behavior is active only when AssetHolding state\n    function totalSupply() external view override onlyAssetHolding returns (uint256) {\n        return _totalWETH;\n    }\n    function balanceOf(address account_) external view override onlyAssetHolding returns (uint256) {\n        return _depositWETH[account_];\n    }\n    function allowance(address owner_, address spender_) external view override onlyAssetHolding returns (uint256) {\n        return _allowance[owner_][spender_];\n    }\n    function approve(address spender_, uint256 amount_) external override onlyAssetHolding returns (bool) {\n        require(spender_ != address(0), \"Null spender address\");\n        _allowance[msg.sender][spender_] = amount_;\n        emit Approval(msg.sender, spender_, amount_);\n        return true;\n    }\n    function _transfer(address from_, address to_, uint amount_) private  onlyAssetHolding returns (bool) {\n        require(to_ != address(0), \"Null from address\");\n        require(to_ != address(0), \"Null target address\");\n        require(from_ != to_, \"Transfer to himself does not make sence.\");\n        require(amount_ <= _depositWETH[from_], \"Fail to transfer token because of lack of tokens.\");\n        require(amount_ <= _allowance[from_][to_], \"Too much amount is tried to transfer\");\n        if (_allowance[from_][to_] != type(uint).max) {\n            _allowance[from_][to_] = _allowance[msg.sender][to_].sub(amount_);\n        }\n        _depositWETH[to_] = _depositWETH[to_].add(amount_);\n        _depositWETH[from_] = _depositWETH[from_].sub(amount_);\n        _depositors.push(to_);\n        emit Transfer(from_, to_, amount_);\n        return true;        \n    }\n    function transfer(address to_, uint256 amount_) external override onlyAssetHolding returns (bool) {\n        return _transfer(msg.sender, to_, amount_);\n    }\n    function transferFrom(address from_, address to_, uint amount_) external override onlyAssetHolding returns (bool) {\n        return _transfer(from_, to_, amount_);\n    }\n}\n",
  "sourcePath": "/Users/sosukeimai/Desktop/ws/web3/contracts/contracts/CollectiveInvestmentScheme.sol",
  "compiler": {
    "name": "solc",
    "version": "0.8.17+commit.8df45f5f.Emscripten.clang"
  },
  "schemaVersion": "3.4.10",
  "updatedAt": "2022-11-06T05:43:24.527Z",
  "devdoc": {
    "kind": "dev",
    "methods": {
      "owner()": {
        "details": "Returns the address of the current owner."
      },
      "renounceOwnership()": {
        "details": "Leaves the contract without owner. It will not be possible to call `onlyOwner` functions anymore. Can only be called by the current owner. NOTE: Renouncing ownership will leave the contract without an owner, thereby removing any functionality that is only available to the owner."
      },
      "totalSupply()": {
        "details": "Returns the amount of tokens in existence."
      },
      "transferOwnership(address)": {
        "details": "Transfers ownership of the contract to a new account (`newOwner`). Can only be called by the current owner."
      }
    },
    "version": 1
  },
  "userdoc": {
    "kind": "user",
    "methods": {},
    "version": 1
  }
}