{
  "contractName": "CollectiveInvestmentSchemeV2",
  "abi": [
    {
      "inputs": [
        {
          "internalType": "address",
          "name": "WETHcontractAddress_",
          "type": "address"
        },
        {
          "internalType": "address",
          "name": "underlyingAsset_",
          "type": "address"
        },
        {
          "internalType": "uint256",
          "name": "offerClosingTime_",
          "type": "uint256"
        },
        {
          "internalType": "uint256",
          "name": "orderExpiration_",
          "type": "uint256"
        },
        {
          "internalType": "uint256",
          "name": "maturity_",
          "type": "uint256"
        },
        {
          "internalType": "string",
          "name": "tokanName_",
          "type": "string"
        },
        {
          "internalType": "string",
          "name": "tokenSymbol_",
          "type": "string"
        }
      ],
      "stateMutability": "nonpayable",
      "type": "constructor"
    },
    {
      "anonymous": false,
      "inputs": [
        {
          "indexed": true,
          "internalType": "address",
          "name": "owner",
          "type": "address"
        },
        {
          "indexed": true,
          "internalType": "address",
          "name": "spender",
          "type": "address"
        },
        {
          "indexed": false,
          "internalType": "uint256",
          "name": "value",
          "type": "uint256"
        }
      ],
      "name": "Approval",
      "type": "event"
    },
    {
      "anonymous": false,
      "inputs": [
        {
          "indexed": false,
          "internalType": "enum CollectiveInvestmentSchemeV2.State",
          "name": "from",
          "type": "uint8"
        },
        {
          "indexed": false,
          "internalType": "enum CollectiveInvestmentSchemeV2.State",
          "name": "to",
          "type": "uint8"
        }
      ],
      "name": "StateTransition",
      "type": "event"
    },
    {
      "anonymous": false,
      "inputs": [
        {
          "indexed": true,
          "internalType": "address",
          "name": "from",
          "type": "address"
        },
        {
          "indexed": true,
          "internalType": "address",
          "name": "to",
          "type": "address"
        },
        {
          "indexed": false,
          "internalType": "uint256",
          "name": "value",
          "type": "uint256"
        }
      ],
      "name": "Transfer",
      "type": "event"
    },
    {
      "inputs": [],
      "name": "decimals",
      "outputs": [
        {
          "internalType": "uint8",
          "name": "",
          "type": "uint8"
        }
      ],
      "stateMutability": "view",
      "type": "function"
    },
    {
      "inputs": [
        {
          "internalType": "address",
          "name": "spender",
          "type": "address"
        },
        {
          "internalType": "uint256",
          "name": "subtractedValue",
          "type": "uint256"
        }
      ],
      "name": "decreaseAllowance",
      "outputs": [
        {
          "internalType": "bool",
          "name": "",
          "type": "bool"
        }
      ],
      "stateMutability": "nonpayable",
      "type": "function"
    },
    {
      "inputs": [
        {
          "internalType": "address",
          "name": "spender",
          "type": "address"
        },
        {
          "internalType": "uint256",
          "name": "addedValue",
          "type": "uint256"
        }
      ],
      "name": "increaseAllowance",
      "outputs": [
        {
          "internalType": "bool",
          "name": "",
          "type": "bool"
        }
      ],
      "stateMutability": "nonpayable",
      "type": "function"
    },
    {
      "inputs": [],
      "name": "name",
      "outputs": [
        {
          "internalType": "string",
          "name": "",
          "type": "string"
        }
      ],
      "stateMutability": "view",
      "type": "function"
    },
    {
      "inputs": [],
      "name": "symbol",
      "outputs": [
        {
          "internalType": "string",
          "name": "",
          "type": "string"
        }
      ],
      "stateMutability": "view",
      "type": "function"
    },
    {
      "inputs": [],
      "name": "state",
      "outputs": [
        {
          "internalType": "enum CollectiveInvestmentSchemeV2.State",
          "name": "",
          "type": "uint8"
        }
      ],
      "stateMutability": "view",
      "type": "function"
    },
    {
      "inputs": [],
      "name": "offerClosingTime",
      "outputs": [
        {
          "internalType": "uint256",
          "name": "",
          "type": "uint256"
        }
      ],
      "stateMutability": "view",
      "type": "function"
    },
    {
      "inputs": [],
      "name": "orderExpiration",
      "outputs": [
        {
          "internalType": "uint256",
          "name": "",
          "type": "uint256"
        }
      ],
      "stateMutability": "view",
      "type": "function"
    },
    {
      "inputs": [],
      "name": "maturity",
      "outputs": [
        {
          "internalType": "uint256",
          "name": "",
          "type": "uint256"
        }
      ],
      "stateMutability": "view",
      "type": "function"
    },
    {
      "inputs": [],
      "name": "underlyingAsset",
      "outputs": [
        {
          "internalType": "address",
          "name": "",
          "type": "address"
        }
      ],
      "stateMutability": "view",
      "type": "function"
    },
    {
      "inputs": [],
      "name": "totalDepositWETH",
      "outputs": [
        {
          "internalType": "uint256",
          "name": "",
          "type": "uint256"
        }
      ],
      "stateMutability": "view",
      "type": "function"
    },
    {
      "inputs": [
        {
          "internalType": "address",
          "name": "_depositor",
          "type": "address"
        }
      ],
      "name": "depositWETH",
      "outputs": [
        {
          "internalType": "uint256",
          "name": "",
          "type": "uint256"
        }
      ],
      "stateMutability": "view",
      "type": "function"
    },
    {
      "inputs": [
        {
          "internalType": "uint256",
          "name": "amount_",
          "type": "uint256"
        }
      ],
      "name": "addDeposit",
      "outputs": [],
      "stateMutability": "nonpayable",
      "type": "function"
    },
    {
      "inputs": [],
      "name": "withdrawWETH",
      "outputs": [],
      "stateMutability": "nonpayable",
      "type": "function"
    },
    {
      "inputs": [
        {
          "internalType": "uint256",
          "name": "amount_",
          "type": "uint256"
        }
      ],
      "name": "withdrawWETH",
      "outputs": [],
      "stateMutability": "nonpayable",
      "type": "function"
    },
    {
      "inputs": [],
      "name": "makeBuyOrder",
      "outputs": [],
      "stateMutability": "nonpayable",
      "type": "function"
    },
    {
      "inputs": [],
      "name": "publishToken",
      "outputs": [],
      "stateMutability": "nonpayable",
      "type": "function"
    },
    {
      "inputs": [],
      "name": "sellAsset",
      "outputs": [],
      "stateMutability": "nonpayable",
      "type": "function"
    },
    {
      "inputs": [],
      "name": "redeem",
      "outputs": [],
      "stateMutability": "nonpayable",
      "type": "function"
    },
    {
      "inputs": [],
      "name": "totalSupply",
      "outputs": [
        {
          "internalType": "uint256",
          "name": "",
          "type": "uint256"
        }
      ],
      "stateMutability": "view",
      "type": "function"
    },
    {
      "inputs": [
        {
          "internalType": "address",
          "name": "account_",
          "type": "address"
        }
      ],
      "name": "balanceOf",
      "outputs": [
        {
          "internalType": "uint256",
          "name": "",
          "type": "uint256"
        }
      ],
      "stateMutability": "view",
      "type": "function"
    },
    {
      "inputs": [
        {
          "internalType": "address",
          "name": "owner_",
          "type": "address"
        },
        {
          "internalType": "address",
          "name": "spender_",
          "type": "address"
        }
      ],
      "name": "allowance",
      "outputs": [
        {
          "internalType": "uint256",
          "name": "",
          "type": "uint256"
        }
      ],
      "stateMutability": "view",
      "type": "function"
    },
    {
      "inputs": [
        {
          "internalType": "address",
          "name": "spender_",
          "type": "address"
        },
        {
          "internalType": "uint256",
          "name": "amount_",
          "type": "uint256"
        }
      ],
      "name": "approve",
      "outputs": [
        {
          "internalType": "bool",
          "name": "",
          "type": "bool"
        }
      ],
      "stateMutability": "nonpayable",
      "type": "function"
    },
    {
      "inputs": [
        {
          "internalType": "address",
          "name": "to_",
          "type": "address"
        },
        {
          "internalType": "uint256",
          "name": "amount_",
          "type": "uint256"
        }
      ],
      "name": "transfer",
      "outputs": [
        {
          "internalType": "bool",
          "name": "",
          "type": "bool"
        }
      ],
      "stateMutability": "nonpayable",
      "type": "function"
    },
    {
      "inputs": [
        {
          "internalType": "address",
          "name": "from_",
          "type": "address"
        },
        {
          "internalType": "address",
          "name": "to_",
          "type": "address"
        },
        {
          "internalType": "uint256",
          "name": "amount_",
          "type": "uint256"
        }
      ],
      "name": "transferFrom",
      "outputs": [
        {
          "internalType": "bool",
          "name": "",
          "type": "bool"
        }
      ],
      "stateMutability": "nonpayable",
      "type": "function"
    }
  ],
  "bytecode": "0x60806040523480156200001157600080fd5b50604051620052553803806200525583398181016040528101906200003791906200057e565b818181600390816200004a9190620008b0565b5080600490816200005c9190620008b0565b505050600073ffffffffffffffffffffffffffffffffffffffff168773ffffffffffffffffffffffffffffffffffffffff16036200009957600080fd5b600073ffffffffffffffffffffffffffffffffffffffff168673ffffffffffffffffffffffffffffffffffffffff1603620000d357600080fd5b8442111562000119576040517f08c379a0000000000000000000000000000000000000000000000000000000008152600401620001109062000a1e565b60405180910390fd5b6276a700426200012a919062000a6f565b8511156200016f576040517f08c379a0000000000000000000000000000000000000000000000000000000008152600401620001669062000b20565b60405180910390fd5b83851115620001b5576040517f08c379a0000000000000000000000000000000000000000000000000000000008152600401620001ac9062000bb8565b60405180910390fd5b6276a70085620001c6919062000a6f565b8411156200020b576040517f08c379a0000000000000000000000000000000000000000000000000000000008152600401620002029062000c50565b60405180910390fd5b8285111562000251576040517f08c379a0000000000000000000000000000000000000000000000000000000008152600401620002489062000ce8565b60405180910390fd5b62ed4e008562000262919062000a6f565b831115620002a7576040517f08c379a00000000000000000000000000000000000000000000000000000000081526004016200029e9062000d80565b60405180910390fd5b86600560006101000a81548173ffffffffffffffffffffffffffffffffffffffff021916908373ffffffffffffffffffffffffffffffffffffffff16021790555085600960006101000a81548173ffffffffffffffffffffffffffffffffffffffff021916908373ffffffffffffffffffffffffffffffffffffffff1602179055508460068190555083600781905550826008819055505050505050505062000da2565b6000604051905090565b600080fd5b600080fd5b600073ffffffffffffffffffffffffffffffffffffffff82169050919050565b60006200038c826200035f565b9050919050565b6200039e816200037f565b8114620003aa57600080fd5b50565b600081519050620003be8162000393565b92915050565b6000819050919050565b620003d981620003c4565b8114620003e557600080fd5b50565b600081519050620003f981620003ce565b92915050565b600080fd5b600080fd5b6000601f19601f8301169050919050565b7f4e487b7100000000000000000000000000000000000000000000000000000000600052604160045260246000fd5b620004548262000409565b810181811067ffffffffffffffff821117156200047657620004756200041a565b5b80604052505050565b60006200048b6200034b565b905062000499828262000449565b919050565b600067ffffffffffffffff821115620004bc57620004bb6200041a565b5b620004c78262000409565b9050602081019050919050565b60005b83811015620004f4578082015181840152602081019050620004d7565b60008484015250505050565b60006200051762000511846200049e565b6200047f565b90508281526020810184848401111562000536576200053562000404565b5b62000543848285620004d4565b509392505050565b600082601f830112620005635762000562620003ff565b5b81516200057584826020860162000500565b91505092915050565b600080600080600080600060e0888a031215620005a0576200059f62000355565b5b6000620005b08a828b01620003ad565b9750506020620005c38a828b01620003ad565b9650506040620005d68a828b01620003e8565b9550506060620005e98a828b01620003e8565b9450506080620005fc8a828b01620003e8565b93505060a088015167ffffffffffffffff81111562000620576200061f6200035a565b5b6200062e8a828b016200054b565b92505060c088015167ffffffffffffffff8111156200065257620006516200035a565b5b620006608a828b016200054b565b91505092959891949750929550565b600081519050919050565b7f4e487b7100000000000000000000000000000000000000000000000000000000600052602260045260246000fd5b60006002820490506001821680620006c257607f821691505b602082108103620006d857620006d76200067a565b5b50919050565b60008190508160005260206000209050919050565b60006020601f8301049050919050565b600082821b905092915050565b600060088302620007427fffffffffffffffffffffffffffffffffffffffffffffffffffffffffffffffff8262000703565b6200074e868362000703565b95508019841693508086168417925050509392505050565b6000819050919050565b6000620007916200078b6200078584620003c4565b62000766565b620003c4565b9050919050565b6000819050919050565b620007ad8362000770565b620007c5620007bc8262000798565b84845462000710565b825550505050565b600090565b620007dc620007cd565b620007e9818484620007a2565b505050565b5b81811015620008115762000805600082620007d2565b600181019050620007ef565b5050565b601f82111562000860576200082a81620006de565b6200083584620006f3565b8101602085101562000845578190505b6200085d6200085485620006f3565b830182620007ee565b50505b505050565b600082821c905092915050565b6000620008856000198460080262000865565b1980831691505092915050565b6000620008a0838362000872565b9150826002028217905092915050565b620008bb826200066f565b67ffffffffffffffff811115620008d757620008d66200041a565b5b620008e38254620006a9565b620008f082828562000815565b600060209050601f83116001811462000928576000841562000913578287015190505b6200091f858262000892565b8655506200098f565b601f1984166200093886620006de565b60005b8281101562000962578489015182556001820191506020850194506020810190506200093b565b868310156200098257848901516200097e601f89168262000872565b8355505b6001600288020188555050505b505050505050565b600082825260208201905092915050565b7f4f6666657220636c6f73696e672074696d65206d75737420626520696e20667560008201527f747572652e000000000000000000000000000000000000000000000000000000602082015250565b600062000a0660258362000997565b915062000a1382620009a8565b604082019050919050565b6000602082019050818103600083015262000a3981620009f7565b9050919050565b7f4e487b7100000000000000000000000000000000000000000000000000000000600052601160045260246000fd5b600062000a7c82620003c4565b915062000a8983620003c4565b925082820190508082111562000aa45762000aa362000a40565b5b92915050565b7f4f6666657220636c6f73696e672074696d6520697320746f6f2066757475726560008201527f2e00000000000000000000000000000000000000000000000000000000000000602082015250565b600062000b0860218362000997565b915062000b158262000aaa565b604082019050919050565b6000602082019050818103600083015262000b3b8162000af9565b9050919050565b7f4f726465722065787069726174696f6e206d757374206265206166746572206f60008201527f6666657220636c6f73696e672074696d652e0000000000000000000000000000602082015250565b600062000ba060328362000997565b915062000bad8262000b42565b604082019050919050565b6000602082019050818103600083015262000bd38162000b91565b9050919050565b7f4f726465722065787069726174696f6e20697320746f6f20667574757265206f60008201527f66206f6666657220636c6f73696e672074696d652e0000000000000000000000602082015250565b600062000c3860358362000997565b915062000c458262000bda565b604082019050919050565b6000602082019050818103600083015262000c6b8162000c29565b9050919050565b7f4d61747572697479206d757374206265206166746572206f6666657220636c6f60008201527f73696e672074696d652e00000000000000000000000000000000000000000000602082015250565b600062000cd0602a8362000997565b915062000cdd8262000c72565b604082019050919050565b6000602082019050818103600083015262000d038162000cc1565b9050919050565b7f4d6174757269747920697320746f6f20667574757265206f66206f666665722060008201527f636c6f73696e672074696d652e00000000000000000000000000000000000000602082015250565b600062000d68602d8362000997565b915062000d758262000d0a565b604082019050919050565b6000602082019050818103600083015262000d9b8162000d59565b9050919050565b6144a38062000db26000396000f3fe608060405234801561001057600080fd5b50600436106101735760003560e01c806370a08231116100de578063a6f1fd5111610097578063c19d93fb11610071578063c19d93fb14610406578063dd62ed3e14610424578063ec61ba6214610454578063fc4dd3331461047257610173565b8063a6f1fd51146103b0578063a9059cbb146103cc578063be040fb0146103fc57610173565b806370a08231146102ec5780637119f0981461031c5780637158da7c14610326578063858bffc51461034457806395d89b4114610362578063a457c2d71461038057610173565b80632c4a5b11116101305780632c4a5b111461023c578063313ce5671461025a57806339509351146102785780634c02f62e146102a85780635a9fcd3d146102b25780636c738c89146102e257610173565b806306fdde0314610178578063070b22ee14610196578063095ea7b3146101a057806318160ddd146101d0578063204f83f9146101ee57806323b872dd1461020c575b600080fd5b61018061048e565b60405161018d9190612eaa565b60405180910390f35b61019e610520565b005b6101ba60048036038101906101b59190612f65565b6106f5565b6040516101c79190612fc0565b60405180910390f35b6101d861077f565b6040516101e59190612fea565b60405180910390f35b6101f66107d3565b6040516102039190612fea565b60405180910390f35b61022660048036038101906102219190613005565b6107dd565b6040516102339190612fc0565b60405180910390f35b610244610869565b6040516102519190612fea565b60405180910390f35b6102626108ed565b60405161026f9190613074565b60405180910390f35b610292600480360381019061028d9190612f65565b6108f6565b60405161029f9190612fc0565b60405180910390f35b6102b061092d565b005b6102cc60048036038101906102c7919061308f565b610a45565b6040516102d99190612fea565b60405180910390f35b6102ea610acc565b005b6103066004803603810190610301919061308f565b610c5d565b6040516103139190612fea565b60405180910390f35b610324610cb4565b005b61032e610dfb565b60405161033b91906130cb565b60405180910390f35b61034c610e25565b6040516103599190612fea565b60405180910390f35b61036a610e2f565b6040516103779190612eaa565b60405180910390f35b61039a60048036038101906103959190612f65565b610ec1565b6040516103a79190612fc0565b60405180910390f35b6103ca60048036038101906103c591906130e6565b610f38565b005b6103e660048036038101906103e19190612f65565b611148565b6040516103f39190612fc0565b60405180910390f35b6104046111d2565b005b61040e611528565b60405161041b919061318a565b60405180910390f35b61043e600480360381019061043991906131a5565b61153f565b60405161044b9190612fea565b60405180910390f35b61045c611598565b6040516104699190612fea565b60405180910390f35b61048c600480360381019061048791906130e6565b6115a2565b005b60606003805461049d90613214565b80601f01602080910402602001604051908101604052809291908181526020018280546104c990613214565b80156105165780601f106104eb57610100808354040283529160200191610516565b820191906000526020600020905b8154815290600101906020018083116104f957829003601f168201915b5050505050905090565b6000600581111561053457610533613113565b5b600560149054906101000a900460ff16600581111561055657610555613113565b5b14610596576040517f08c379a000000000000000000000000000000000000000000000000000000000815260040161058d90613291565b60405180910390fd5b4260065411156105db576040517f08c379a00000000000000000000000000000000000000000000000000000000081526004016105d290613323565b60405180910390fd5b600754421061061f576040517f08c379a0000000000000000000000000000000000000000000000000000000008152600401610616906133b5565b60405180910390fd5b6008544210610663576040517f08c379a000000000000000000000000000000000000000000000000000000000815260040161065a90613421565b60405180910390fd5b61066b6116b3565b6000600560149054906101000a900460ff1690506001600560146101000a81548160ff021916908360058111156106a5576106a4613113565b5b02179055507f3a779de46631dd65116ae538600f1bc3c338200c6aef638429b5de43301c28f781600560149054906101000a900460ff166040516106ea929190613441565b60405180910390a150565b60006002600581111561070b5761070a613113565b5b600560149054906101000a900460ff16600581111561072d5761072c613113565b5b1461076d576040517f08c379a0000000000000000000000000000000000000000000000000000000008152600401610764906134dc565b60405180910390fd5b610777838361172b565b905092915050565b60006002600581111561079557610794613113565b5b600560149054906101000a900460ff1660058111156107b7576107b6613113565b5b036107cb576107c461174e565b90506107d0565b600090505b90565b6000600854905090565b6000600260058111156107f3576107f2613113565b5b600560149054906101000a900460ff16600581111561081557610814613113565b5b14610855576040517f08c379a000000000000000000000000000000000000000000000000000000000815260040161084c9061356e565b60405180910390fd5b610860848484611758565b90509392505050565b600080600581111561087e5761087d613113565b5b600560149054906101000a900460ff1660058111156108a05761089f613113565b5b146108e0576040517f08c379a00000000000000000000000000000000000000000000000000000000081526004016108d790613291565b60405180910390fd5b6108e861174e565b905090565b60006012905090565b600080610901611787565b9050610922818585610913858961153f565b61091d91906135bd565b61178f565b600191505092915050565b6000600581111561094157610940613113565b5b600560149054906101000a900460ff16600581111561096357610962613113565b5b146109a3576040517f08c379a000000000000000000000000000000000000000000000000000000000815260040161099a90613291565b60405180910390fd5b60065442106109e7576040517f08c379a00000000000000000000000000000000000000000000000000000000081526004016109de9061363d565b60405180910390fd5b60006109f233611958565b03610a32576040517f08c379a0000000000000000000000000000000000000000000000000000000008152600401610a29906136a9565b60405180910390fd5b610a43610a3e33611958565b6119a0565b565b6000806005811115610a5a57610a59613113565b5b600560149054906101000a900460ff166005811115610a7c57610a7b613113565b5b14610abc576040517f08c379a0000000000000000000000000000000000000000000000000000000008152600401610ab390613291565b60405180910390fd5b610ac582611958565b9050919050565b60026005811115610ae057610adf613113565b5b600560149054906101000a900460ff166005811115610b0257610b01613113565b5b14610b42576040517f08c379a0000000000000000000000000000000000000000000000000000000008152600401610b3990613715565b60405180910390fd5b6008544210610b86576040517f08c379a0000000000000000000000000000000000000000000000000000000008152600401610b7d90613781565b60405180910390fd5b426008541115610bcb576040517f08c379a0000000000000000000000000000000000000000000000000000000008152600401610bc290613813565b60405180910390fd5b610bd3611ba0565b6000600560149054906101000a900460ff1690506003600560146101000a81548160ff02191690836005811115610c0d57610c0c613113565b5b02179055507f3a779de46631dd65116ae538600f1bc3c338200c6aef638429b5de43301c28f781600560149054906101000a900460ff16604051610c52929190613441565b60405180910390a150565b600060026005811115610c7357610c72613113565b5b600560149054906101000a900460ff166005811115610c9557610c94613113565b5b03610caa57610ca382611958565b9050610caf565b600090505b919050565b60016005811115610cc857610cc7613113565b5b600560149054906101000a900460ff166005811115610cea57610ce9613113565b5b14610d2a576040517f08c379a0000000000000000000000000000000000000000000000000000000008152600401610d2190613715565b60405180910390fd5b6007544210610d6e576040517f08c379a0000000000000000000000000000000000000000000000000000000008152600401610d65906133b5565b60405180910390fd5b6008544210610db2576040517f08c379a0000000000000000000000000000000000000000000000000000000008152600401610da990613421565b60405180910390fd5b610dba611ba2565b610df9576040517f08c379a0000000000000000000000000000000000000000000000000000000008152600401610df09061387f565b60405180910390fd5b565b6000600960009054906101000a900473ffffffffffffffffffffffffffffffffffffffff16905090565b6000600654905090565b606060048054610e3e90613214565b80601f0160208091040260200160405190810160405280929190818152602001828054610e6a90613214565b8015610eb75780601f10610e8c57610100808354040283529160200191610eb7565b820191906000526020600020905b815481529060010190602001808311610e9a57829003601f168201915b5050505050905090565b600080610ecc611787565b90506000610eda828661153f565b905083811015610f1f576040517f08c379a0000000000000000000000000000000000000000000000000000000008152600401610f1690613911565b60405180910390fd5b610f2c828686840361178f565b60019250505092915050565b60006005811115610f4c57610f4b613113565b5b600560149054906101000a900460ff166005811115610f6e57610f6d613113565b5b14610fae576040517f08c379a0000000000000000000000000000000000000000000000000000000008152600401610fa590613291565b60405180910390fd5b6006544210610ff2576040517f08c379a0000000000000000000000000000000000000000000000000000000008152600401610fe99061363d565b60405180910390fd5b60008103611035576040517f08c379a000000000000000000000000000000000000000000000000000000000815260040161102c9061397d565b60405180910390fd5b600560009054906101000a900473ffffffffffffffffffffffffffffffffffffffff1673ffffffffffffffffffffffffffffffffffffffff166323b872dd3330846040518463ffffffff1660e01b81526004016110949392919061399d565b6020604051808303816000875af11580156110b3573d6000803e3d6000fd5b505050506040513d601f19601f820116820180604052508101906110d79190613a00565b506110e23382611cc8565b600c339080600181540180825580915050600190039060005260206000200160009091909190916101000a81548173ffffffffffffffffffffffffffffffffffffffff021916908373ffffffffffffffffffffffffffffffffffffffff16021790555050565b60006002600581111561115e5761115d613113565b5b600560149054906101000a900460ff1660058111156111805761117f613113565b5b146111c0576040517f08c379a00000000000000000000000000000000000000000000000000000000081526004016111b79061356e565b60405180910390fd5b6111ca8383611e27565b905092915050565b611216600060058111156111e9576111e8613113565b5b600560149054906101000a900460ff16600581111561120b5761120a613113565b5b144260065410611e4a565b611255576040517f08c379a000000000000000000000000000000000000000000000000000000000815260040161124c90613ac5565b60405180910390fd5b6112996001600581111561126c5761126b613113565b5b600560149054906101000a900460ff16600581111561128e5761128d613113565b5b144260075410611e4a565b6112d8576040517f08c379a00000000000000000000000000000000000000000000000000000000081526004016112cf90613b57565b60405180910390fd5b611319600460058111156112ef576112ee613113565b5b600560149054906101000a900460ff16600581111561131157611310613113565b5b146001611e4a565b61132257600080fd5b6002600581111561133657611335613113565b5b600560149054906101000a900460ff16600581111561135857611357613113565b5b03611398576040517f08c379a000000000000000000000000000000000000000000000000000000000815260040161138f90613be9565b60405180910390fd5b600360058111156113ac576113ab613113565b5b600560149054906101000a900460ff1660058111156113ce576113cd613113565b5b0361140e576040517f08c379a000000000000000000000000000000000000000000000000000000000815260040161140590613c7b565b60405180910390fd5b60058081111561142157611420613113565b5b600560149054906101000a900460ff16600581111561144357611442613113565b5b03611483576040517f08c379a000000000000000000000000000000000000000000000000000000000815260040161147a90613ce7565b60405180910390fd5b6114c76001600581111561149a57611499613113565b5b600560149054906101000a900460ff1660058111156114bc576114bb613113565b5b144260075410611e4a565b156114d5576114d4611e5e565b5b600460058111156114e9576114e8613113565b5b600560149054906101000a900460ff16600581111561150b5761150a613113565b5b0361151d57611518611ed6565b611526565b6115256122fe565b5b565b6000600560149054906101000a900460ff16905090565b60006002600581111561155557611554613113565b5b600560149054906101000a900460ff16600581111561157757611576613113565b5b0361158d5761158683836128a8565b9050611592565b600090505b92915050565b6000600754905090565b600060058111156115b6576115b5613113565b5b600560149054906101000a900460ff1660058111156115d8576115d7613113565b5b14611618576040517f08c379a000000000000000000000000000000000000000000000000000000000815260040161160f90613291565b60405180910390fd5b600654421061165c576040517f08c379a00000000000000000000000000000000000000000000000000000000081526004016116539061363d565b60405180910390fd5b600061166733611958565b036116a7576040517f08c379a000000000000000000000000000000000000000000000000000000000815260040161169e906136a9565b60405180910390fd5b6116b0816119a0565b50565b600060058111156116c7576116c6613113565b5b600560149054906101000a900460ff1660058111156116e9576116e8613113565b5b14611729576040517f08c379a000000000000000000000000000000000000000000000000000000000815260040161172090613291565b60405180910390fd5b565b600080611736611787565b905061174381858561178f565b600191505092915050565b6000600254905090565b600080611763611787565b905061177085828561292f565b61177b8585856129bb565b60019150509392505050565b600033905090565b600073ffffffffffffffffffffffffffffffffffffffff168373ffffffffffffffffffffffffffffffffffffffff16036117fe576040517f08c379a00000000000000000000000000000000000000000000000000000000081526004016117f590613d79565b60405180910390fd5b600073ffffffffffffffffffffffffffffffffffffffff168273ffffffffffffffffffffffffffffffffffffffff160361186d576040517f08c379a000000000000000000000000000000000000000000000000000000000815260040161186490613e0b565b60405180910390fd5b80600160008573ffffffffffffffffffffffffffffffffffffffff1673ffffffffffffffffffffffffffffffffffffffff16815260200190815260200160002060008473ffffffffffffffffffffffffffffffffffffffff1673ffffffffffffffffffffffffffffffffffffffff168152602001908152602001600020819055508173ffffffffffffffffffffffffffffffffffffffff168373ffffffffffffffffffffffffffffffffffffffff167f8c5be1e5ebec7d5bd14f71427d1e84f3dd0314c0f7b2291e5b200ac8c7c3b9258360405161194b9190612fea565b60405180910390a3505050565b60008060008373ffffffffffffffffffffffffffffffffffffffff1673ffffffffffffffffffffffffffffffffffffffff168152602001908152602001600020549050919050565b600060058111156119b4576119b3613113565b5b600560149054906101000a900460ff1660058111156119d6576119d5613113565b5b14611a16576040517f08c379a0000000000000000000000000000000000000000000000000000000008152600401611a0d90613291565b60405180910390fd5b6006544210611a5a576040517f08c379a0000000000000000000000000000000000000000000000000000000008152600401611a519061363d565b60405180910390fd5b6000611a6533611958565b03611aa5576040517f08c379a0000000000000000000000000000000000000000000000000000000008152600401611a9c906136a9565b60405180910390fd5b611aae33611958565b811115611af0576040517f08c379a0000000000000000000000000000000000000000000000000000000008152600401611ae790613e77565b60405180910390fd5b600560009054906101000a900473ffffffffffffffffffffffffffffffffffffffff1673ffffffffffffffffffffffffffffffffffffffff166323b872dd3033846040518463ffffffff1660e01b8152600401611b4f9392919061399d565b6020604051808303816000875af1158015611b6e573d6000803e3d6000fd5b505050506040513d601f19601f82011682018060405250810190611b929190613a00565b50611b9d3382612c3a565b50565b565b600060016005811115611bb857611bb7613113565b5b600560149054906101000a900460ff166005811115611bda57611bd9613113565b5b14611c1a576040517f08c379a0000000000000000000000000000000000000000000000000000000008152600401611c1190613715565b60405180910390fd5b600015611c2a5760009050611cc5565b611c3261174e565b600a819055506000600560149054906101000a900460ff1690506002600560146101000a81548160ff02191690836005811115611c7257611c71613113565b5b02179055507f3a779de46631dd65116ae538600f1bc3c338200c6aef638429b5de43301c28f781600560149054906101000a900460ff16604051611cb7929190613441565b60405180910390a160019150505b90565b600073ffffffffffffffffffffffffffffffffffffffff168273ffffffffffffffffffffffffffffffffffffffff1603611d37576040517f08c379a0000000000000000000000000000000000000000000000000000000008152600401611d2e90613ee3565b60405180910390fd5b611d4360008383612e10565b8060026000828254611d5591906135bd565b92505081905550806000808473ffffffffffffffffffffffffffffffffffffffff1673ffffffffffffffffffffffffffffffffffffffff1681526020019081526020016000206000828254611daa91906135bd565b925050819055508173ffffffffffffffffffffffffffffffffffffffff16600073ffffffffffffffffffffffffffffffffffffffff167fddf252ad1be2c89b69c2b068fc378daa952ba7f163c4a11628f55a4df523b3ef83604051611e0f9190612fea565b60405180910390a3611e2360008383612e15565b5050565b600080611e32611787565b9050611e3f8185856129bb565b600191505092915050565b6000821580611e565750815b905092915050565b60016005811115611e7257611e71613113565b5b600560149054906101000a900460ff166005811115611e9457611e93613113565b5b14611ed4576040517f08c379a0000000000000000000000000000000000000000000000000000000008152600401611ecb90613715565b60405180910390fd5b565b60046005811115611eea57611ee9613113565b5b600560149054906101000a900460ff166005811115611f0c57611f0b613113565b5b14611f4c576040517f08c379a0000000000000000000000000000000000000000000000000000000008152600401611f4390613f4f565b60405180910390fd5b6000600b541480611f6257506000600c80549050145b6122fc576000600c600081548110611f7d57611f7c613f6f565b5b9060005260206000200160009054906101000a900473ffffffffffffffffffffffffffffffffffffffff169050600080600c8054905090506000611fbf61174e565b90506000600b549050600560009054906101000a900473ffffffffffffffffffffffffffffffffffffffff1673ffffffffffffffffffffffffffffffffffffffff166370a08231306040518263ffffffff1660e01b815260040161202391906130cb565b602060405180830381865afa158015612040573d6000803e3d6000fd5b505050506040513d601f19601f820116820180604052508101906120649190613fb3565b81111561207057600080fd5b60005b838110156121cd576000600c828154811061209157612090613f6f565b5b9060005260206000200160009054906101000a900473ffffffffffffffffffffffffffffffffffffffff16905060006120c982611958565b9050600081146121ba57808710156120e2578096508197505b60008582600b546120f39190613fe0565b6120fd9190614051565b9050600560009054906101000a900473ffffffffffffffffffffffffffffffffffffffff1673ffffffffffffffffffffffffffffffffffffffff1663a9059cbb84836040518363ffffffff1660e01b815260040161215c929190614082565b6020604051808303816000875af115801561217b573d6000803e3d6000fd5b505050506040513d601f19601f8201168201806040525081019061219f9190613a00565b5080856121ac91906140ab565b94506121b88383612c3a565b505b5050806121c6906140df565b9050612073565b50600560009054906101000a900473ffffffffffffffffffffffffffffffffffffffff1673ffffffffffffffffffffffffffffffffffffffff1663a9059cbb86836040518363ffffffff1660e01b815260040161222b929190614082565b6020604051808303816000875af115801561224a573d6000803e3d6000fd5b505050506040513d601f19601f8201168201806040525081019061226e9190613a00565b506000600560149054906101000a900460ff16905060058060146101000a81548160ff021916908360058111156122a8576122a7613113565b5b02179055507f3a779de46631dd65116ae538600f1bc3c338200c6aef638429b5de43301c28f781600560149054906101000a900460ff166040516122ed929190613441565b60405180910390a15050505050505b565b6123426000600581111561231557612314613113565b5b600560149054906101000a900460ff16600581111561233757612336613113565b5b144260065410611e4a565b612381576040517f08c379a000000000000000000000000000000000000000000000000000000000815260040161237890613ac5565b60405180910390fd5b6123c56001600581111561239857612397613113565b5b600560149054906101000a900460ff1660058111156123ba576123b9613113565b5b144260075410611e4a565b612404576040517f08c379a00000000000000000000000000000000000000000000000000000000081526004016123fb90613b57565b60405180910390fd5b6124456004600581111561241b5761241a613113565b5b600560149054906101000a900460ff16600581111561243d5761243c613113565b5b146001611e4a565b61244e57600080fd5b6002600581111561246257612461613113565b5b600560149054906101000a900460ff16600581111561248457612483613113565b5b036124c4576040517f08c379a00000000000000000000000000000000000000000000000000000000081526004016124bb90613be9565b60405180910390fd5b600360058111156124d8576124d7613113565b5b600560149054906101000a900460ff1660058111156124fa576124f9613113565b5b0361253a576040517f08c379a000000000000000000000000000000000000000000000000000000000815260040161253190613c7b565b60405180910390fd5b60058081111561254d5761254c613113565b5b600560149054906101000a900460ff16600581111561256f5761256e613113565b5b036125af576040517f08c379a00000000000000000000000000000000000000000000000000000000081526004016125a690613ce7565b60405180910390fd5b600060058111156125c3576125c2613113565b5b600560149054906101000a900460ff1660058111156125e5576125e4613113565b5b1480612624575060016005811115612600576125ff613113565b5b600560149054906101000a900460ff16600581111561262257612621613113565b5b145b61262d57600080fd5b6000600b54148061264357506000600c80549050145b6128a657600560009054906101000a900473ffffffffffffffffffffffffffffffffffffffff1673ffffffffffffffffffffffffffffffffffffffff166370a08231306040518263ffffffff1660e01b81526004016126a291906130cb565b602060405180830381865afa1580156126bf573d6000803e3d6000fd5b505050506040513d601f19601f820116820180604052508101906126e39190613fb3565b6126eb61174e565b11156126f657600080fd5b60005b600c8054905081101561281d576000600c828154811061271c5761271b613f6f565b5b9060005260206000200160009054906101000a900473ffffffffffffffffffffffffffffffffffffffff169050600061275482611958565b90506000811461280a57600560009054906101000a900473ffffffffffffffffffffffffffffffffffffffff1673ffffffffffffffffffffffffffffffffffffffff1663a9059cbb83836040518363ffffffff1660e01b81526004016127bb929190614082565b6020604051808303816000875af11580156127da573d6000803e3d6000fd5b505050506040513d601f19601f820116820180604052508101906127fe9190613a00565b506128098282612c3a565b5b505080612816906140df565b90506126f9565b506000600560149054906101000a900460ff16905060058060146101000a81548160ff0219169083600581111561285757612856613113565b5b02179055507f3a779de46631dd65116ae538600f1bc3c338200c6aef638429b5de43301c28f781600560149054906101000a900460ff1660405161289c929190613441565b60405180910390a1505b565b6000600160008473ffffffffffffffffffffffffffffffffffffffff1673ffffffffffffffffffffffffffffffffffffffff16815260200190815260200160002060008373ffffffffffffffffffffffffffffffffffffffff1673ffffffffffffffffffffffffffffffffffffffff16815260200190815260200160002054905092915050565b600061293b848461153f565b90507fffffffffffffffffffffffffffffffffffffffffffffffffffffffffffffffff81146129b557818110156129a7576040517f08c379a000000000000000000000000000000000000000000000000000000000815260040161299e90614173565b60405180910390fd5b6129b4848484840361178f565b5b50505050565b600073ffffffffffffffffffffffffffffffffffffffff168373ffffffffffffffffffffffffffffffffffffffff1603612a2a576040517f08c379a0000000000000000000000000000000000000000000000000000000008152600401612a2190614205565b60405180910390fd5b600073ffffffffffffffffffffffffffffffffffffffff168273ffffffffffffffffffffffffffffffffffffffff1603612a99576040517f08c379a0000000000000000000000000000000000000000000000000000000008152600401612a9090614297565b60405180910390fd5b612aa4838383612e10565b60008060008573ffffffffffffffffffffffffffffffffffffffff1673ffffffffffffffffffffffffffffffffffffffff16815260200190815260200160002054905081811015612b2a576040517f08c379a0000000000000000000000000000000000000000000000000000000008152600401612b2190614329565b60405180910390fd5b8181036000808673ffffffffffffffffffffffffffffffffffffffff1673ffffffffffffffffffffffffffffffffffffffff16815260200190815260200160002081905550816000808573ffffffffffffffffffffffffffffffffffffffff1673ffffffffffffffffffffffffffffffffffffffff1681526020019081526020016000206000828254612bbd91906135bd565b925050819055508273ffffffffffffffffffffffffffffffffffffffff168473ffffffffffffffffffffffffffffffffffffffff167fddf252ad1be2c89b69c2b068fc378daa952ba7f163c4a11628f55a4df523b3ef84604051612c219190612fea565b60405180910390a3612c34848484612e15565b50505050565b600073ffffffffffffffffffffffffffffffffffffffff168273ffffffffffffffffffffffffffffffffffffffff1603612ca9576040517f08c379a0000000000000000000000000000000000000000000000000000000008152600401612ca0906143bb565b60405180910390fd5b612cb582600083612e10565b60008060008473ffffffffffffffffffffffffffffffffffffffff1673ffffffffffffffffffffffffffffffffffffffff16815260200190815260200160002054905081811015612d3b576040517f08c379a0000000000000000000000000000000000000000000000000000000008152600401612d329061444d565b60405180910390fd5b8181036000808573ffffffffffffffffffffffffffffffffffffffff1673ffffffffffffffffffffffffffffffffffffffff168152602001908152602001600020819055508160026000828254612d9291906140ab565b92505081905550600073ffffffffffffffffffffffffffffffffffffffff168373ffffffffffffffffffffffffffffffffffffffff167fddf252ad1be2c89b69c2b068fc378daa952ba7f163c4a11628f55a4df523b3ef84604051612df79190612fea565b60405180910390a3612e0b83600084612e15565b505050565b505050565b505050565b600081519050919050565b600082825260208201905092915050565b60005b83811015612e54578082015181840152602081019050612e39565b60008484015250505050565b6000601f19601f8301169050919050565b6000612e7c82612e1a565b612e868185612e25565b9350612e96818560208601612e36565b612e9f81612e60565b840191505092915050565b60006020820190508181036000830152612ec48184612e71565b905092915050565b600080fd5b600073ffffffffffffffffffffffffffffffffffffffff82169050919050565b6000612efc82612ed1565b9050919050565b612f0c81612ef1565b8114612f1757600080fd5b50565b600081359050612f2981612f03565b92915050565b6000819050919050565b612f4281612f2f565b8114612f4d57600080fd5b50565b600081359050612f5f81612f39565b92915050565b60008060408385031215612f7c57612f7b612ecc565b5b6000612f8a85828601612f1a565b9250506020612f9b85828601612f50565b9150509250929050565b60008115159050919050565b612fba81612fa5565b82525050565b6000602082019050612fd56000830184612fb1565b92915050565b612fe481612f2f565b82525050565b6000602082019050612fff6000830184612fdb565b92915050565b60008060006060848603121561301e5761301d612ecc565b5b600061302c86828701612f1a565b935050602061303d86828701612f1a565b925050604061304e86828701612f50565b9150509250925092565b600060ff82169050919050565b61306e81613058565b82525050565b60006020820190506130896000830184613065565b92915050565b6000602082840312156130a5576130a4612ecc565b5b60006130b384828501612f1a565b91505092915050565b6130c581612ef1565b82525050565b60006020820190506130e060008301846130bc565b92915050565b6000602082840312156130fc576130fb612ecc565b5b600061310a84828501612f50565b91505092915050565b7f4e487b7100000000000000000000000000000000000000000000000000000000600052602160045260246000fd5b6006811061315357613152613113565b5b50565b600081905061316482613142565b919050565b600061317482613156565b9050919050565b61318481613169565b82525050565b600060208201905061319f600083018461317b565b92915050565b600080604083850312156131bc576131bb612ecc565b5b60006131ca85828601612f1a565b92505060206131db85828601612f1a565b9150509250929050565b7f4e487b7100000000000000000000000000000000000000000000000000000000600052602260045260246000fd5b6000600282049050600182168061322c57607f821691505b60208210810361323f5761323e6131e5565b5b50919050565b7f417661696c61626c65206f6e6c79207768656e206f66666572696e6700000000600082015250565b600061327b601c83612e25565b915061328682613245565b602082019050919050565b600060208201905081810360008301526132aa8161326e565b9050919050565b7f43616e206e6f74206d616b6520627579206f66666572206265666f7265206f6660008201527f6665722d636c6f73696e672d74696d6500000000000000000000000000000000602082015250565b600061330d603083612e25565b9150613318826132b1565b604082019050919050565b6000602082019050818103600083015261333c81613300565b9050919050565b7f4f726465722065787069726174696f6e20697320616c7265616479207061737360008201527f65642e0000000000000000000000000000000000000000000000000000000000602082015250565b600061339f602383612e25565b91506133aa82613343565b604082019050919050565b600060208201905081810360008301526133ce81613392565b9050919050565b7f4d6174757269747920697320616c7265616479207061737365642e0000000000600082015250565b600061340b601b83612e25565b9150613416826133d5565b602082019050919050565b6000602082019050818103600083015261343a816133fe565b9050919050565b6000604082019050613456600083018561317b565b613463602083018461317b565b9392505050565b7f417070726f766520697320617661696c61626c65206f6e6c7920756e6465722060008201527f4173736574486f6c64696e672073746174650000000000000000000000000000602082015250565b60006134c6603283612e25565b91506134d18261346a565b604082019050919050565b600060208201905081810360008301526134f5816134b9565b9050919050565b7f5472616e7366657220697320617661696c61626c65206f6e6c7920756e64657260008201527f204173736574486f6c64696e6720737461746500000000000000000000000000602082015250565b6000613558603383612e25565b9150613563826134fc565b604082019050919050565b600060208201905081810360008301526135878161354b565b9050919050565b7f4e487b7100000000000000000000000000000000000000000000000000000000600052601160045260246000fd5b60006135c882612f2f565b91506135d383612f2f565b92508282019050808211156135eb576135ea61358e565b5b92915050565b7f4f6666657220706572696f6420616c726561647920656e646564000000000000600082015250565b6000613627601a83612e25565b9150613632826135f1565b602082019050919050565b600060208201905081810360008301526136568161361a565b9050919050565b7f4f6e6c79206465706f7369746f722063616e2063616c6c2e0000000000000000600082015250565b6000613693601883612e25565b915061369e8261365d565b602082019050919050565b600060208201905081810360008301526136c281613686565b9050919050565b7f417661696c61626c65206f6e6c79207768656e206f72646572696e6700000000600082015250565b60006136ff601c83612e25565b915061370a826136c9565b602082019050919050565b6000602082019050818103600083015261372e816136f2565b9050919050565b7f5468697320736368656d652072656163686573206d617475726974792e000000600082015250565b600061376b601d83612e25565b915061377682613735565b602082019050919050565b6000602082019050818103600083015261379a8161375e565b9050919050565b7f53656c6c696e6720617373657420697320617661696c61626c65206f6e6c792060008201527f6166746572206d617475726974792e0000000000000000000000000000000000602082015250565b60006137fd602f83612e25565b9150613808826137a1565b604082019050919050565b6000602082019050818103600083015261382c816137f0565b9050919050565b7f4f72646572206973206e6f74206d617463686564207965740000000000000000600082015250565b6000613869601883612e25565b915061387482613833565b602082019050919050565b600060208201905081810360008301526138988161385c565b9050919050565b7f45524332303a2064656372656173656420616c6c6f77616e63652062656c6f7760008201527f207a65726f000000000000000000000000000000000000000000000000000000602082015250565b60006138fb602583612e25565b91506139068261389f565b604082019050919050565b6000602082019050818103600083015261392a816138ee565b9050919050565b7f4465706f73697420616d6f756e74206d75737420626520706f7369746976652e600082015250565b6000613967602083612e25565b915061397282613931565b602082019050919050565b600060208201905081810360008301526139968161395a565b9050919050565b60006060820190506139b260008301866130bc565b6139bf60208301856130bc565b6139cc6040830184612fdb565b949350505050565b6139dd81612fa5565b81146139e857600080fd5b50565b6000815190506139fa816139d4565b92915050565b600060208284031215613a1657613a15612ecc565b5b6000613a24848285016139eb565b91505092915050565b7f4f66666572696e6720737461746520636f6e747261637420697320726564656560008201527f6d61626c65206f6e6c79206166746572206f6666657220636c6f73696e67207460208201527f696d652e00000000000000000000000000000000000000000000000000000000604082015250565b6000613aaf604483612e25565b9150613aba82613a2d565b606082019050919050565b60006020820190508181036000830152613ade81613aa2565b9050919050565b7f4f72646572696e6720737461746520636f6e747261637420697320726564656560008201527f6d61626c65206f6e6c79206166746572206f72646572206578706972792e0000602082015250565b6000613b41603e83612e25565b9150613b4c82613ae5565b604082019050919050565b60006020820190508181036000830152613b7081613b34565b9050919050565b7f43616e206e6f742072656465656d206265666f72652073656c6c696e6720617360008201527f7365742e00000000000000000000000000000000000000000000000000000000602082015250565b6000613bd3602483612e25565b9150613bde82613b77565b604082019050919050565b60006020820190508181036000830152613c0281613bc6565b9050919050565b7f43616e206e6f742072656465656d206265666f726520636f6d706c6574696e6760008201527f2073656c6c696e672061737365742e0000000000000000000000000000000000602082015250565b6000613c65602f83612e25565b9150613c7082613c09565b604082019050919050565b60006020820190508181036000830152613c9481613c58565b9050919050565b7f416c72656164792072656465656d65642e000000000000000000000000000000600082015250565b6000613cd1601183612e25565b9150613cdc82613c9b565b602082019050919050565b60006020820190508181036000830152613d0081613cc4565b9050919050565b7f45524332303a20617070726f76652066726f6d20746865207a65726f2061646460008201527f7265737300000000000000000000000000000000000000000000000000000000602082015250565b6000613d63602483612e25565b9150613d6e82613d07565b604082019050919050565b60006020820190508181036000830152613d9281613d56565b9050919050565b7f45524332303a20617070726f766520746f20746865207a65726f20616464726560008201527f7373000000000000000000000000000000000000000000000000000000000000602082015250565b6000613df5602283612e25565b9150613e0082613d99565b604082019050919050565b60006020820190508181036000830152613e2481613de8565b9050919050565b7f4c61636b206f66206465706f73697420616d6f756e742e000000000000000000600082015250565b6000613e61601783612e25565b9150613e6c82613e2b565b602082019050919050565b60006020820190508181036000830152613e9081613e54565b9050919050565b7f45524332303a206d696e7420746f20746865207a65726f206164647265737300600082015250565b6000613ecd601f83612e25565b9150613ed882613e97565b602082019050919050565b60006020820190508181036000830152613efc81613ec0565b9050919050565b7f417661696c61626c65206f6e6c79207768656e20617373657420736f6c642e00600082015250565b6000613f39601f83612e25565b9150613f4482613f03565b602082019050919050565b60006020820190508181036000830152613f6881613f2c565b9050919050565b7f4e487b7100000000000000000000000000000000000000000000000000000000600052603260045260246000fd5b600081519050613fad81612f39565b92915050565b600060208284031215613fc957613fc8612ecc565b5b6000613fd784828501613f9e565b91505092915050565b6000613feb82612f2f565b9150613ff683612f2f565b925082820261400481612f2f565b9150828204841483151761401b5761401a61358e565b5b5092915050565b7f4e487b7100000000000000000000000000000000000000000000000000000000600052601260045260246000fd5b600061405c82612f2f565b915061406783612f2f565b92508261407757614076614022565b5b828204905092915050565b600060408201905061409760008301856130bc565b6140a46020830184612fdb565b9392505050565b60006140b682612f2f565b91506140c183612f2f565b92508282039050818111156140d9576140d861358e565b5b92915050565b60006140ea82612f2f565b91507fffffffffffffffffffffffffffffffffffffffffffffffffffffffffffffffff820361411c5761411b61358e565b5b600182019050919050565b7f45524332303a20696e73756666696369656e7420616c6c6f77616e6365000000600082015250565b600061415d601d83612e25565b915061416882614127565b602082019050919050565b6000602082019050818103600083015261418c81614150565b9050919050565b7f45524332303a207472616e736665722066726f6d20746865207a65726f20616460008201527f6472657373000000000000000000000000000000000000000000000000000000602082015250565b60006141ef602583612e25565b91506141fa82614193565b604082019050919050565b6000602082019050818103600083015261421e816141e2565b9050919050565b7f45524332303a207472616e7366657220746f20746865207a65726f206164647260008201527f6573730000000000000000000000000000000000000000000000000000000000602082015250565b6000614281602383612e25565b915061428c82614225565b604082019050919050565b600060208201905081810360008301526142b081614274565b9050919050565b7f45524332303a207472616e7366657220616d6f756e742065786365656473206260008201527f616c616e63650000000000000000000000000000000000000000000000000000602082015250565b6000614313602683612e25565b915061431e826142b7565b604082019050919050565b6000602082019050818103600083015261434281614306565b9050919050565b7f45524332303a206275726e2066726f6d20746865207a65726f2061646472657360008201527f7300000000000000000000000000000000000000000000000000000000000000602082015250565b60006143a5602183612e25565b91506143b082614349565b604082019050919050565b600060208201905081810360008301526143d481614398565b9050919050565b7f45524332303a206275726e20616d6f756e7420657863656564732062616c616e60008201527f6365000000000000000000000000000000000000000000000000000000000000602082015250565b6000614437602283612e25565b9150614442826143db565b604082019050919050565b600060208201905081810360008301526144668161442a565b905091905056fea26469706673582212200f3fb91e868bba93a66ad9c8450b111146de3fb207dca24cb17e064ef79c487c64736f6c63430008110033",
  "immutableReferences": {},
  "source": "// SPDX-License-Identifier: MIT\npragma solidity ^0.8.17;\n\nimport \"@openzeppelin/contracts/utils/math/SafeMath.sol\";\nimport \"@openzeppelin/contracts/token/ERC20/ERC20.sol\";\n\ncontract CollectiveInvestmentSchemeV2 is ERC20 {\n    // using \n    using SafeMath for uint;\n\n    // enums\n    enum State { Offering, Ordering, AssetHolding, AssetSelling, AssetSold, Closed }\n\n    // events\n    event StateTransition(State from, State to);\n\n    // external contracts\n    ERC20 private _WETHcontract;    // how to control this safely...?\n\n    // --- vvv fields vvv ---\n    // scheme info\n    State private _state;\n    uint private _offerClosingTime;\n    uint private _orderExpiration;\n    uint private _maturity;\n    address private _underlyingAsset; // this must be hidden in some manner...\n\n    // execution result\n    uint private _purchasePrice;\n    uint private _soldPrice;\n\n    // deposit info\n    address[] private _depositors;\n\n    // --- ^^^ fields ^^^ --- \n\n    // modifiers\n    modifier onlyOffering() {\n        require(_state == State.Offering, \"Available only when offering\");\n        _;\n    }\n    modifier beforeOfferClose() {\n        require(block.timestamp < _offerClosingTime, \"Offer period already ended\");\n        _;\n    }\n    modifier onlyOrdering() {\n        require(_state == State.Ordering, \"Available only when ordering\");\n        _;\n    }\n    modifier onlyAssetHolding() {\n        require(_state == State.AssetHolding, \"Available only when ordering\");\n        require(block.timestamp < _maturity, \"This scheme reaches maturity.\");\n        _;\n    }\n    modifier onlyAssetSelling() {\n        require(_state == State.AssetSelling, \"Available only when asset selling.\");\n        _;\n    }\n    modifier onlyAssetSold() {\n        require(_state == State.AssetSold, \"Available only when asset sold.\");\n        _;\n    }\n    modifier onlyDepositor() {\n        require(super.balanceOf(msg.sender) != 0, \"Only depositor can call.\");\n        _;\n    }\n\n    constructor(\n        address WETHcontractAddress_,\n        address underlyingAsset_,\n        uint offerClosingTime_,\n        uint orderExpiration_,\n        uint maturity_,\n        string memory tokanName_,\n        string memory tokenSymbol_\n    )\n        ERC20(tokanName_, tokenSymbol_)\n    {\n        require(WETHcontractAddress_ != address(0));\n        require(underlyingAsset_ != address(0));\n        require(block.timestamp <= offerClosingTime_, \"Offer closing time must be in future.\");\n        require(offerClosingTime_ <= block.timestamp + 90 days , \"Offer closing time is too future.\");\n        require(offerClosingTime_ <= orderExpiration_, \"Order expiration must be after offer closing time.\");\n        require(orderExpiration_ <= offerClosingTime_ + 90 days, \"Order expiration is too future of offer closing time.\");\n        require(offerClosingTime_ <= maturity_, \"Maturity must be after offer closing time.\");\n        require(maturity_ <= offerClosingTime_ + 180 days, \"Maturity is too future of offer closing time.\");\n        _WETHcontract = ERC20(WETHcontractAddress_);\n        _underlyingAsset = underlyingAsset_;\n        _offerClosingTime = offerClosingTime_;\n        _orderExpiration = orderExpiration_;\n        _maturity = maturity_;\n    }\n\n    // [getters] ---------------------------------------------------------------\n    \n    /**\n     * @dev State of this contract, which is either of\n     * { Offering, Ordering, AssetHolding, AssetSelling, AssetSold, Closed }\n     *\n     *  - Offering: Investor can deposit tokens into this contract\n     *  - Ordering: Trying to buy an asset\n     *  - AssetHolding: Order is success and token of this contract is published.\n     *  - AssetSelling: Token transfer is stopped. Trying to sell the asset\n     *  - AssetSold: Asset is sold. It is prepared to refund.\n     *  - Closed: This contract(fund) is closed.\n     *\n     * State transitions:\n     *  Offering --> Ordering --> AssetHolding --> AssetSelling --> AssetSold --> Closed\n     *      |            |                                                           A\n     *      v            v                                                           |\n     *      --------------------------------------------------------------------------\n     *    \n     */\n    function state() external view returns(State) {\n        return _state;\n    }\n    /**\n     * @dev A limit time when investors deposit their WETH tokens\n     */\n    function offerClosingTime() external view returns(uint) {\n        return _offerClosingTime;\n    }\n    /**\n     * @dev An expiration time of an order on the market \n     */\n    function orderExpiration() external view returns(uint) {\n        return _orderExpiration;\n    }\n    /**\n     * @dev Maturity of this contract. After this, an asset is tried to sell.\n     * (In this sence, 'maturity' may not be suitable.)\n     */\n    function maturity() external view returns(uint) {\n        return _maturity;\n    }\n    /**\n     * @dev An address of underlying asset to be invested.\n     */\n    function underlyingAsset() external view returns(address) {\n        return _underlyingAsset;\n    }\n\n    /**\n     * @dev ERC20.totalSupply() is used as accumulated deposit under Offering state.\n     */\n    function totalDepositWETH() external view onlyOffering returns(uint) {\n        return super.totalSupply();\n    }\n    /**\n     * @dev ERC20.balanceOf(_depositor) is used as deposit of _depositor under Offering state.\n     */\n    function depositWETH(address _depositor) external view onlyOffering returns(uint) {\n        return super.balanceOf(_depositor);\n    }\n    \n    // [setters] ---------------------------------------------------------------\n\n    /**\n     * @dev Deposit WETH into this contract with this method.\n     * posted amount is stored as token amount of ERC20.\n     */\n    function addDeposit(uint amount_) external onlyOffering beforeOfferClose {\n        require(amount_ != 0, \"Deposit amount must be positive.\");\n        _WETHcontract.transferFrom(msg.sender, address(this), amount_);\n        super._mint(msg.sender, amount_);\n        _depositors.push(msg.sender);\n    }\n    /**\n     * @dev Implementation of withdraw methods.\n     * withdrawn amount burns tokens of ERC20.\n     */\n    function _withdraw(uint amount_) private onlyOffering beforeOfferClose onlyDepositor {\n        // transfer weth from this contract to msg.sender\n        require(amount_ <= super.balanceOf(msg.sender), \"Lack of deposit amount.\");\n        _WETHcontract.transferFrom(address(this), msg.sender, amount_);\n        super._burn(msg.sender, amount_);\n    }\n    /**\n     * @dev Withdraw WETH from this contract with this method.\n     */\n    function withdrawWETH(uint amount_) external onlyOffering beforeOfferClose onlyDepositor {\n        _withdraw(amount_);\n    }\n    /**\n     * @dev Withdraw all WETH from this contract.\n     */\n    function withdrawWETH() external onlyOffering beforeOfferClose onlyDepositor {\n        _withdraw(super.balanceOf(msg.sender));\n    }\n\n    // [state transition] ordering ---------------------------------------------\n\n    /**\n     * @dev Implementation of making buy order.\n     * TODO: Implement this. (or consider more sophisticated stragegy...)\n     */\n    function _makeBuyOrder() private onlyOffering {\n        // future work\n    }\n    /**\n     * @dev Cancel buy order\n     * TODO: Implement this. (or consider more sophisticated stragegy...)\n     */\n    function _cancelBuyOrder() private onlyOrdering {\n        // future work\n    }\n    /**\n     * @dev Make a buy order of an asset.\n     * after making an order, state of this contract becomes Ordering.\n     */\n    function makeBuyOrder() external onlyOffering {\n        require(_offerClosingTime <= block.timestamp, \"Can not make buy offer before offer-closing-time\");\n        require(block.timestamp < _orderExpiration, \"Order expiration is already passed.\");\n        require(block.timestamp < _maturity, \"Maturity is already passed.\");\n        _makeBuyOrder();\n        State originalState = _state;\n        _state = State.Ordering;\n        emit StateTransition(originalState, _state);\n    }\n\n    // [state transition] publish token ----------------------------------------\n\n    /**\n     * @dev Check if the buy order matches or not.\n     * if order matched, change state into AssetHolding\n     */\n    function _checkPurchased() private onlyOrdering returns(bool) {\n        if (false) {\n            // when order is not matched.\n            return false;\n        }\n        _purchasePrice = super.totalSupply();\n        State originalState = _state;\n        _state = State.AssetHolding;\n        emit StateTransition(originalState, _state);\n        return true;\n    }\n    /**\n     * @dev Publish token.\n     * in this contract, 'publish token' is implement just an state transition.\n     * (_checkPurchased method may update state)\n     * see IERC20 behavior of this contract.\n     */\n    function publishToken() external onlyOrdering {\n        require(block.timestamp < _orderExpiration, \"Order expiration is already passed.\");\n        require(block.timestamp < _maturity, \"Maturity is already passed.\");\n        require(_checkPurchased(), \"Order is not matched yet\");\n    }\n\n    // sell asset [state transition] -------------------------------------------\n\n    /**\n     * @dev Implementation of making sell order.\n     * TODO: Implement this. but to do so, we need to consider how to control sell price.\n     */\n    function _makeSellOrder() private {\n        // future work\n    }\n    /**\n     * @dev Cancel sell order\n     * TODO: Implement this. (or consider more sophisticated stragegy...)\n     */\n    function _cancellSellOrder() private {\n        // future work\n    }\n    /**\n     * @dev Make an sell order of underlying asset. this method is available only after 'maturity'.\n     * after this method, state of this contract becomes AssetSelling. \n     */\n    function sellAsset() external onlyAssetHolding {\n        require(_maturity <= block.timestamp, \"Selling asset is available only after maturity.\");\n        _makeSellOrder();\n        State originalState = _state;\n        _state = State.AssetSelling;\n        emit StateTransition(originalState, _state);\n    }\n\n    // [state transition] redeem -----------------------------------------------\n\n    /**\n     * @dev Check if the sell order matches or not.\n     * if order matched, change state into AssetSold\n     */    \n    function _checkSold() internal onlyAssetSelling returns(bool) {\n        if (false) {\n            // when order is not matched.\n            return false;\n        }\n        _soldPrice = super.totalSupply();\n        State originalState = _state;\n        _state = State.AssetSold;\n        emit StateTransition(originalState, _state);\n        return true;\n    }\n    /**\n     * @dev proposition X => Y (if X then Y)\n     */\n    function _ifThen(bool x, bool y) private pure returns(bool) {\n        return !x || y;\n    }\n    modifier onlyRedeemable() {\n        require(_ifThen(_state == State.Offering, _offerClosingTime < block.timestamp), \"Offering state contract is redeemable only after offer closing time.\");\n        require(_ifThen(_state == State.Ordering, _orderExpiration < block.timestamp), \"Ordering state contract is redeemable only after order expiry.\");\n        require(_ifThen(_state == State.AssetSold, true));  // always true. exposition only\n        require(_state != State.AssetHolding, \"Can not redeem before selling asset.\");\n        require(_state != State.AssetSelling, \"Can not redeem before completing selling asset.\");\n        require(_state != State.Closed, \"Already redeemed.\");\n        _;\n    }\n    /**\n     * @dev Implementation of refund.\n     * sold price is distributed for investors.\n     * when some WETH is remained, it will be returned to max-token-holder.\n     * after redeemed, state becomes Closed.\n     */\n    function _refundAfterAssetSold() private onlyAssetSold {\n        if (_soldPrice == 0 || _depositors.length == 0) {\n            // unfortunately, underlying-asset is sold by 0 weth...\n            // hence, refunding is not occured...\n            return;\n        }\n        address maxTokenHolder = _depositors[0];\n        uint maxToken = 0;\n        uint nDepositors = _depositors.length;\n\n        // copy totalSupply of token because tokens will be burned and totalSupply will also change. \n        uint totalWETH = super.totalSupply();\n        uint heldWETH = _soldPrice;\n        require(heldWETH <= _WETHcontract.balanceOf(address(this)));\n        for (uint i=0; i<nDepositors; ++i) {\n            address depositor = _depositors[i];\n            uint balance = super.balanceOf(depositor);\n            if (balance != 0) {\n                if (maxToken < balance) {\n                    maxToken = balance;\n                    maxTokenHolder = depositor;\n                }\n                uint refundAmount = (_soldPrice * balance) / totalWETH;\n                _WETHcontract.transfer(depositor, refundAmount);\n                heldWETH -= refundAmount;\n                super._burn(depositor, balance);\n            }\n        }\n        // max token holder gets remained WETH\n        _WETHcontract.transfer(maxTokenHolder, heldWETH);\n\n        State originalState = _state;\n        _state = State.Closed;\n        emit StateTransition(originalState, _state);\n    }\n    /**\n     * @dev Implementation of refund.\n     * this method is expected to be called before asset buying.\n     * in this case, ERC20.totalSupply() is equivalent to sum of deposit of investors.\n     * after redeemed, state becomes Closed.\n     */\n    function _refundAfterBeforeAssetHolding() private onlyRedeemable {\n        require(_state == State.Offering || _state == State.Ordering);\n\n        if (_soldPrice == 0 || _depositors.length == 0) {\n            // unfortunately, underlying-asset is sold by 0 weth...\n            // hence, refunding is not occured...\n            return;\n        }\n        require(super.totalSupply() <= _WETHcontract.balanceOf(address(this)));\n        for (uint i=0; i<_depositors.length; ++i) {\n            address depositor = _depositors[i];\n            uint balance = super.balanceOf(depositor);\n            if (balance != 0) {\n                _WETHcontract.transfer(depositor, balance);\n                super._burn(depositor, balance);\n            }\n        }\n        State originalState = _state;\n        _state = State.Closed;\n        emit StateTransition(originalState, _state);\n    }\n    /**\n     * @dev Redeem.\n     * When asset is bought and sold, sold price is shared by investors.\n     * When asset is not bought, deposits are returned.\n     */\n    function redeem() external onlyRedeemable {\n        if (_ifThen(_state == State.Ordering, _orderExpiration < block.timestamp)) {\n            _cancelBuyOrder();\n        }\n        if (_state == State.AssetSold) {\n            _refundAfterAssetSold();\n        }\n        else {\n            _refundAfterBeforeAssetHolding();\n        }\n    }\n\n\n    // [IERC20] The followings make sence only when AssetHolding state ---------\n    function totalSupply() public view override returns (uint256) {\n        if (_state == State.AssetHolding) {\n            return super.totalSupply();\n        }\n        else {\n            return 0;\n        }\n    }\n    function balanceOf(address account_) public view override returns (uint256) {\n        if (_state == State.AssetHolding) {\n            return super.balanceOf(account_);\n        }\n        else {\n            return 0;\n        }\n    }\n    function allowance(address owner_, address spender_) public view override returns (uint256) {\n        if (_state == State.AssetHolding) {\n            return super.allowance(owner_, spender_);\n        }\n        else {\n            return 0;\n        }\n    }\n    function approve(address spender_, uint256 amount_) public override returns (bool) {\n        require(_state == State.AssetHolding, \"Approve is available only under AssetHolding state\");\n        return super.approve(spender_, amount_);\n    }\n    function transfer(address to_, uint256 amount_) public override returns (bool) {\n        require(_state == State.AssetHolding, \"Transfer is available only under AssetHolding state\");\n        return super.transfer(to_, amount_);\n    }\n    function transferFrom(address from_, address to_, uint amount_) public override returns (bool) {\n        require(_state == State.AssetHolding, \"Transfer is available only under AssetHolding state\");\n        return super.transferFrom(from_, to_, amount_);\n    }    \n}\n",
  "sourcePath": "C:\\ws\\dfund\\contracts\\contracts\\CollectiveInvestmentScheme.v2.sol",
  "compiler": {
    "name": "solc",
    "version": "0.8.17+commit.8df45f5f.Emscripten.clang"
  },
  "schemaVersion": "3.4.10",
  "updatedAt": "2022-11-09T17:18:34.665Z",
  "devdoc": {
    "kind": "dev",
    "methods": {
      "addDeposit(uint256)": {
        "details": "Deposit WETH into this contract with this method. posted amount is stored as token amount of ERC20."
      },
      "decimals()": {
        "details": "Returns the number of decimals used to get its user representation. For example, if `decimals` equals `2`, a balance of `505` tokens should be displayed to a user as `5.05` (`505 / 10 ** 2`). Tokens usually opt for a value of 18, imitating the relationship between Ether and Wei. This is the value {ERC20} uses, unless this function is overridden; NOTE: This information is only used for _display_ purposes: it in no way affects any of the arithmetic of the contract, including {IERC20-balanceOf} and {IERC20-transfer}."
      },
      "decreaseAllowance(address,uint256)": {
        "details": "Atomically decreases the allowance granted to `spender` by the caller. This is an alternative to {approve} that can be used as a mitigation for problems described in {IERC20-approve}. Emits an {Approval} event indicating the updated allowance. Requirements: - `spender` cannot be the zero address. - `spender` must have allowance for the caller of at least `subtractedValue`."
      },
      "depositWETH(address)": {
        "details": "ERC20.balanceOf(_depositor) is used as deposit of _depositor under Offering state."
      },
      "increaseAllowance(address,uint256)": {
        "details": "Atomically increases the allowance granted to `spender` by the caller. This is an alternative to {approve} that can be used as a mitigation for problems described in {IERC20-approve}. Emits an {Approval} event indicating the updated allowance. Requirements: - `spender` cannot be the zero address."
      },
      "makeBuyOrder()": {
        "details": "Make a buy order of an asset. after making an order, state of this contract becomes Ordering."
      },
      "maturity()": {
        "details": "Maturity of this contract. After this, an asset is tried to sell. (In this sence, 'maturity' may not be suitable.)"
      },
      "name()": {
        "details": "Returns the name of the token."
      },
      "offerClosingTime()": {
        "details": "A limit time when investors deposit their WETH tokens"
      },
      "orderExpiration()": {
        "details": "An expiration time of an order on the market "
      },
      "publishToken()": {
        "details": "Publish token. in this contract, 'publish token' is implement just an state transition. (_checkPurchased method may update state) see IERC20 behavior of this contract."
      },
      "redeem()": {
        "details": "Redeem. When asset is bought and sold, sold price is shared by investors. When asset is not bought, deposits are returned."
      },
      "sellAsset()": {
        "details": "Make an sell order of underlying asset. this method is available only after 'maturity'. after this method, state of this contract becomes AssetSelling. "
      },
      "state()": {
        "details": "State of this contract, which is either of { Offering, Ordering, AssetHolding, AssetSelling, AssetSold, Closed }  - Offering: Investor can deposit tokens into this contract  - Ordering: Trying to buy an asset  - AssetHolding: Order is success and token of this contract is published.  - AssetSelling: Token transfer is stopped. Trying to sell the asset  - AssetSold: Asset is sold. It is prepared to refund.  - Closed: This contract(fund) is closed. State transitions:  Offering --> Ordering --> AssetHolding --> AssetSelling --> AssetSold --> Closed      |            |                                                           A      v            v                                                           |      --------------------------------------------------------------------------    "
      },
      "symbol()": {
        "details": "Returns the symbol of the token, usually a shorter version of the name."
      },
      "totalDepositWETH()": {
        "details": "ERC20.totalSupply() is used as accumulated deposit under Offering state."
      },
      "totalSupply()": {
        "details": "See {IERC20-totalSupply}."
      },
      "underlyingAsset()": {
        "details": "An address of underlying asset to be invested."
      },
      "withdrawWETH()": {
        "details": "Withdraw all WETH from this contract."
      },
      "withdrawWETH(uint256)": {
        "details": "Withdraw WETH from this contract with this method."
      }
    },
    "version": 1
  },
  "userdoc": {
    "kind": "user",
    "methods": {},
    "version": 1
  }
}