{
  "contractName": "CollectiveInvestmentScheme",
  "abi": [
    {
      "inputs": [
        {
          "internalType": "address",
          "name": "WETHcontract_",
          "type": "address"
        },
        {
          "internalType": "address",
          "name": "underlyingAsset_",
          "type": "address"
        },
        {
          "internalType": "uint256",
          "name": "offerClosingTime_",
          "type": "uint256"
        },
        {
          "internalType": "uint256",
          "name": "orderExpiration_",
          "type": "uint256"
        },
        {
          "internalType": "uint256",
          "name": "maturity_",
          "type": "uint256"
        }
      ],
      "stateMutability": "nonpayable",
      "type": "constructor"
    },
    {
      "anonymous": false,
      "inputs": [
        {
          "indexed": true,
          "internalType": "address",
          "name": "owner",
          "type": "address"
        },
        {
          "indexed": true,
          "internalType": "address",
          "name": "spender",
          "type": "address"
        },
        {
          "indexed": false,
          "internalType": "uint256",
          "name": "value",
          "type": "uint256"
        }
      ],
      "name": "Approval",
      "type": "event"
    },
    {
      "anonymous": false,
      "inputs": [
        {
          "indexed": true,
          "internalType": "address",
          "name": "from",
          "type": "address"
        },
        {
          "indexed": true,
          "internalType": "address",
          "name": "to",
          "type": "address"
        },
        {
          "indexed": false,
          "internalType": "uint256",
          "name": "value",
          "type": "uint256"
        }
      ],
      "name": "Transfer",
      "type": "event"
    },
    {
      "inputs": [],
      "name": "getTotalWETH",
      "outputs": [
        {
          "internalType": "uint256",
          "name": "",
          "type": "uint256"
        }
      ],
      "stateMutability": "view",
      "type": "function"
    },
    {
      "inputs": [
        {
          "internalType": "address",
          "name": "_depositor",
          "type": "address"
        }
      ],
      "name": "getDepositWETH",
      "outputs": [
        {
          "internalType": "uint256",
          "name": "",
          "type": "uint256"
        }
      ],
      "stateMutability": "view",
      "type": "function"
    },
    {
      "inputs": [
        {
          "internalType": "uint256",
          "name": "amount_",
          "type": "uint256"
        }
      ],
      "name": "addDeposit",
      "outputs": [],
      "stateMutability": "nonpayable",
      "type": "function"
    },
    {
      "inputs": [],
      "name": "withdrawWETH",
      "outputs": [],
      "stateMutability": "nonpayable",
      "type": "function"
    },
    {
      "inputs": [
        {
          "internalType": "uint256",
          "name": "amount_",
          "type": "uint256"
        }
      ],
      "name": "withdrawWETH",
      "outputs": [],
      "stateMutability": "nonpayable",
      "type": "function"
    },
    {
      "inputs": [],
      "name": "order",
      "outputs": [],
      "stateMutability": "nonpayable",
      "type": "function"
    },
    {
      "inputs": [],
      "name": "_checkPurchased",
      "outputs": [
        {
          "internalType": "bool",
          "name": "",
          "type": "bool"
        }
      ],
      "stateMutability": "nonpayable",
      "type": "function"
    },
    {
      "inputs": [],
      "name": "publishToken",
      "outputs": [],
      "stateMutability": "nonpayable",
      "type": "function"
    },
    {
      "inputs": [],
      "name": "sellAsset",
      "outputs": [],
      "stateMutability": "nonpayable",
      "type": "function"
    },
    {
      "inputs": [],
      "name": "updateSellOrder",
      "outputs": [],
      "stateMutability": "nonpayable",
      "type": "function"
    },
    {
      "inputs": [],
      "name": "redeem",
      "outputs": [],
      "stateMutability": "nonpayable",
      "type": "function"
    },
    {
      "inputs": [],
      "name": "totalSupply",
      "outputs": [
        {
          "internalType": "uint256",
          "name": "",
          "type": "uint256"
        }
      ],
      "stateMutability": "view",
      "type": "function"
    },
    {
      "inputs": [
        {
          "internalType": "address",
          "name": "account_",
          "type": "address"
        }
      ],
      "name": "balanceOf",
      "outputs": [
        {
          "internalType": "uint256",
          "name": "",
          "type": "uint256"
        }
      ],
      "stateMutability": "view",
      "type": "function"
    },
    {
      "inputs": [
        {
          "internalType": "address",
          "name": "owner_",
          "type": "address"
        },
        {
          "internalType": "address",
          "name": "spender_",
          "type": "address"
        }
      ],
      "name": "allowance",
      "outputs": [
        {
          "internalType": "uint256",
          "name": "",
          "type": "uint256"
        }
      ],
      "stateMutability": "view",
      "type": "function"
    },
    {
      "inputs": [
        {
          "internalType": "address",
          "name": "spender_",
          "type": "address"
        },
        {
          "internalType": "uint256",
          "name": "amount_",
          "type": "uint256"
        }
      ],
      "name": "approve",
      "outputs": [
        {
          "internalType": "bool",
          "name": "",
          "type": "bool"
        }
      ],
      "stateMutability": "nonpayable",
      "type": "function"
    },
    {
      "inputs": [
        {
          "internalType": "address",
          "name": "to_",
          "type": "address"
        },
        {
          "internalType": "uint256",
          "name": "amount_",
          "type": "uint256"
        }
      ],
      "name": "transfer",
      "outputs": [
        {
          "internalType": "bool",
          "name": "",
          "type": "bool"
        }
      ],
      "stateMutability": "nonpayable",
      "type": "function"
    },
    {
      "inputs": [
        {
          "internalType": "address",
          "name": "from_",
          "type": "address"
        },
        {
          "internalType": "address",
          "name": "to_",
          "type": "address"
        },
        {
          "internalType": "uint256",
          "name": "amount_",
          "type": "uint256"
        }
      ],
      "name": "transferFrom",
      "outputs": [
        {
          "internalType": "bool",
          "name": "",
          "type": "bool"
        }
      ],
      "stateMutability": "nonpayable",
      "type": "function"
    }
  ],
  "bytecode": "0x60806040523480156200001157600080fd5b50604051620043fc380380620043fc8339818101604052810190620000379190620003c2565b600073ffffffffffffffffffffffffffffffffffffffff168573ffffffffffffffffffffffffffffffffffffffff16036200007157600080fd5b600073ffffffffffffffffffffffffffffffffffffffff168473ffffffffffffffffffffffffffffffffffffffff1603620000ab57600080fd5b824210620000f0576040517f08c379a0000000000000000000000000000000000000000000000000000000008152600401620000e790620004d1565b60405180910390fd5b6276a7004262000101919062000522565b83111562000146576040517f08c379a00000000000000000000000000000000000000000000000000000000081526004016200013d90620005d3565b60405180910390fd5b8183106200018b576040517f08c379a000000000000000000000000000000000000000000000000000000000815260040162000182906200066b565b60405180910390fd5b6276a700836200019c919062000522565b821115620001e1576040517f08c379a0000000000000000000000000000000000000000000000000000000008152600401620001d89062000703565b60405180910390fd5b80831062000226576040517f08c379a00000000000000000000000000000000000000000000000000000000081526004016200021d906200079b565b60405180910390fd5b62ed4e008362000237919062000522565b8111156200027c576040517f08c379a0000000000000000000000000000000000000000000000000000000008152600401620002739062000833565b60405180910390fd5b846000806101000a81548173ffffffffffffffffffffffffffffffffffffffff021916908373ffffffffffffffffffffffffffffffffffffffff16021790555083600460006101000a81548173ffffffffffffffffffffffffffffffffffffffff021916908373ffffffffffffffffffffffffffffffffffffffff160217905550826001819055508160028190555080600381905550505050505062000855565b600080fd5b600073ffffffffffffffffffffffffffffffffffffffff82169050919050565b60006200034f8262000322565b9050919050565b620003618162000342565b81146200036d57600080fd5b50565b600081519050620003818162000356565b92915050565b6000819050919050565b6200039c8162000387565b8114620003a857600080fd5b50565b600081519050620003bc8162000391565b92915050565b600080600080600060a08688031215620003e157620003e06200031d565b5b6000620003f18882890162000370565b9550506020620004048882890162000370565b94505060406200041788828901620003ab565b93505060606200042a88828901620003ab565b92505060806200043d88828901620003ab565b9150509295509295909350565b600082825260208201905092915050565b7f4f6666657220636c6f73696e672074696d65206d75737420626520696e20667560008201527f747572652e000000000000000000000000000000000000000000000000000000602082015250565b6000620004b96025836200044a565b9150620004c6826200045b565b604082019050919050565b60006020820190508181036000830152620004ec81620004aa565b9050919050565b7f4e487b7100000000000000000000000000000000000000000000000000000000600052601160045260246000fd5b60006200052f8262000387565b91506200053c8362000387565b9250828201905080821115620005575762000556620004f3565b5b92915050565b7f4f6666657220636c6f73696e672074696d6520697320746f6f2066757475726560008201527f2e00000000000000000000000000000000000000000000000000000000000000602082015250565b6000620005bb6021836200044a565b9150620005c8826200055d565b604082019050919050565b60006020820190508181036000830152620005ee81620005ac565b9050919050565b7f4f726465722065787069726174696f6e206d757374206265206166746572206f60008201527f6666657220636c6f73696e672074696d652e0000000000000000000000000000602082015250565b6000620006536032836200044a565b91506200066082620005f5565b604082019050919050565b60006020820190508181036000830152620006868162000644565b9050919050565b7f4f726465722065787069726174696f6e20697320746f6f20667574757265206f60008201527f66206f6666657220636c6f73696e672074696d652e0000000000000000000000602082015250565b6000620006eb6035836200044a565b9150620006f8826200068d565b604082019050919050565b600060208201905081810360008301526200071e81620006dc565b9050919050565b7f4d61747572697479206d757374206265206166746572206f6666657220636c6f60008201527f73696e672074696d652e00000000000000000000000000000000000000000000602082015250565b600062000783602a836200044a565b9150620007908262000725565b604082019050919050565b60006020820190508181036000830152620007b68162000774565b9050919050565b7f4d6174757269747920697320746f6f20667574757265206f66206f666665722060008201527f636c6f73696e672074696d652e00000000000000000000000000000000000000602082015250565b60006200081b602d836200044a565b91506200082882620007bd565b604082019050919050565b600060208201905081810360008301526200084e816200080c565b9050919050565b613b9780620008656000396000f3fe608060405234801561001057600080fd5b506004361061010b5760003560e01c80639c3b0897116100a2578063be040fb011610071578063be040fb014610280578063bf15071d1461028a578063c28295bd14610294578063dd62ed3e146102b2578063fc4dd333146102e25761010b565b80639c3b0897146101e6578063a6f1fd5114610216578063a9059cbb14610232578063b832d7ff146102625761010b565b80636c738c89116100de5780636c738c891461019857806370a08231146101a25780637119f098146101d2578063723fd72b146101dc5761010b565b8063095ea7b31461011057806318160ddd1461014057806323b872dd1461015e5780634c02f62e1461018e575b600080fd5b61012a600480360381019061012591906129d9565b6102fe565b6040516101379190612a34565b60405180910390f35b610148610519565b6040516101559190612a5e565b60405180910390f35b61017860048036038101906101739190612a79565b6105dd565b6040516101859190612a34565b60405180910390f35b6101966106ad565b005b6101a0610833565b005b6101bc60048036038101906101b79190612acc565b610923565b6040516101c99190612a5e565b60405180910390f35b6101da610a26565b005b6101e4610b6d565b005b61020060048036038101906101fb9190612acc565b610bf5565b60405161020d9190612a5e565b60405180910390f35b610230600480360381019061022b9190612af9565b610c3e565b005b61024c600480360381019061024791906129d9565b610ef2565b6040516102599190612a34565b60405180910390f35b61026a610fc1565b6040516102779190612a34565b60405180910390f35b610288611085565b005b610292611373565b005b61029c6114eb565b6040516102a99190612a5e565b60405180910390f35b6102cc60048036038101906102c79190612b26565b6114f5565b6040516102d99190612a5e565b60405180910390f35b6102fc60048036038101906102f79190612af9565b611636565b005b60006002600581111561031457610313612b66565b5b600060149054906101000a900460ff16600581111561033657610335612b66565b5b14610376576040517f08c379a000000000000000000000000000000000000000000000000000000000815260040161036d90612bf2565b60405180910390fd5b60035442106103ba576040517f08c379a00000000000000000000000000000000000000000000000000000000081526004016103b190612c5e565b60405180910390fd5b600073ffffffffffffffffffffffffffffffffffffffff168373ffffffffffffffffffffffffffffffffffffffff1603610429576040517f08c379a000000000000000000000000000000000000000000000000000000000815260040161042090612cca565b60405180910390fd5b81600860003373ffffffffffffffffffffffffffffffffffffffff1673ffffffffffffffffffffffffffffffffffffffff16815260200190815260200160002060008573ffffffffffffffffffffffffffffffffffffffff1673ffffffffffffffffffffffffffffffffffffffff168152602001908152602001600020819055508273ffffffffffffffffffffffffffffffffffffffff163373ffffffffffffffffffffffffffffffffffffffff167f8c5be1e5ebec7d5bd14f71427d1e84f3dd0314c0f7b2291e5b200ac8c7c3b925846040516105079190612a5e565b60405180910390a36001905092915050565b60006002600581111561052f5761052e612b66565b5b600060149054906101000a900460ff16600581111561055157610550612b66565b5b14610591576040517f08c379a000000000000000000000000000000000000000000000000000000000815260040161058890612bf2565b60405180910390fd5b60035442106105d5576040517f08c379a00000000000000000000000000000000000000000000000000000000081526004016105cc90612c5e565b60405180910390fd5b600554905090565b6000600260058111156105f3576105f2612b66565b5b600060149054906101000a900460ff16600581111561061557610614612b66565b5b14610655576040517f08c379a000000000000000000000000000000000000000000000000000000000815260040161064c90612bf2565b60405180910390fd5b6003544210610699576040517f08c379a000000000000000000000000000000000000000000000000000000000815260040161069090612c5e565b60405180910390fd5b6106a484848461177e565b90509392505050565b600060058111156106c1576106c0612b66565b5b600060149054906101000a900460ff1660058111156106e3576106e2612b66565b5b14610723576040517f08c379a000000000000000000000000000000000000000000000000000000000815260040161071a90612d36565b60405180910390fd5b6001544210610767576040517f08c379a000000000000000000000000000000000000000000000000000000000815260040161075e90612da2565b60405180910390fd5b6000600660003373ffffffffffffffffffffffffffffffffffffffff1673ffffffffffffffffffffffffffffffffffffffff16815260200190815260200160002054036107e9576040517f08c379a00000000000000000000000000000000000000000000000000000000081526004016107e090612e0e565b60405180910390fd5b610831600660003373ffffffffffffffffffffffffffffffffffffffff1673ffffffffffffffffffffffffffffffffffffffff16815260200190815260200160002054611e77565b565b6002600581111561084757610846612b66565b5b600060149054906101000a900460ff16600581111561086957610868612b66565b5b146108a9576040517f08c379a00000000000000000000000000000000000000000000000000000000081526004016108a090612ea0565b60405180910390fd5b4260035411156108ee576040517f08c379a00000000000000000000000000000000000000000000000000000000081526004016108e590612f32565b60405180910390fd5b6108f6612189565b6003600060146101000a81548160ff0219169083600581111561091c5761091b612b66565b5b0217905550565b60006002600581111561093957610938612b66565b5b600060149054906101000a900460ff16600581111561095b5761095a612b66565b5b1461099b576040517f08c379a000000000000000000000000000000000000000000000000000000000815260040161099290612bf2565b60405180910390fd5b60035442106109df576040517f08c379a00000000000000000000000000000000000000000000000000000000081526004016109d690612c5e565b60405180910390fd5b600660008373ffffffffffffffffffffffffffffffffffffffff1673ffffffffffffffffffffffffffffffffffffffff168152602001908152602001600020549050919050565b60016005811115610a3a57610a39612b66565b5b600060149054906101000a900460ff166005811115610a5c57610a5b612b66565b5b14610a9c576040517f08c379a0000000000000000000000000000000000000000000000000000000008152600401610a9390612bf2565b60405180910390fd5b6002544210610ae0576040517f08c379a0000000000000000000000000000000000000000000000000000000008152600401610ad790612fc4565b60405180910390fd5b6003544210610b24576040517f08c379a0000000000000000000000000000000000000000000000000000000008152600401610b1b90613030565b60405180910390fd5b610b2c610fc1565b610b6b576040517f08c379a0000000000000000000000000000000000000000000000000000000008152600401610b629061309c565b60405180910390fd5b565b60036005811115610b8157610b80612b66565b5b600060149054906101000a900460ff166005811115610ba357610ba2612b66565b5b14610be3576040517f08c379a0000000000000000000000000000000000000000000000000000000008152600401610bda9061312e565b60405180910390fd5b610beb61218b565b610bf3612189565b565b6000600660008373ffffffffffffffffffffffffffffffffffffffff1673ffffffffffffffffffffffffffffffffffffffff168152602001908152602001600020549050919050565b60006005811115610c5257610c51612b66565b5b600060149054906101000a900460ff166005811115610c7457610c73612b66565b5b14610cb4576040517f08c379a0000000000000000000000000000000000000000000000000000000008152600401610cab90612d36565b60405180910390fd5b6001544210610cf8576040517f08c379a0000000000000000000000000000000000000000000000000000000008152600401610cef90612da2565b60405180910390fd5b60008103610d3b576040517f08c379a0000000000000000000000000000000000000000000000000000000008152600401610d329061319a565b60405180910390fd5b60008054906101000a900473ffffffffffffffffffffffffffffffffffffffff1673ffffffffffffffffffffffffffffffffffffffff166323b872dd3330846040518463ffffffff1660e01b8152600401610d98939291906131c9565b6020604051808303816000875af1158015610db7573d6000803e3d6000fd5b505050506040513d601f19601f82011682018060405250810190610ddb919061322c565b50610e2e81600660003373ffffffffffffffffffffffffffffffffffffffff1673ffffffffffffffffffffffffffffffffffffffff1681526020019081526020016000205461218d90919063ffffffff16565b600660003373ffffffffffffffffffffffffffffffffffffffff1673ffffffffffffffffffffffffffffffffffffffff16815260200190815260200160002081905550610e868160055461218d90919063ffffffff16565b6005819055506007339080600181540180825580915050600190039060005260206000200160009091909190916101000a81548173ffffffffffffffffffffffffffffffffffffffff021916908373ffffffffffffffffffffffffffffffffffffffff16021790555050565b600060026005811115610f0857610f07612b66565b5b600060149054906101000a900460ff166005811115610f2a57610f29612b66565b5b14610f6a576040517f08c379a0000000000000000000000000000000000000000000000000000000008152600401610f6190612bf2565b60405180910390fd5b6003544210610fae576040517f08c379a0000000000000000000000000000000000000000000000000000000008152600401610fa590612c5e565b60405180910390fd5b610fb933848461177e565b905092915050565b600060016005811115610fd757610fd6612b66565b5b600060149054906101000a900460ff166005811115610ff957610ff8612b66565b5b14611039576040517f08c379a000000000000000000000000000000000000000000000000000000000815260040161103090612bf2565b60405180910390fd5b6001156110495760009050611082565b6005546009819055506002600060146101000a81548160ff0219169083600581111561107857611077612b66565b5b0217905550600190505b90565b6110c96000600581111561109c5761109b612b66565b5b600060149054906101000a900460ff1660058111156110be576110bd612b66565b5b1442600254106121a3565b611108576040517f08c379a00000000000000000000000000000000000000000000000000000000081526004016110ff906132cb565b60405180910390fd5b61114c6001600581111561111f5761111e612b66565b5b600060149054906101000a900460ff16600581111561114157611140612b66565b5b1442600254106121a3565b61118b576040517f08c379a00000000000000000000000000000000000000000000000000000000081526004016111829061335d565b60405180910390fd5b6002600581111561119f5761119e612b66565b5b600060149054906101000a900460ff1660058111156111c1576111c0612b66565b5b03611201576040517f08c379a00000000000000000000000000000000000000000000000000000000081526004016111f8906133ef565b60405180910390fd5b6003600581111561121557611214612b66565b5b600060149054906101000a900460ff16600581111561123757611236612b66565b5b03611277576040517f08c379a000000000000000000000000000000000000000000000000000000000815260040161126e90613481565b60405180910390fd5b60058081111561128a57611289612b66565b5b600060149054906101000a900460ff1660058111156112ac576112ab612b66565b5b036112ec576040517f08c379a00000000000000000000000000000000000000000000000000000000081526004016112e3906134ed565b60405180910390fd5b6113306001600581111561130357611302612b66565b5b600060149054906101000a900460ff16600581111561132557611324612b66565b5b1442600254106121a3565b1561133e5761133d6121b7565b5b61134661222f565b6005600060146101000a81548160ff0219169083600581111561136c5761136b612b66565b5b0217905550565b6000600581111561138757611386612b66565b5b600060149054906101000a900460ff1660058111156113a9576113a8612b66565b5b146113e9576040517f08c379a00000000000000000000000000000000000000000000000000000000081526004016113e090612d36565b60405180910390fd5b42600154111561142e576040517f08c379a00000000000000000000000000000000000000000000000000000000081526004016114259061357f565b60405180910390fd5b6002544210611472576040517f08c379a000000000000000000000000000000000000000000000000000000000815260040161146990612fc4565b60405180910390fd5b60035442106114b6576040517f08c379a00000000000000000000000000000000000000000000000000000000081526004016114ad90613030565b60405180910390fd5b6114be6128b2565b6001600060146101000a81548160ff021916908360058111156114e4576114e3612b66565b5b0217905550565b6000600554905090565b60006002600581111561150b5761150a612b66565b5b600060149054906101000a900460ff16600581111561152d5761152c612b66565b5b1461156d576040517f08c379a000000000000000000000000000000000000000000000000000000000815260040161156490612bf2565b60405180910390fd5b60035442106115b1576040517f08c379a00000000000000000000000000000000000000000000000000000000081526004016115a890612c5e565b60405180910390fd5b600860008473ffffffffffffffffffffffffffffffffffffffff1673ffffffffffffffffffffffffffffffffffffffff16815260200190815260200160002060008373ffffffffffffffffffffffffffffffffffffffff1673ffffffffffffffffffffffffffffffffffffffff16815260200190815260200160002054905092915050565b6000600581111561164a57611649612b66565b5b600060149054906101000a900460ff16600581111561166c5761166b612b66565b5b146116ac576040517f08c379a00000000000000000000000000000000000000000000000000000000081526004016116a390612d36565b60405180910390fd5b60015442106116f0576040517f08c379a00000000000000000000000000000000000000000000000000000000081526004016116e790612da2565b60405180910390fd5b6000600660003373ffffffffffffffffffffffffffffffffffffffff1673ffffffffffffffffffffffffffffffffffffffff1681526020019081526020016000205403611772576040517f08c379a000000000000000000000000000000000000000000000000000000000815260040161176990612e0e565b60405180910390fd5b61177b81611e77565b50565b60006002600581111561179457611793612b66565b5b600060149054906101000a900460ff1660058111156117b6576117b5612b66565b5b146117f6576040517f08c379a00000000000000000000000000000000000000000000000000000000081526004016117ed90612bf2565b60405180910390fd5b600354421061183a576040517f08c379a000000000000000000000000000000000000000000000000000000000815260040161183190612c5e565b60405180910390fd5b600073ffffffffffffffffffffffffffffffffffffffff168373ffffffffffffffffffffffffffffffffffffffff16036118a9576040517f08c379a00000000000000000000000000000000000000000000000000000000081526004016118a0906135eb565b60405180910390fd5b600073ffffffffffffffffffffffffffffffffffffffff168373ffffffffffffffffffffffffffffffffffffffff1603611918576040517f08c379a000000000000000000000000000000000000000000000000000000000815260040161190f90613657565b60405180910390fd5b8273ffffffffffffffffffffffffffffffffffffffff168473ffffffffffffffffffffffffffffffffffffffff1603611986576040517f08c379a000000000000000000000000000000000000000000000000000000000815260040161197d906136e9565b60405180910390fd5b600660008573ffffffffffffffffffffffffffffffffffffffff1673ffffffffffffffffffffffffffffffffffffffff16815260200190815260200160002054821115611a08576040517f08c379a00000000000000000000000000000000000000000000000000000000081526004016119ff9061377b565b60405180910390fd5b600860008573ffffffffffffffffffffffffffffffffffffffff1673ffffffffffffffffffffffffffffffffffffffff16815260200190815260200160002060008473ffffffffffffffffffffffffffffffffffffffff1673ffffffffffffffffffffffffffffffffffffffff16815260200190815260200160002054821115611ac7576040517f08c379a0000000000000000000000000000000000000000000000000000000008152600401611abe9061380d565b60405180910390fd5b7fffffffffffffffffffffffffffffffffffffffffffffffffffffffffffffffff600860008673ffffffffffffffffffffffffffffffffffffffff1673ffffffffffffffffffffffffffffffffffffffff16815260200190815260200160002060008573ffffffffffffffffffffffffffffffffffffffff1673ffffffffffffffffffffffffffffffffffffffff1681526020019081526020016000205414611c7a57611bf982600860003373ffffffffffffffffffffffffffffffffffffffff1673ffffffffffffffffffffffffffffffffffffffff16815260200190815260200160002060008673ffffffffffffffffffffffffffffffffffffffff1673ffffffffffffffffffffffffffffffffffffffff1681526020019081526020016000205461292a90919063ffffffff16565b600860008673ffffffffffffffffffffffffffffffffffffffff1673ffffffffffffffffffffffffffffffffffffffff16815260200190815260200160002060008573ffffffffffffffffffffffffffffffffffffffff1673ffffffffffffffffffffffffffffffffffffffff168152602001908152602001600020819055505b611ccc82600660008673ffffffffffffffffffffffffffffffffffffffff1673ffffffffffffffffffffffffffffffffffffffff1681526020019081526020016000205461218d90919063ffffffff16565b600660008573ffffffffffffffffffffffffffffffffffffffff1673ffffffffffffffffffffffffffffffffffffffff16815260200190815260200160002081905550611d6182600660008773ffffffffffffffffffffffffffffffffffffffff1673ffffffffffffffffffffffffffffffffffffffff1681526020019081526020016000205461292a90919063ffffffff16565b600660008673ffffffffffffffffffffffffffffffffffffffff1673ffffffffffffffffffffffffffffffffffffffff168152602001908152602001600020819055506007839080600181540180825580915050600190039060005260206000200160009091909190916101000a81548173ffffffffffffffffffffffffffffffffffffffff021916908373ffffffffffffffffffffffffffffffffffffffff1602179055508273ffffffffffffffffffffffffffffffffffffffff168473ffffffffffffffffffffffffffffffffffffffff167fddf252ad1be2c89b69c2b068fc378daa952ba7f163c4a11628f55a4df523b3ef84604051611e649190612a5e565b60405180910390a3600190509392505050565b60006005811115611e8b57611e8a612b66565b5b600060149054906101000a900460ff166005811115611ead57611eac612b66565b5b14611eed576040517f08c379a0000000000000000000000000000000000000000000000000000000008152600401611ee490612d36565b60405180910390fd5b6001544210611f31576040517f08c379a0000000000000000000000000000000000000000000000000000000008152600401611f2890612da2565b60405180910390fd5b6000600660003373ffffffffffffffffffffffffffffffffffffffff1673ffffffffffffffffffffffffffffffffffffffff1681526020019081526020016000205403611fb3576040517f08c379a0000000000000000000000000000000000000000000000000000000008152600401611faa90612e0e565b60405180910390fd5b600660003373ffffffffffffffffffffffffffffffffffffffff1673ffffffffffffffffffffffffffffffffffffffff16815260200190815260200160002054811115612035576040517f08c379a000000000000000000000000000000000000000000000000000000000815260040161202c90613879565b60405180910390fd5b60008054906101000a900473ffffffffffffffffffffffffffffffffffffffff1673ffffffffffffffffffffffffffffffffffffffff166323b872dd3033846040518463ffffffff1660e01b8152600401612092939291906131c9565b6020604051808303816000875af11580156120b1573d6000803e3d6000fd5b505050506040513d601f19601f820116820180604052508101906120d5919061322c565b5061212881600660003373ffffffffffffffffffffffffffffffffffffffff1673ffffffffffffffffffffffffffffffffffffffff1681526020019081526020016000205461292a90919063ffffffff16565b600660003373ffffffffffffffffffffffffffffffffffffffff1673ffffffffffffffffffffffffffffffffffffffff168152602001908152602001600020819055506121808160055461292a90919063ffffffff16565b60058190555050565b565b565b6000818361219b91906138c8565b905092915050565b60008215806121af5750815b905092915050565b600160058111156121cb576121ca612b66565b5b600060149054906101000a900460ff1660058111156121ed576121ec612b66565b5b1461222d576040517f08c379a000000000000000000000000000000000000000000000000000000000815260040161222490612bf2565b60405180910390fd5b565b6122736000600581111561224657612245612b66565b5b600060149054906101000a900460ff16600581111561226857612267612b66565b5b1442600254106121a3565b6122b2576040517f08c379a00000000000000000000000000000000000000000000000000000000081526004016122a9906132cb565b60405180910390fd5b6122f6600160058111156122c9576122c8612b66565b5b600060149054906101000a900460ff1660058111156122eb576122ea612b66565b5b1442600254106121a3565b612335576040517f08c379a000000000000000000000000000000000000000000000000000000000815260040161232c9061335d565b60405180910390fd5b6002600581111561234957612348612b66565b5b600060149054906101000a900460ff16600581111561236b5761236a612b66565b5b036123ab576040517f08c379a00000000000000000000000000000000000000000000000000000000081526004016123a2906133ef565b60405180910390fd5b600360058111156123bf576123be612b66565b5b600060149054906101000a900460ff1660058111156123e1576123e0612b66565b5b03612421576040517f08c379a000000000000000000000000000000000000000000000000000000000815260040161241890613481565b60405180910390fd5b60058081111561243457612433612b66565b5b600060149054906101000a900460ff16600581111561245657612455612b66565b5b03612496576040517f08c379a000000000000000000000000000000000000000000000000000000000815260040161248d906134ed565b60405180910390fd5b6000600a54036124db576040517f08c379a00000000000000000000000000000000000000000000000000000000081526004016124d29061396e565b60405180910390fd5b600060076000815481106124f2576124f161398e565b5b9060005260206000200160009054906101000a900473ffffffffffffffffffffffffffffffffffffffff16905060008060078054905090506000600554905060008054906101000a900473ffffffffffffffffffffffffffffffffffffffff1673ffffffffffffffffffffffffffffffffffffffff166370a08231306040518263ffffffff1660e01b815260040161258a91906139bd565b602060405180830381865afa1580156125a7573d6000803e3d6000fd5b505050506040513d601f19601f820116820180604052508101906125cb91906139ed565b8111156125d757600080fd5b60005b8281101561276c576000600782815481106125f8576125f761398e565b5b9060005260206000200160009054906101000a900473ffffffffffffffffffffffffffffffffffffffff1690506000600660008373ffffffffffffffffffffffffffffffffffffffff1673ffffffffffffffffffffffffffffffffffffffff168152602001908152602001600020549050600081146127595780861015612680578095508196505b60008482600a546126919190613a1a565b61269b9190613a8b565b905060008054906101000a900473ffffffffffffffffffffffffffffffffffffffff1673ffffffffffffffffffffffffffffffffffffffff1663a9059cbb84836040518363ffffffff1660e01b81526004016126f8929190613abc565b6020604051808303816000875af1158015612717573d6000803e3d6000fd5b505050506040513d601f19601f8201168201806040525081019061273b919061322c565b506127518160055461292a90919063ffffffff16565b600581905550505b50508061276590613ae5565b90506125da565b5060008060009054906101000a900473ffffffffffffffffffffffffffffffffffffffff1673ffffffffffffffffffffffffffffffffffffffff166370a08231306040518263ffffffff1660e01b81526004016127c991906139bd565b602060405180830381865afa1580156127e6573d6000803e3d6000fd5b505050506040513d601f19601f8201168201806040525081019061280a91906139ed565b905060008054906101000a900473ffffffffffffffffffffffffffffffffffffffff1673ffffffffffffffffffffffffffffffffffffffff1663a9059cbb86836040518363ffffffff1660e01b8152600401612867929190613abc565b6020604051808303816000875af1158015612886573d6000803e3d6000fd5b505050506040513d601f19601f820116820180604052508101906128aa919061322c565b505050505050565b600060058111156128c6576128c5612b66565b5b600060149054906101000a900460ff1660058111156128e8576128e7612b66565b5b14612928576040517f08c379a000000000000000000000000000000000000000000000000000000000815260040161291f90612d36565b60405180910390fd5b565b600081836129389190613b2d565b905092915050565b600080fd5b600073ffffffffffffffffffffffffffffffffffffffff82169050919050565b600061297082612945565b9050919050565b61298081612965565b811461298b57600080fd5b50565b60008135905061299d81612977565b92915050565b6000819050919050565b6129b6816129a3565b81146129c157600080fd5b50565b6000813590506129d3816129ad565b92915050565b600080604083850312156129f0576129ef612940565b5b60006129fe8582860161298e565b9250506020612a0f858286016129c4565b9150509250929050565b60008115159050919050565b612a2e81612a19565b82525050565b6000602082019050612a496000830184612a25565b92915050565b612a58816129a3565b82525050565b6000602082019050612a736000830184612a4f565b92915050565b600080600060608486031215612a9257612a91612940565b5b6000612aa08682870161298e565b9350506020612ab18682870161298e565b9250506040612ac2868287016129c4565b9150509250925092565b600060208284031215612ae257612ae1612940565b5b6000612af08482850161298e565b91505092915050565b600060208284031215612b0f57612b0e612940565b5b6000612b1d848285016129c4565b91505092915050565b60008060408385031215612b3d57612b3c612940565b5b6000612b4b8582860161298e565b9250506020612b5c8582860161298e565b9150509250929050565b7f4e487b7100000000000000000000000000000000000000000000000000000000600052602160045260246000fd5b600082825260208201905092915050565b7f417661696c61626c65206f6e6c79207768656e206f72646572696e6700000000600082015250565b6000612bdc601c83612b95565b9150612be782612ba6565b602082019050919050565b60006020820190508181036000830152612c0b81612bcf565b9050919050565b7f5468697320736368656d652072656163686573206d617475726974792e000000600082015250565b6000612c48601d83612b95565b9150612c5382612c12565b602082019050919050565b60006020820190508181036000830152612c7781612c3b565b9050919050565b7f4e756c6c207370656e6465722061646472657373000000000000000000000000600082015250565b6000612cb4601483612b95565b9150612cbf82612c7e565b602082019050919050565b60006020820190508181036000830152612ce381612ca7565b9050919050565b7f417661696c61626c65206f6e6c79207768656e206f66666572696e6700000000600082015250565b6000612d20601c83612b95565b9150612d2b82612cea565b602082019050919050565b60006020820190508181036000830152612d4f81612d13565b9050919050565b7f4f6666657220706572696f6420616c726561647920656e646564000000000000600082015250565b6000612d8c601a83612b95565b9150612d9782612d56565b602082019050919050565b60006020820190508181036000830152612dbb81612d7f565b9050919050565b7f4f6e6c79206465706f7369746f722063616e2063616c6c2e0000000000000000600082015250565b6000612df8601883612b95565b9150612e0382612dc2565b602082019050919050565b60006020820190508181036000830152612e2781612deb565b9050919050565b7f53656c6c20697320617661696c61626c65206f6e6c79207768656e207468697360008201527f20636f6e747261637420686f6c647320616e2061737365742e00000000000000602082015250565b6000612e8a603983612b95565b9150612e9582612e2e565b604082019050919050565b60006020820190508181036000830152612eb981612e7d565b9050919050565b7f53656c6c696e6720617373657420697320617661696c61626c65206f6e6c792060008201527f6166746572206d617475726974792e0000000000000000000000000000000000602082015250565b6000612f1c602f83612b95565b9150612f2782612ec0565b604082019050919050565b60006020820190508181036000830152612f4b81612f0f565b9050919050565b7f4f726465722065787069726174696f6e20697320616c7265616479207061737360008201527f65642e0000000000000000000000000000000000000000000000000000000000602082015250565b6000612fae602383612b95565b9150612fb982612f52565b604082019050919050565b60006020820190508181036000830152612fdd81612fa1565b9050919050565b7f4d6174757269747920697320616c7265616479207061737365642e0000000000600082015250565b600061301a601b83612b95565b915061302582612fe4565b602082019050919050565b600060208201905081810360008301526130498161300d565b9050919050565b7f4f72646572206973206e6f74206d617463686564207965740000000000000000600082015250565b6000613086601883612b95565b915061309182613050565b602082019050919050565b600060208201905081810360008301526130b581613079565b9050919050565b7f417661696c61626c65206f6e6c79207768656e2061737365742073656c6c696e60008201527f672e000000000000000000000000000000000000000000000000000000000000602082015250565b6000613118602283612b95565b9150613123826130bc565b604082019050919050565b600060208201905081810360008301526131478161310b565b9050919050565b7f4465706f73697420616d6f756e74206d75737420626520706f7369746976652e600082015250565b6000613184602083612b95565b915061318f8261314e565b602082019050919050565b600060208201905081810360008301526131b381613177565b9050919050565b6131c381612965565b82525050565b60006060820190506131de60008301866131ba565b6131eb60208301856131ba565b6131f86040830184612a4f565b949350505050565b61320981612a19565b811461321457600080fd5b50565b60008151905061322681613200565b92915050565b60006020828403121561324257613241612940565b5b600061325084828501613217565b91505092915050565b7f4f66666572696e6720737461746520636f6e747261637420697320726564656560008201527f6d61626c65206f6e6c79206166746572206f72646572206578706972792e0000602082015250565b60006132b5603e83612b95565b91506132c082613259565b604082019050919050565b600060208201905081810360008301526132e4816132a8565b9050919050565b7f4f72646572696e6720737461746520636f6e747261637420697320726564656560008201527f6d61626c65206f6e6c79206166746572206f72646572206578706972792e0000602082015250565b6000613347603e83612b95565b9150613352826132eb565b604082019050919050565b600060208201905081810360008301526133768161333a565b9050919050565b7f43616e206e6f742072656465656d206265666f72652073656c6c696e6720617360008201527f7365742e00000000000000000000000000000000000000000000000000000000602082015250565b60006133d9602483612b95565b91506133e48261337d565b604082019050919050565b60006020820190508181036000830152613408816133cc565b9050919050565b7f43616e206e6f742072656465656d206265666f726520636f6d706c6574696e6760008201527f2073656c6c696e672061737365742e0000000000000000000000000000000000602082015250565b600061346b602f83612b95565b91506134768261340f565b604082019050919050565b6000602082019050818103600083015261349a8161345e565b9050919050565b7f416c72656164792072656465656d65642e000000000000000000000000000000600082015250565b60006134d7601183612b95565b91506134e2826134a1565b602082019050919050565b60006020820190508181036000830152613506816134ca565b9050919050565b7f43616e206e6f742073746f70206f66666572696e67206265666f7265206f666660008201527f657220636c6f73696e672074696d650000000000000000000000000000000000602082015250565b6000613569602f83612b95565b91506135748261350d565b604082019050919050565b600060208201905081810360008301526135988161355c565b9050919050565b7f4e756c6c2066726f6d2061646472657373000000000000000000000000000000600082015250565b60006135d5601183612b95565b91506135e08261359f565b602082019050919050565b60006020820190508181036000830152613604816135c8565b9050919050565b7f4e756c6c20746172676574206164647265737300000000000000000000000000600082015250565b6000613641601383612b95565b915061364c8261360b565b602082019050919050565b6000602082019050818103600083015261367081613634565b9050919050565b7f5472616e7366657220746f2068696d73656c6620646f6573206e6f74206d616b60008201527f652073656e63652e000000000000000000000000000000000000000000000000602082015250565b60006136d3602883612b95565b91506136de82613677565b604082019050919050565b60006020820190508181036000830152613702816136c6565b9050919050565b7f4661696c20746f207472616e7366657220746f6b656e2062656361757365206f60008201527f66206c61636b206f6620746f6b656e732e000000000000000000000000000000602082015250565b6000613765603183612b95565b915061377082613709565b604082019050919050565b6000602082019050818103600083015261379481613758565b9050919050565b7f546f6f206d75636820616d6f756e7420697320747269656420746f207472616e60008201527f7366657200000000000000000000000000000000000000000000000000000000602082015250565b60006137f7602483612b95565b91506138028261379b565b604082019050919050565b60006020820190508181036000830152613826816137ea565b9050919050565b7f4c61636b206f66206465706f73697420616d6f756e742e000000000000000000600082015250565b6000613863601783612b95565b915061386e8261382d565b602082019050919050565b6000602082019050818103600083015261389281613856565b9050919050565b7f4e487b7100000000000000000000000000000000000000000000000000000000600052601160045260246000fd5b60006138d3826129a3565b91506138de836129a3565b92508282019050808211156138f6576138f5613899565b5b92915050565b7f556e6465726c79696e67417373657420697320736f6c6420627920302077657460008201527f682e000000000000000000000000000000000000000000000000000000000000602082015250565b6000613958602283612b95565b9150613963826138fc565b604082019050919050565b600060208201905081810360008301526139878161394b565b9050919050565b7f4e487b7100000000000000000000000000000000000000000000000000000000600052603260045260246000fd5b60006020820190506139d260008301846131ba565b92915050565b6000815190506139e7816129ad565b92915050565b600060208284031215613a0357613a02612940565b5b6000613a11848285016139d8565b91505092915050565b6000613a25826129a3565b9150613a30836129a3565b9250828202613a3e816129a3565b91508282048414831517613a5557613a54613899565b5b5092915050565b7f4e487b7100000000000000000000000000000000000000000000000000000000600052601260045260246000fd5b6000613a96826129a3565b9150613aa1836129a3565b925082613ab157613ab0613a5c565b5b828204905092915050565b6000604082019050613ad160008301856131ba565b613ade6020830184612a4f565b9392505050565b6000613af0826129a3565b91507fffffffffffffffffffffffffffffffffffffffffffffffffffffffffffffffff8203613b2257613b21613899565b5b600182019050919050565b6000613b38826129a3565b9150613b43836129a3565b9250828203905081811115613b5b57613b5a613899565b5b9291505056fea264697066735822122005b4e198dbe014a93a4a8af536255101c958f434cf62e23dc5223f3e6dc09e3764736f6c63430008110033",
  "immutableReferences": {},
  "source": "// SPDX-License-Identifier: MIT\npragma solidity ^0.8.17;\n\nimport \"@openzeppelin/contracts/utils/math/SafeMath.sol\";\nimport \"@openzeppelin/contracts/token/ERC20/IERC20.sol\";\nimport \"@openzeppelin/contracts/token/ERC20/ERC20.sol\";\n\ncontract CollectiveInvestmentScheme is IERC20 {\n    // using\n    using SafeMath for uint;\n\n    // enums\n    enum State { Offering, Ordering, AssetHolding, AssetSelling, AssetSold, Closed }\n\n    // external contracts\n    ERC20 private _WETHcontract;\n\n    // --- vvv fields vvv --- \n    // scheme info\n    State private _state;\n    uint private _offerClosingTime;\n    uint private _orderExpiration;\n    uint private _maturity;\n\n    // underlying\n    address private _underlyingAsset; // this must be hide in some manner...\n\n    // deposit related.\n    uint private _totalWETH;\n    mapping(address => uint) private _depositWETH;\n    address[] private _depositors;\n\n    // as token\n    mapping(address => mapping(address => uint)) private _allowance;\n\n    // execution result\n    uint private _purchasePrice;\n    uint private _soldPrice;\n\n    // --- ^^^ fields ^^^ --- \n\n    // modifiers\n    modifier onlyOffering() {\n        require(_state == State.Offering, \"Available only when offering\");\n        _;\n    }\n    modifier beforeOfferClose() {\n        require(block.timestamp < _offerClosingTime, \"Offer period already ended\");\n        _;\n    }\n    modifier onlyOrdering() {\n        require(_state == State.Ordering, \"Available only when ordering\");\n        _;\n    }\n    modifier onlyAssetHolding() {\n        require(_state == State.AssetHolding, \"Available only when ordering\");\n        require(block.timestamp < _maturity, \"This scheme reaches maturity.\");\n        _;\n    }\n    modifier onlyAssetSelling() {\n        require(_state == State.AssetSelling, \"Available only when asset selling.\");\n        _;\n    }\n    modifier onlyDepositor() {\n        require(_depositWETH[msg.sender] != 0, \"Only depositor can call.\");\n        _;\n    }\n\n\n    constructor(\n        address WETHcontract_,\n        address underlyingAsset_,\n        uint offerClosingTime_,\n        uint orderExpiration_,\n        uint maturity_\n    )\n        // Ownable()\n    {\n        require(WETHcontract_ != address(0));\n        require(underlyingAsset_ != address(0));\n        require(block.timestamp < offerClosingTime_, \"Offer closing time must be in future.\");\n        require(offerClosingTime_ <= block.timestamp + 90 days , \"Offer closing time is too future.\");\n        require(offerClosingTime_ < orderExpiration_, \"Order expiration must be after offer closing time.\");\n        require(orderExpiration_ <= offerClosingTime_ + 90 days, \"Order expiration is too future of offer closing time.\");\n        require(offerClosingTime_ < maturity_, \"Maturity must be after offer closing time.\");\n        require(maturity_ <= offerClosingTime_ + 180 days, \"Maturity is too future of offer closing time.\");\n        _WETHcontract = ERC20(WETHcontract_);\n        _underlyingAsset = underlyingAsset_;\n        _offerClosingTime = offerClosingTime_;\n        _orderExpiration = orderExpiration_;\n        _maturity = maturity_;\n    }\n\n    // administrator\n    // function setWETHcontract(address _newAddress) external onlyOwner {\n    //     _WETHcontract = ERC20(_newAddress); // is this safe...?\n    // }\n    // function renounceOwnership() public virtual override onlyOwner {\n    //     require(false, \"Owner of this contract can not be nullable.\");\n    // }\n    // function _transferOwnership(address _newOwner) internal override onlyOwner {\n    //     require(_newOwner != owner(), \"Transfer to self is not allowed.\");\n    //     require(_totalWETH <= _WETHcontract.allowance(address(this), _newOwner), \"WETH transfer is not allowed due to allowance.\");\n    //     _WETHcontract.transferFrom(address(this), _newOwner, _totalWETH);\n    //     super.transferOwnership(_newOwner);\n    // }\n\n    // getters\n    function getTotalWETH() external view returns(uint) {\n        return _totalWETH;\n    }\n    function getDepositWETH(address _depositor) external view returns(uint) {\n        return _depositWETH[_depositor];\n    }\n\n    // setters\n    function addDeposit(uint amount_) external onlyOffering beforeOfferClose {\n        // transfer weth from msg.sender to this contract\n        require(amount_ != 0, \"Deposit amount must be positive.\");\n        _WETHcontract.transferFrom(msg.sender, address(this), amount_);\n        _depositWETH[msg.sender] = _depositWETH[msg.sender].add(amount_);\n        _totalWETH = _totalWETH.add(amount_);\n        _depositors.push(msg.sender);\n    }\n    function _withdraw(uint amount_) private onlyOffering beforeOfferClose onlyDepositor {\n        // transfer weth from this contract to msg.sender\n        require(amount_ <= _depositWETH[msg.sender], \"Lack of deposit amount.\");\n        _WETHcontract.transferFrom(address(this), msg.sender, amount_);\n        _depositWETH[msg.sender] = _depositWETH[msg.sender].sub(amount_);\n        _totalWETH = _totalWETH.sub(amount_);\n    }\n    function withdrawWETH(uint amount_) external onlyOffering beforeOfferClose onlyDepositor {\n        _withdraw(amount_);\n    }\n    function withdrawWETH() external onlyOffering beforeOfferClose onlyDepositor {\n        _withdraw(_depositWETH[msg.sender]);\n    }\n\n    // ordering\n    function _makeBuyOrder() private onlyOffering {\n        // make a buy-order.\n        // in this function, use only 99.9999x% of weth to keep market incentive\n        // this function is future work. we need to implement price control logic.\n        // now, we assume that all weth is used to buy an asset.\n    }\n    function _cancelBuyOrder() private onlyOrdering {\n    }\n    function order() external onlyOffering {\n        require(_offerClosingTime <= block.timestamp, \"Can not stop offering before offer closing time\");\n        require(block.timestamp < _orderExpiration, \"Order expiration is already passed.\");\n        require(block.timestamp < _maturity, \"Maturity is already passed.\");\n        _makeBuyOrder();\n        _state = State.Ordering;\n    }\n    function _checkPurchased() public onlyOrdering returns(bool) {\n        if (true) {\n            // when order is not matched.\n            return false;\n        }\n        _purchasePrice = _totalWETH;\n        _state = State.AssetHolding;\n        return true;\n    }\n\n    // publish token\n    function publishToken() external onlyOrdering {\n        require(block.timestamp < _orderExpiration, \"Order expiration is already passed.\");\n        require(block.timestamp < _maturity, \"Maturity is already passed.\");\n        require(_checkPurchased(), \"Order is not matched yet\");\n    }\n\n    // sell asset\n    function _makeSellOrder() private {\n        // make a sell-order.\n        // this function is future work. we need to implement price control logic.\n    }\n    function _cancellSellOrder() private {\n        // cancel a sell-order.\n    }\n    function sellAsset() external {\n        require(_state == State.AssetHolding, \"Sell is available only when this contract holds an asset.\");\n        require(_maturity <= block.timestamp, \"Selling asset is available only after maturity.\");\n        _makeSellOrder();\n        _state = State.AssetSelling;\n    }\n    function updateSellOrder() external onlyAssetSelling {\n        _cancellSellOrder();\n        _makeSellOrder();\n    }\n    function checkSold() internal onlyAssetSelling returns(bool) {\n        if (true) {\n            // when order is not matched.\n            return false;\n        }\n        _soldPrice = _totalWETH;\n        _state = State.AssetSold;\n        return true;\n    }\n\n    // redeem\n    function _ifXthenY(bool x, bool y) internal pure returns(bool) {\n        return !x || y;\n    }\n    modifier onlyRedeemable() {\n        require(_ifXthenY(_state == State.Offering, _orderExpiration < block.timestamp), \"Offering state contract is redeemable only after order expiry.\");\n        require(_ifXthenY(_state == State.Ordering, _orderExpiration < block.timestamp), \"Ordering state contract is redeemable only after order expiry.\");\n        require(_state != State.AssetHolding, \"Can not redeem before selling asset.\");\n        require(_state != State.AssetSelling, \"Can not redeem before completing selling asset.\");\n        require(_state != State.Closed, \"Already redeemed.\");\n        _;\n    }\n    function _refund() internal onlyRedeemable {\n        require(_soldPrice != 0, \"UnderlyingAsset is sold by 0 weth.\");\n        address maxDepositor = _depositors[0];\n        uint maxDeposit = 0;\n        uint nDepositors = _depositors.length;\n        uint totalWETH = _totalWETH;\n        require(totalWETH <= _WETHcontract.balanceOf(address(this)));\n        for (uint i=0; i<nDepositors; ++i) {\n            address depositor = _depositors[i];\n            uint balance = _depositWETH[depositor];\n            if (balance != 0) {\n                if (maxDeposit < balance) {\n                    maxDeposit = balance;\n                    maxDepositor = depositor;\n                }\n                uint refundAmount = (_soldPrice * balance) / totalWETH;\n                _WETHcontract.transfer(depositor, refundAmount);\n                _totalWETH = _totalWETH.sub(refundAmount);\n            }\n        }\n        {\n            uint remaining = _WETHcontract.balanceOf(address(this));\n            _WETHcontract.transfer(maxDepositor, remaining);\n        }\n    }\n    function redeem() external onlyRedeemable {\n        if (_ifXthenY(_state == State.Ordering, _orderExpiration < block.timestamp)) {\n            _cancelBuyOrder();\n        }\n        _refund();\n        _state = State.Closed;\n    }\n\n    // IERC20 behavior. This behavior is active only when AssetHolding state\n    function totalSupply() external view override onlyAssetHolding returns (uint256) {\n        return _totalWETH;\n    }\n    function balanceOf(address account_) external view override onlyAssetHolding returns (uint256) {\n        return _depositWETH[account_];\n    }\n    function allowance(address owner_, address spender_) external view override onlyAssetHolding returns (uint256) {\n        return _allowance[owner_][spender_];\n    }\n    function approve(address spender_, uint256 amount_) external override onlyAssetHolding returns (bool) {\n        require(spender_ != address(0), \"Null spender address\");\n        _allowance[msg.sender][spender_] = amount_;\n        emit Approval(msg.sender, spender_, amount_);\n        return true;\n    }\n    function _transfer(address from_, address to_, uint amount_) private  onlyAssetHolding returns (bool) {\n        require(to_ != address(0), \"Null from address\");\n        require(to_ != address(0), \"Null target address\");\n        require(from_ != to_, \"Transfer to himself does not make sence.\");\n        require(amount_ <= _depositWETH[from_], \"Fail to transfer token because of lack of tokens.\");\n        require(amount_ <= _allowance[from_][to_], \"Too much amount is tried to transfer\");\n        if (_allowance[from_][to_] != type(uint).max) {\n            _allowance[from_][to_] = _allowance[msg.sender][to_].sub(amount_);\n        }\n        _depositWETH[to_] = _depositWETH[to_].add(amount_);\n        _depositWETH[from_] = _depositWETH[from_].sub(amount_);\n        _depositors.push(to_);\n        emit Transfer(from_, to_, amount_);\n        return true;        \n    }\n    function transfer(address to_, uint256 amount_) external override onlyAssetHolding returns (bool) {\n        return _transfer(msg.sender, to_, amount_);\n    }\n    function transferFrom(address from_, address to_, uint amount_) external override onlyAssetHolding returns (bool) {\n        return _transfer(from_, to_, amount_);\n    }\n}\n",
  "sourcePath": "/Users/sosukeimai/Desktop/ws/web3/contracts/contracts/CollectiveInvestmentScheme.sol",
  "compiler": {
    "name": "solc",
    "version": "0.8.17+commit.8df45f5f.Emscripten.clang"
  },
  "schemaVersion": "3.4.10",
  "updatedAt": "2022-11-06T11:29:59.040Z",
  "devdoc": {
    "kind": "dev",
    "methods": {
      "totalSupply()": {
        "details": "Returns the amount of tokens in existence."
      }
    },
    "version": 1
  },
  "userdoc": {
    "kind": "user",
    "methods": {},
    "version": 1
  }
}